:020000040001F9
:10C00000C04800208DC4010095C4010097C4010000
:10C0100099C401009BC401009DC401000000000000
:10C020000000000000000000000000009FC40100AC
:10C03000A1C4010000000000A3C40100A5C40100C8
:10C04000A7C40100A7C4010029CE0100A7C40100B4
:10C05000A7C40100A7C4010045CA0100A7C401008C
:10C06000A7C40100A7C40100A7C40100A7C4010020
:10C07000A7C40100A7C40100A7C40100A7C4010010
:10C08000A7C40100F9CB0100A7C40100A7C40100A7
:10C0900011CC0100A7C4010015CC0100A7C4010008
:10C0A000A7C40100A7C40100A7C40100A7C40100E0
:10C0B000A7C40100A7C401000000000000000000A8
:10C0C000A7C40100A7C40100A7C40100A7C40100C0
:10C0D000A7C40100A7C40100A7C40100000000001C
:10C0E0000000000000000000000000000000000050
:10C0F0000000000000000000000000000000000040
:10C10000000000000000000000000000000000002F
:10C11000000000000000000000000000000000001F
:10C40000DFF80CD000F07CFA00480047C5F20100CC
:10C41000C0480020401E00BF00BF00BF00BF00BFDB
:10C4200000BF00BF00BF00BF00BF00BF00BF00BF14
:10C4300000BF00BF00BF00BF00BF00BF00BF00BF04
:10C4400000BF00BF00BF00BF00BF00BF00BF00BFF4
:10C4500000BF00BF00BF00BF00BF00BF00BF00BFE4
:10C4600000BF00BF00BF00BF00BF00BF00BF00BFD4
:10C4700000BF00BF00BF00BF00BF00BF00BF00BFC4
:10C4800000BF00BF00BFC5D170470000064880470D
:10C4900006480047FEE7FEE7FEE7FEE7FEE7FEE7A9
:10C4A000FEE7FEE7FEE7FEE739CC010001C401002C
:10C4B00040EA01039B0703D009E008C9121F08C026
:10C4C000042AFAD203E011F8013B00F8013B521EA6
:10C4D000F9D27047D2B201E000F8012B491EFBD21D
:10C4E00070470022F6E710B513460A46044619467F
:10C4F000FFF7F0FF204610BD0146002000E0401C81
:10C500000A5C002AFBD1704730B50B46014600207B
:10C510002022012409E021FA02F59D4205D303FA05
:10C5200002F5491B04FA02F52844151EA2F1010286
:10C53000F1DC30BD2DE9F05F0546002092469B46B8
:10C5400088460646814640241BE028464146474629
:10C55000224600F0F6F953465A46C01A914110D3CC
:10C5600011461846224600F0DDF92D1A67EB010846
:10C570004F4622460120002100F0D4F917EB0009B4
:10C580004E41201EA4F10104DFDC484631462A4614
:10C590004346BDE8F09F2DE9FE4F804681EA030047
:10C5A000C00F0C46009021F0004123F00045B8EB8D
:10C5B0000200A94105D24046214690461C460B4642
:10C5C000024623F00040104304D14046214603B008
:10C5D000BDE8F08F270DC7F30A00C3F30A5102909C
:10C5E000401A0190402866DAC3F3130040F4801B20
:10C5F0000098924620B10023D2EB030A63EB0B0BA9
:10C6000001985946C0F14002504600F08BF90646A9
:10C610000D4650465946019A00F0A3F910EB080068
:10C620006141002487EA115284EAE7731A433BD040
:10C63000009A3AB3019A012A4FEA075210DC001B14
:10C6400061EB02014FF0004202EA0752CDE90042DD
:10C65000001C41F5801132462B4600F0A1F9B6E7E7
:10C66000001B61EB0201001C41F5801300185B41C7
:10C670002018A2F5001747EB030140EAD570B61960
:10C680006D4111E06D084FEA360645EAC0754FEA84
:10C690000752001B61EB0201001C41F580114908A3
:10C6A0004FEA30000019514132462B4603B0BDE835
:10C6B000F04F00F068B90098012240000023D0EB51
:10C6C000020263EBE073009821464FEAE074B8EB96
:10C6D000000061EB0401E9E783F000435BE781F0D0
:10C6E000004158E72DE9FE4F81EA030404F00044BD
:10C6F00021F0004100944FF0000B23F0004350EA7A
:10C70000010402D052EA030404D10020014603B020
:10C71000BDE8F08FC3F30A54C1F30A552C44A4F2C8
:10C72000F3340194A0FB0254C1F3130141F48011CE
:10C73000C3F3130343F4801301FB024400FB034ED5
:10C74000840A970A44EA815447EA8357A4FB07689E
:10C7500002958D0A05FB07854FEA932C04FB0C54C8
:10C760002705029D4FEA065847EA1637B5EB08053C
:10C770006EEB070C870E920E47EA811742EA83128E
:10C78000A7FB0201B6EB0B0164EB00042B0D43EA9F
:10C790000C335E1844EB1C50DA465146E7FB0201AD
:10C7A000C5F313044FEA0B3343EA14534FEA043240
:10C7B000019C43EA0603A4F10C040294009CCDE919
:10C7C00000B400F0EDF8A2E72DE9F04D81EA030492
:10C7D00004F0004B21F0004514464FF0000A23F00E
:10C7E000004150EA050220D054EA01021DD0C5F3F1
:10C7F0000A570246C5F31303C1F31300C1F30A56E7
:10C8000040F4801543F48013A7EB0608101BD646AE
:10C8100008F2FD3873EB050002D308F1010801E0CE
:10C8200092185B41B8F1000F03DA00200146BDE821
:10C83000F08D00204FF48011064684460EE0171B51
:10C8400073EB050705D3121B63EB050306434CEAA4
:10C85000010C49084FEA300092185B4150EA010789
:10C86000EDD152EA030012D082EA040083EA050106
:10C87000084303D100224FF0004308E0101BAB41F6
:10C8800002D20122002302E06FF0010253101AEBE2
:10C8900006004CEB085110EB0A0041EB0B01BDE820
:10C8A000F04D00F070B8C1F30A52C1F3130140F229
:10C8B000FF3341F480119A4202DA002001467047AA
:10C8C00040F233439A42A2F2334202DC524200F079
:10C8D00038B800F027B8000030B5002904DB4FF06D
:10C8E0000044404264EB0101002B04DB4FF00044A4
:10C8F000524264EB0303994208BF904230BD0000EE
:10C90000064C074D06E0E06840F0010394E807009C
:10C9100098471034AC42F6D3FFF776FD04140200BA
:10C9200024140200202A04DB203A00FA02F100203D
:10C9300070479140C2F1200320FA03F3194390405D
:10C940007047202A04DB203A21FA02F000217047C8
:10C9500021FA02F3D040C2F1200291400843194667
:10C960007047202A06DBCB17203A41FA02F043EA4F
:10C97000E07306E041FA02F3D040C2F12002914098
:10C9800008431946704710B5002B08DA401C41F1E6
:10C99000000192185B411A4301D120F0010010BD43
:10C9A0002DE9F04D92469B4611B1B1FA81F202E0B9
:10C9B000B0FA80F220329046FFF7B4FF04460F46EB
:10C9C00040EA0A0041EA0B0153465A46084303D1A4
:10C9D00020463946BDE8F08D114653EA010015D0D6
:10C9E000C8F140025046FFF7ACFF05460E465046E0
:10C9F00059464246FFF796FF084301D0012000E068
:10CA00000020054346EAE0762C4337430A984FEA74
:10CA10004453A0EB08004FEAD4240A304FF0000240
:10CA200044EA47544FEAD72502D500200146D1E712
:10CA3000010510196941DDE9084500196941BDE8A2
:10CA4000F04DA0E72DE9FC5F0025DFF83091A84606
:10CA50004FF4807601242F46304603F089F838B130
:10CA6000D9F80403204203D0304603F079F8254377
:10CA7000361D64007F1CB6B2082FEDD34FF4BE7490
:10CA8000204603F075F838B1204603F069F83C48B9
:10CA900045F00045D0F800803A4E15F0FF0F13D056
:10CAA000012700242F420BD0374800EB840108688F
:10CAB0000968C0F3042056F82420C1F301419047CF
:10CAC0007F00641C082CEDD3002D54DA4FF0000ACF
:10CAD0004FF0FF3900273D46701910F8501F90F9AC
:10CAE000000021F0C004401C37D0012000FA04FBF4
:10CAF0001BEA090F31D088090090204601F080FE22
:10CB000056F82000019020B100995846032904D01E
:10CB100005E00098032820D158464AEA000A1B493C
:10CB200051F824101BEA080FC1F3014102D0022979
:10CB300002D012E0032910D10098032807D102295E
:10CB400017D00221204602F0FDFF7F1CFFB20198A2
:10CB500018B1DDE90012204690476D1C042DBBD3AF
:10CB6000002F08D006480068404504D08046D146D2
:10CB7000B0E70321E6E7BDE8FC9F0000006000404D
:10CB800010050050EC230020106500400007005005
:10CB900000F01F020121914040094FF0E02202EB1A
:10CBA0008000C0F88012704700F01F020121914000
:10CBB00040094FF0E02202EB8000C0F800117047FE
:10CBC00000F01F020121914040094FF0E02202EBEA
:10CBD0008000C0F8001270474907090E002803DAE8
:10CBE00000F00F00024A00E0024A81547047000042
:10CBF00014ED00E000E400E0044800210164416419
:10CC00008164C1640160416003F062BE00110140B3
:10CC100003F0FEBD074810B5406830B180470028DA
:10CC200007D0BDE8104000F0E9BEBDE8104002F0BA
:10CC3000A9B910BD301F002030B56C480024012276
:10CC4000007806287ED16948001D0078000779D158
:10CC5000664808300078C0F30310032804D0042885
:10CC600005D0052803D00AE0624B61495967624943
:10CC70000968624BC1F342311960032804D00428CB
:10CC800007D0052805D01CE05D490B6823F08073B0
:10CC90000B605C490C604C605849091F0C6003280C
:10CCA0000FD1564B032164331960574B052119608E
:10CCB000554978310A60544908310C603F211B1DE9
:10CCC0001960052857D151480068514908604F48FC
:10CCD000001D0068091D08604C4808300068091DE7
:10CCE00008604A480C300068091D08604748103049
:10CCF0000068091D0860454814300068091D086077
:10CD00004248183000684249203108603F481C30D2
:10CD10000068091D08603D4820300068091D086052
:10CD20003A4824300068091D0860384828300068F7
:10CD3000091D086035482C300068091D086033481B
:10CD4000303000E017E000683149403108602F487A
:10CD500034300068091D08602C4838300068091D0F
:10CD600008602A483C300068091D086027484030A8
:10CD70000068091D086022487438016841F4700198
:10CD80000160BFF34F8FBFF36F8F4FF01021D1F8C9
:10CD90000002002803DBD1F80402002821DA1D4B31
:10CDA0001A601D480268002AFCD01522C1F8002232
:10CDB0000568002DFCD0C1F8042201680029FCD0D0
:10CDC0001C6001680029FCD0BFF34F8F0C48F0387D
:10CDD0000168124A01F4E06111430160BFF34F8F13
:10CDE000FEE710490E48086030BD0000E00F00F07B
:10CDF0000DF0ADBA00C00740440200103C050040F1
:10CE0000FCED00E00C01004010560040040400104E
:10CE100020C5004004E5014000E401400400FA059B
:10CE20000090D003DC1E00200348007F08B103F00F
:10CE3000DDBE03F057BE000044240020F8B5144CBA
:10CE40000546A068804720698047216AC5F30740EE
:10CE5000C5F3072699B1626A8AB18DF800008DF892
:10CE600001608DF80250032168469047A069804711
:10CE7000054660698047E06880472846F8BDE1695B
:10CE80008847E16930468847E169E8B28847EDE7BD
:10CE9000801F00202DE9F8431A4C05461746A0686C
:10CEA0008846804720698047216AC5F30740C5F35B
:10CEB0000726A1B1626A92B18DF800008DF8016079
:10CEC0008DF80250032168469047226A3946404651
:10CED000904760698047E0688047BDE8F883E16972
:10CEE0008847E16930468847E169E8B2884700250C
:10CEF00005E0A069804708F805006D1CADB2BD4291
:10CF0000F7D3E6E7801F0020F8B5164C05460E461D
:10CF1000A068804720698047626A45F004058AB1AD
:10CF2000280C8DF80000280A8DF801008DF80250B9
:10CF30008DF8036004216846904760698047E06887
:10CF40008047F8BDE169C5F307408847E169C5F34B
:10CF500007208847E169E8B28847E1693046884799
:10CF6000EBE70000801F0020F8B51A4C0546164676
:10CF7000A0680F46804720698047626A45F0040533
:10CF80009AB1280C8DF80000280A8DF801008DF860
:10CF90000250032168469047626A314638469047FE
:10CFA00060698047E0688047F8BDE169C5F30740E4
:10CFB0008847E169C5F307208847E169E8B28847F7
:10CFC000002504E0E169785D88476D1CADB2B5428B
:10CFD000F8D3E5E7801F00200FB4054B10B503A977
:10CFE000044A029800F0DAF810BC5DF814FB000067
:10CFF00087EE01002C1F00200FB4084B10B504A9C8
:10D0000002AA039800F0CAF8044602A9002000F022
:10D0100068FC204610BC5DF814FB0000E3D801005A
:10D0200002E008C8121F08C1002AFAD170477047F1
:10D03000002001E001C1121F002AFBD1704700004F
:10D040002DE9FF5FDDE90220010DDDF838B0024374
:10D0500010D10F9801244CA2012808D0002100987B
:10D060000F9BC0E90021C0E90243BDE8FF9F6FEAC2
:10D070000B01F4E7A1F2FF3144F6105041430D14C7
:10D080000F9801280ED0A5EB0B00401C4FF00004B8
:10D090003E4EDFF8FC90B0F1000AA04605DACAF176
:10D0A000000717E0CBF10000F0E7074612E0F807B1
:10D0B00007D02246334640464946FFF713FB8046D9
:10D0C00089462246334610461946FFF70BFB0446B5
:10D0D0000E467F10002FEAD1DDE90201BAF1000F00
:10D0E00042464B4602DAFFF7FDFA01E0FFF76CFB20
:10D0F00004460E460022274BFFF7EEFB03D84FF005
:10D10000FF30014607E00022234B20463146FFF75F
:10D1100042FAFFF7C8FB102409E0002C0ADB0A22C0
:10D120000023FFF707FA019B30321A55641E50EABC
:10D130000102F2D1641C019AC4F1110314440F9A44
:10D14000012A09D00122084301D15B450FDD4FF0D0
:10D15000000205F101050DE0084303D1A3EB0B0527
:10D160006D1E09E000204FF0110B0F9088E701DAE7
:10D1700000226D1E002A83D000980F99C0E9023169
:10D18000C0E9004571E700003000000000002440C5
:10D190000000F03F0000F0430000E03F2DE9FF4FAA
:10D1A00095B09B4689460646002512E2252878D18F
:10D1B0000024761CF94A2746012105943378203B48
:10D1C00001FA03F0104202D00443761CF6E73078EF
:10D1D0002A2811D06FF02F033078A0F13002092AED
:10D1E00016D8059A44F0020402EB820203EB4202D5
:10D1F0001044761C0590EFE759F8042B0592002A9D
:10D2000003DA504244F40054059044F00204761CC2
:10D2100030782E2816D116F8010F44F004042A287D
:10D220000DD06FF02F023078A0F13003092B09D810
:10D2300007EB870302EB4303C718761CF3E759F8A3
:10D24000047B761C30786C280FD006DC4C2817D075
:10D2500068280DD06A2814D104E0742810D07A28E8
:10D260000FD10DE044F400140AE044F4801401E00E
:10D2700044F440147278824202D1761C04F5801482
:10D28000761C307866280BD013DC582877D009DC60
:10D29000002875D04528F6D04628F4D047281AD162
:10D2A0009FE118E0632835D0642879D0652812D131
:10D2B00097E1702873D008DC6728F1D069286FD017
:10D2C0006E280DD06F2806D1B5E073282CD07528B4
:10D2D00075D0782874D05A46179990476D1C76E11E
:10D2E000C4F30250022809D003280DD0D9F8001049
:10D2F00004280DD00D6009F1040968E1D9F8001087
:10D30000EA17C1E90052F6E7D9F800100D80F2E7FC
:10D310000D70F0E719F8041B8DF8001000208DF84F
:10D320000100EA46012003E059F804AB4FF0FF305A
:10D3300061074FF0000102D40DE008F101018846B9
:10D34000B9420FDA8045F8DB1AF808100029F4D149
:10D3500008E008F1010188468142FADB1AF808105A
:10D360000029F6D105985B46A0EB08072146384610
:10D37000179A00F09EFA284400EB080507E04DE0FC
:10D380002BE10DE01AF8010B5A4617999047B8F1B6
:10D390000108F7D25B4621463846179A14E142E06D
:10D3A0000A220092C4F302524FF0000A022A08D067
:10D3B00059F804CB032A4FEAEC710AD00DE029E0BA
:10D3C0002AE009F1070121F00702F2E802C19146C3
:10D3D00009E00FFA8CFC4FEAEC71042A03D14FFAF2
:10D3E0008CFC4FEAEC71002907DA0A460021DCF1D7
:10D3F000000C61EB02012D2202E0220504D52B2254
:10D400008DF80420012203E0E20701D02022F7E793
:10D41000904653E00A2102E010220DE010214FF067
:10D42000000A00910BE010224FF0000A44F00404BF
:10D430000827009203E008224FF0000A0092C4F38C
:10D440000252022A05D059F804CB0021032A08D041
:10D4500009E009F1070121F00702F2E802C1914653
:10D4600005E01FFA8CFC042A01D10CF0FF0C4FF0F0
:10D470000008220722D5702827D0009B83F01003D4
:10D4800053EA0A0309D15CEA010206D030228DF882
:10D4900004208DF8050002229046009B83F00803CB
:10D4A00053EA0A030AD15CEA010201D1620705D5F9
:10D4B00030228DF804204FF001087F1E582809D033
:10D4C00037A003900EA8029013E040228DF80420AC
:10D4D0000122E1E737A0F4E753466046009AFFF7E0
:10D4E00029F884460398825C0298A0F1010002901A
:10D4F00002705CEA0100EFD1029806A9A1EB0000DE
:10D5000000F1200A600702D524F4803400E00127EE
:10D51000574502DDA7EB0A0000E0002000EB0A01FE
:10D52000009005984144A0EB01000590E00306D46B
:10D530005B462146179A059800F0BBF90544002781
:10D5400006E001A85A46C05D179990476D1C7F1CE4
:10D550004745F6DBE0030CD55B462146179A059854
:10D5600000F0A7F9054404E030205A461799904787
:10D570006D1C0099481E00900029F5DC08E0029817
:10D5800002995A460078491C0291179990476D1CE0
:10D59000BAF10001AAF1010AF1DC6BE109280100EE
:10D5A0003031323334353637383961626364656619
:10D5B00000000000303132333435363738394142DB
:10D5C000434445460000000000F060F9054406F1C0
:10D5D0000106307800287FF4E9AD19B02846BDE88F
:10D5E000F08F620700D4062709F1070222F0070C2A
:10D5F000FCE80223E14603F000485FEA080C02D091
:10D600000FF27C2C0DE05FEA045C02D50FF2742C63
:10D6100007E05FEAC47C02D00FF26C2C01E0AFF2AD
:10D62000700C4FF0FF3823F00043CDF850C0652850
:10D630000CD006DC452809D046281DD047283ED10D
:10D640003EE0662818D0672839D139E00021112F33
:10D6500001DB112000E0781CCDE9000106A90EA82D
:10D66000FFF7EEFCDDE90F010E9A03910021009215
:10D6700007F1010A04914EE04FF000400097CDE918
:10D68000011006A90EA8FFF7DBFCDDE90F020392EB
:10D690000E9B11990022DDF80CA00093049219B999
:10D6A00007F1010100EB010AB7EB0A0004D4C0F155
:10D6B000FF3007F1010A0490AAEB0700019046E051
:10D6C000012F00DA01270021112F01DD112000E0D8
:10D6D0003846CDE9000106A90EA8FFF7B1FCDDE947
:10D6E0000F010E9A0391002104910092BA4621077E
:10D6F0000CD40399514500DA8A46BAF1010F05DDD1
:10D70000009AAAF10101515C302908D0B84202DA2E
:10D7100010F1040F06DA0121CDE9011017E0AAF19A
:10D720000101E9E7002805DC049901440491AAEB12
:10D73000000102E0411C514500DD8A460499A0EB3E
:10D74000010000F1010001904FF00040029020071D
:10D7500004D40198504501DBCDF8048000208DF8F9
:10D760004F0002980DF14F07B0F1004F25D02B204C
:10D770000E9002984FF0020800280CDA4042029006
:10D780002D200E9007E00A210298FEF7BDFE3031F1
:10D79000029007F8011DB8F10001A8F10108F2DCC0
:10D7A00002980028EFD1791E0E980870307800F0AA
:10D7B000200040F0450007F8020D12A8A0EB07007A
:10D7C00000F107081498007800B1012000EB0A016D
:10D7D000019801EBE07105984144A0EB0100A0F134
:10D7E00001000590E00306D45B462146179A059890
:10D7F00000F05FF805441498007820B15A46179954
:10D80000904705F10105E00323D55B462146179AB1
:10D81000059800F04EF805441BE00498002807DB4B
:10D820000399814204DD04990098405C179901E056
:10D83000179930205A46904704986D1C401C04905C
:10D840000198401E019004D12E205A461799904706
:10D850006D1CBAF10001AAF1010ADEDC05E017F83F
:10D86000010B5A46179990476D1CB8F10001A8F1B9
:10D870000108F4DC5B462146179A0598A4E60000EF
:10D880002D0000002B000000200000002DE9F041D9
:10D89000044600251E461746880405D406E039468E
:10D8A0002020B04705F10105641EF8D52846BDE8E3
:10D8B000F0812DE9F041044600251E469046C8033C
:10D8C00001D5302700E02027880405D506E0414631
:10D8D0003846B04705F10105641EF8D52846BDE875
:10D8E000F0810A68531C0B601070704710B501225C
:10D8F0000221002000F098FD08B1072810D107226E
:10D900000221012000F090FD08B1072808D1002174
:10D910000A22084600F088FD08B1072800D100203F
:10D9200010BD0000064800684FF40021044A8143FE
:10D93000121D1160111D00F40020086070470000E6
:10D940000405005070B50024064D06E0686801210A
:10D9500010F8340001F0F2FD641C28788442F5D3FD
:10D96000002070BDF81E0020F8B50C46154606468E
:10D97000052A01D20720F8BD01F0BCFE18B901F05C
:10D980008FFE0028F7D1114900204E600C70C1E9CC
:10D9900002500F4D08610DE006EBC400696800916C
:10D9A00081788DF8011000780A4A694601F016FE68
:10D9B0000028E0D12000A4F10104E4B2ECD1BDE8DC
:10D9C000F840054A0021024800F04CB8F81E00203B
:10D9D000B81302002DEF010059EC0100BFF34F8F87
:10D9E00004480168044A01F4E06111430160BFF397
:10D9F0004F8FFEE70CED00E00400FA050EB50021A4
:10DA00000091CDE901106A4644F20100FFF7E6FFFC
:10DA10000EBD10B58268C3689A1A03D001F020FACF
:10DA2000002010BD052010BD29B112B1531E1342B4
:10DA300003D0092070470E207047016083800021C9
:10DA40008160C1600846704710B58268C3689A1A41
:10DA500083889A4203D801F00DFA002010BD0420FB
:10DA600010BD0000074B9B6823B12AB120B10068AC
:10DA7000037C1BB108207047072070474174426146
:10DA8000002070470C1F00202DE9F04780460F460C
:10DA90009946144690074FF0000634D11C4D8CB3C4
:10DAA00002F012FB0320C5F81490287004F118004E
:10DAB000002107EB4703AC6004EBC102491C167060
:10DAC00056709770506000EBC3000329F4DBEE60E2
:10DAD0006E70AE701420FFF75BF806211420FFF77C
:10DAE0007BF81420FFF760F80A49C1F8008006218E
:10DAF0001120FFF771F80748001F00682861002017
:10DB0000BDE8F08701E00720FAE7AE60FBE7000020
:10DB10000C1F0020081501402DE9F843DFF86C9038
:10DB20000D461746D9F80810044649B344B3052DED
:10DB300002D20720BDE8F883606908B3607C012841
:10DB400020D0002603F03CF9D9F80810804601EBFC
:10DB5000C800694603F054F9B0B1012101700C49C5
:10DB6000446009680830E2C0D9F8081001EBC80029
:10DB70009DF8001041701420FFF722F80020D9E72B
:10DB80000820D7E72E46DDE70420D3E70C1F00204E
:10DB900004150140F8B5124E0446B168E1B1DCB19C
:10DBA0006069C8B10027277403F00AF90546B06818
:10DBB000694600EBC50003F023F978B1022101703A
:10DBC0004460B0689DF8001000EBC500417014205F
:10DBD000FEF7F6FF3846F8BD0820F8BD0420F8BD72
:10DBE0000C1F002010B5044609488168C26880886F
:10DBF000511A814206D10121064801F0CFFD08B13A
:10DC0000052010BD2146BDE810400148FFF701BFC7
:10DC1000CC230020F11E002070B50446234888B0B4
:10DC20001E460D00426035D0A888296882B220487F
:10DC3000FFF7FAFE00282ED1A889A96882B21C48F5
:10DC40001030FFF7F1FE002825D12022194968463F
:10DC5000FEF72EFCA0680690207900B101208DF817
:10DC600014008DF81C60607900B10E208DF815004D
:10DC7000E0780290A078039020780190607800907E
:10DC80000D49684601F040FD002804D19DF81D00B3
:10DC900018B104E0072008B070BD01F0C5FD0348CD
:10DCA0000121401C01F07AFDF5E70000F01E002084
:10DCB000CC23002078130200F909020010B50146B8
:10DCC0000948FFF7C1FE04000CD101F0DFFE48B99E
:10DCD00006490548FFF79DFE20B90121034801F0E0
:10DCE0004BFE0446204610BDDC230020F01E002021
:10DCF0002DE9F041044600781E4E012505FA00F09A
:10DD00003060206801F009FF0021606801F0FCFE2E
:10DD10001948DFF86880194990F81CC01748174F58
:10DD20001C3008F108086431D4F818C03A1D08F115
:10DD30000403C0F800C0607D94F814C040EA0C00F1
:10DD40000860D4E9000110601960207D01280ED11F
:10DD50000021A06801F0D8FE207B85403560E06896
:10DD600001F0DBFED4E902103860C8F80010BDE80D
:10DD7000F0810000080500504424002008250040E0
:10DD800070B540B10C4D297839B1044602F080F9E4
:10DD900028B1002070BD0E2070BD082070BDE8685D
:10DDA000062807D20549226801EB8001401C0A6061
:10DDB000E860EEE7042070BDE01E0020D4210020C2
:10DDC00040B1054900220123CA600B70C1E901027C
:10DDD000104670470E207047E01E002000281FD01C
:10DDE00000291DD00F4A1278002A19D00A88112A5A
:10DDF0000ED0302A06D0322A07D0332A10D1091D7E
:10DE000001F0BABF091D02F01BB8091D01F02EBFB9
:10DE10008988B0F8AA21914202D1002180F8A71187
:10DE200070470000E01E002010B50B46040009D02A
:10DE30001148017841B1C16831B194F8A71129B1F5
:10DE4000112010BD0E2010BD082010BDA4F8AA316D
:10DE50000021816084F8A811084884F8A6112246A0
:10DE6000006820600121184690DF0028EDD10120D4
:10DE700084F8A701002010BDE01E0020D42100205E
:10DE800010B5044601F0A0FE204600F0FFF921463F
:10DE90000448FFF7A3FF21460248BDE810402038A0
:10DEA00000F09AB8F8240020FEB5054608780C4624
:10DEB000012807D0022817D0032839D1BDE8FE4039
:10DEC00002F056B9618804F10A02284600F050F8C1
:10DED00008B1FFF793FD284600F0EEF8002827D0A0
:10DEE000BDE8FE40FFF78ABD12A0FFF775F81548A0
:10DEF000017D837D427D8DE80E00C37C827C417C68
:10DF000011A0FFF769F8002506E06068405DFFF7A3
:10DF1000D5FE0028F9D16D1C207AA842F5D8124E02
:10DF2000B570B27861681148FEF7C2FA012030700E
:10DF3000FEBD00005B46726F6D20424C455F505D38
:10DF400020000000D8240020253032783A253032D5
:10DF5000783A253032783A253032783A253032789E
:10DF60003A25303278200000B01E002054210020D5
:10DF700048B141802AB15188C1801188818091883F
:10DF80000181002070470E207047000030B5114B12
:10DF90000D4604000FCB85B08DE80F0018D0BDB141
:10DFA0002146684663DF002810D120788DF81200E2
:10DFB0000120ADF810004FF6FF7060802868E06027
:10DFC0000020A080208104A8FFF7DAFE05B030BD54
:10DFD0000E20FBE7501302001FB500282ED00029A9
:10DFE0002CD042884FF6FF739A4202D08C88A2420E
:10DFF00024D10C88112C14D0392C1FD18288002AEE
:10E000001CD08B89934219D1C268002A16D00222F3
:10E010008DF8002001F112020192097C8DF80810A0
:10E0200009E08988914209D1C168002906D00321FD
:10E030008DF800104380C268694690471FBD7FB5C8
:10E04000002200920192029203920B7801F10E02DB
:10E05000002B2FD18B88012B2CD18B790478A342F4
:10E0600028D1002317E003EB430432F82450022D9B
:10E0700002D0032D0ED105E002EB84042489ADF813
:10E080000E4007E002EB84042589ADF80A5064894C
:10E09000ADF80C405B1C0C7A9C42E4D8C268002AA4
:10E0A00008D04988ADF8021001218DF80010C2682F
:10E0B000694690477FBD00001FB5D0B14288A2F5E8
:10E0C0007F41FF3917D0C088A8B101218DF80C100D
:10E0D00000218DF80D100949D1E90431CDE9003155
:10E0E000ADF8020003A802906946104698DF04B01C
:10E0F00010BD0E20FBE70820F9E7000050130200D6
:10E100003EB518B1142A03D907203EBD0E203EBDEE
:10E110004388A3F57F44FF3C01D108203EBD074D55
:10E1200038CD8DE8380003890291ADF80230ADF8A2
:10E1300006204088694698DF3EBD00006C1302004F
:10E1400000B5154887B00023406805904822134960
:10E1500005A802F0ABF908B1FFF750FC6A460021B0
:10E16000012002F08DF908B1FFF748FC0C4802F0DD
:10E1700011F808B1FFF742FC684602F079F908B1DE
:10E18000FFF73CFC074802F069F9002801D0FFF7CF
:10E1900035FC07B000BD0000C01302009024002031
:10E1A000E01C002081DE010030B5174C9DB02078C6
:10E1B000002826D04FF44A70FEF740FE17281ED1E3
:10E1C0001248C17C857D437D027D8DE82E00837CD5
:10E1D000427C0FA104A8FEF70FFF04A8FEF78CF9FC
:10E1E00082B204A9012002F027F8A2781349012085
:10E1F00002F022F8002802DA012000F029FB0020BA
:10E2000020701DB030BD0000B01E0020D8240020BA
:10E210005B46726F6D20424C455F505D2025303269
:10E22000783A253032783A253032783A25303278CB
:10E230003A253032783A25303278200054210020B7
:10E240007CB5114E0C004FF00005306015D06946CA
:10E25000002000F0B1F8002815D101A9012000F03C
:10E26000ABF800280FD19DF8041009B1022003E09B
:10E270009DF8001001B10B202070706810B9FFF7F5
:10E2800035FB054628467CBDD41E002010B51A4C2F
:10E290000188606810290ED011292BD1401E6060C2
:10E2A00028D1FFF723FB002824D02168002921D0A2
:10E2B000BDE810400847D0B900210122084600F00F
:10E2C000B3F808B107280FD107220221012000F07E
:10E2D000ABF808B1072807D104220221002000F082
:10E2E000A3F820B1072802D0216801B188476068EF
:10E2F000401C606010BD0000D41E002010B503203B
:10E3000000F028FA08B1062800D1002010BD000056
:10E310002DE9F04707460024244802E0641C042C41
:10E3200041D250F82420BA42F8D1042C3BD21F48E5
:10E33000DFF87C901F4E0C38A9F1140841B3012975
:10E340000FD002292FD104EB440030444578002D32
:10E3500029D0D8F81010002925D02846BDE8F0476C
:10E36000084704EB4401755C0E44717861B1D8F83C
:10E3700004100F4A01EB81014900133A8068FFF74E
:10E38000CBFB08B988F80170B17809F80410DEE712
:10E390008068FFF7FFFB04EB4401314419F80400E7
:10E3A0008D78A842D3D0BDE8F0870000201302008A
:10E3B000D01E0020A821002004280CD2074A126891
:10E3C000074B13F8203001209840904300D00120E3
:10E3D0000870002070470020FAE700001005005088
:10E3E0002013020010B504280ED00A2818D10020EE
:10E3F00000F03CF808B1FFF701FBFFF77FFF08B121
:10E40000FFF7FCFA3CDF05E006481321408876DF81
:10E41000082805D0002803D0BDE81040FFF7EEBA69
:10E4200010BD0000D824002070B50023042810D2AD
:10E430000D4D00EB4004012A02D101290CD000222D
:10E44000094E00EB4000304461B1012906D0022999
:10E4500006D00723184670BD0D30C2B22A55F9E721
:10E460004270F7E78270F5E7A8210020044A0146D0
:10E470000020127AD20702D0084600F055B8704743
:10E48000BC1E002070B50E462149054600200A61D9
:10E49000C1E90165A9071BD50024012211462046C8
:10E4A000FFF7C2FF641C042C02D20028F5D00FE055
:10E4B00070B9720804211748FFF756FA40B9FFF700
:10E4C00041FA28B91348144A00211438FFF7CAFA50
:10E4D000E9070AD0114A4FF4F01111600F4B0022E6
:10E4E0001B1D1A600D4A1032116000280FD1094817
:10E4F0000B4A00211C38FFF7B5FA002807D1BDE808
:10E50000704004480121074A1838FFF7ABBA70BDC4
:10E51000BC1E00203013020095E7010008050050E2
:10E5200021F1010025D901002DE9F84F874FDFF8CF
:10E5300018B24FF4E018F968064628EA010800917D
:10E5400000200BF104047968251DDFF804A24FF4C4
:10E5500000324FF4802E814601EB810C182E16D22A
:10E56000DFE806F00C17173B4E5F7386998999898F
:10E57000EDA4A4A4A4A4CDD4DBE4EDED009A4FF463
:10E58000F01191432160C5F8009087F80090BDE834
:10E59000F88FC4F800804846C5F80090DBF80030DA
:10E5A00083F4F0139B0309D522602860022E02D168
:10E5B0004FF4E1600AE04FF47A6007E02A602060DF
:10E5C000022E01D1C82001E04FF4C8706422B0FBD4
:10E5D000F2F041433E70002257E0C4F80080484604
:10E5E000C5F80090DBF8003083F4F0139B0304D5EA
:10E5F000226028604FF44870E8E72A602060E1E775
:10E60000C4F800804846C5F80090DBF8003083F479
:10E61000F0139B0302D522602860CCE72A602060BB
:10E62000D2E7C4F800804846C5F80090DBF8003017
:10E6300083F4F0139B0302D52260286001E02A6076
:10E6400020603E704FEA410110E0C4F80080484667
:10E65000C5F80090DBF8003083F4F0139B0302D57B
:10E660002260286001E02A6020603E7000220CE0F9
:10E67000C4F800804DE0DBF800002EEA00012160C4
:10E6800000F48020286000226146DAF80000BDE82E
:10E69000F84FFFF741BADBF800002EEA00022260D3
:10E6A00000F480202860E1E721602DE0DAF8040022
:10E6B000FFF770FAD6F1110100D040B1F96801F40A
:10E6C000F0112160C5F80090C7F80C905FE74FF497
:10E6D0000022FA6001290BD9C82041436420B1FB14
:10E6E000F0F1786800224143DAF80400FFF714FAE9
:10E6F000F96801F4F0112960C4F8009047E74FF47D
:10E70000F0112160C5F800903E7040E74FF4E01131
:10E7100021604946C5F8009006E04FF4D011216011
:10E720004946C5F8009072462A60BDE74FF4C01113
:10E7300021604946C5F800904FF4C022F4E74FF439
:10E74000F01129604946AFE704050050BC1E0020C7
:10E7500014130200F0B50D4D0D4E00214FF0010CC9
:10E7600055F8212006EB82031C680CFA01F20242E4
:10E7700001D0032700E0002724F4403242EA074298
:10E780001A60491C0429EBD30020F0BD20130200BD
:10E790000007005000780221FFF7BABD05494FF08D
:10E7A000FF32082841F8202002D3084480F848208E
:10E7B00070470000EC230020F0B54FF0FF3512B198
:10E7C0000023082601E008230C260C4C05E000BFBE
:10E7D00054F823707F1C04D05B1CB342F8D3284646
:10E7E000F0BD26185DB286F8305044F82310002A98
:10E7F000F5D1E11881F84800F1E70000EC23002092
:10E800000249084490F9300070470000EC230020D2
:10E8100008B50B4690F8A611C1EBC10101EB8101CF
:10E8200000EB410290F8A50140B1401EC0B200EBE0
:10E83000400102EB8100408A401C00E0D088ADF826
:10E8400000001089ADF802006946184692DF08BD45
:10E8500070B50446082802D94FF0FF3070BD4FF460
:10E86000847000EB441005461021FEF74DFB28464E
:10E87000FEF7E4FA0028FAD14FF4027000EB4410DE
:10E880001F21FEF741FB0D490120A0404A88824329
:10E890004A808A8882438A800949002021F814002E
:10E8A0000649891D08554FF4427000EB4414204678
:10E8B000FEF7C4FA0028FAD1012070BD681F0020BD
:10E8C000B02800202DE9F05F2648C168F1B3DFF8D9
:10E8D00098B00E688146DBF800400769C078E11BFC
:10E8E00021F07F45ED1CB0B9DFF880804FF4803017
:10E8F000C8F84403C8F804031120FEF749F91120B1
:10E90000FEF752F94FF0010AC8F800A02F20FDF7DA
:10E9100081FD89F803A0B54200D23546124BE819B3
:10E920003C3320F07F401860DBF800105A46091B8A
:10E9300021F07F41001BC91C20F07F4081420FD98C
:10E94000106818602F20FDF765FD00E004E0BDE8C9
:10E95000F05F1120FEF734B9BDE8F05F01F0B4BB01
:10E96000BDE8F09F0C1F002004150140001001407D
:10E970002DE9F041044616460D46082803D94FF00C
:10E98000FF30BDE8F081600101270830FEF756FA3C
:10E9900000F00F00012801D0B81FF2E74FF44270D9
:10E9A00000EB44108046FEF749FA132802D06FF0BE
:10E9B0000200E6E72878697801EB0020A97801EBEE
:10E9C0000020E97801EB0020411C2BD050B366B346
:10E9D00040F6084000EB441004222946FEF7C4FA32
:10E9E00041F20800310A00EB4410FEF78DFA41F2C3
:10E9F0000810F1B200EB4410FEF786FA4FF4847071
:10EA000000EB441005460421FEF77EFA2846FEF787
:10EA100015FA0028FAD11548A740408807421CD0B3
:10EA20000020AEE76FF00B00ABE76FF00A00A8E73D
:10EA300005EB4410FEF702FA000707D505EB44107A
:10EA40000821FEF761FA6FF00C009AE74046FEF7E6
:10EA5000F5F920B96FF0030093E74FF402754046D3
:10EA6000FEF7ECF91728E3D101208AE7681F0020A0
:10EA700010B50C4606281ED2DFE800F003070B1085
:10EA80001418084602F00AFB13E0084602F066FA82
:10EA90000FE00878BDE8104002F02CBB02F08AFAC3
:10EAA000207006E0084602F037FB02E0084602F05C
:10EAB00084FA002010BD4FF0FF3010BD2DE9F04169
:10EAC0000C46002102464F1E08464FF498554FF45D
:10EAD000A056102A62D2DFE802F0080B17131A1EA4
:10EAE000222D3744474B584F545B02F02DFB4CE02E
:10EAF00014B1204604F10801BDE8F04102F071BAFA
:10EB0000208802F0F1F940E002F00AFA05E02088DE
:10EB100002F0B6FA39E002F012FA208035E02088DF
:10EB2000010A2846FEF7F0F92078C1B23046FEF718
:10EB3000EBF92AE03046FEF781F906462846FEF753
:10EB40007DF906EB0020E8E7154882782270C2784C
:10EB500062700279A2704279E270807920716171ED
:10EB600013E002F06EFB10E0204602F07FFB0CE0A9
:10EB7000204602F02AFB08E02078BDE8F04102F0D0
:10EB80009ABB02F052FB05E020700020BDE8F08146
:10EB900002F042FBC0B241B2491CF5D13846F5E75C
:10EBA000801F002001460148FFF749BAD824002001
:10EBB00010B50548FFF704F9002803D0BDE8104060
:10EBC000FEF71CBF10BD0000A5EB01002DE9F843C6
:10EBD000054690F8A60195F8A541C0EBC00000EBF2
:10EBE000800005EB40060F4604EB4400914606EB1F
:10EBF000800132790A31601C904226D16B46002296
:10EC0000284600F0F7F918B310E0401EA04201D1E9
:10EC1000002004E004EB440006EB80001630804640
:10EC200002466B46284600F0E5F930B10020387006
:10EC30006946484693DFBDE8F88395F8A50141464B
:10EC4000401C641C85F8A501E4B23079A042DCD8F0
:10EC5000012038700020EEE72DE9F0410026012563
:10EC6000154C23E06068226900EBC607387805FA86
:10EC700000F1114218D08A43226100F007FD0146DD
:10EC80003878E36805FA00F21A4001FA00F39A4274
:10EC90000AD17A78012A01D0012200E000227B68A3
:10ECA0004A400BB1D1B29847761CF6B22078864222
:10ECB000D8D3BDE8F0810000F81E002070B50446EE
:10ECC000082802D94FF0FF3070BD600101250830DF
:10ECD000FEF7B4F800F00F00012801D0A81F70BDA6
:10ECE0004FF4847000EB441006460821FEF70CF93F
:10ECF0003046FEF7A3F80028FAD11248A5408188D3
:10ED0000A9438180408805420ED0002070BD00BF1D
:10ED100006EB4410FEF792F800070BD52046FFF7EC
:10ED200097FD6FF00C0070BD4FF442704FF4027607
:10ED300000EB44152846FEF781F80028E8D10120B1
:10ED400070BD0000681F00202DE9F047894690F84B
:10ED5000A6119046C1EBC10101EB810100EB410717
:10ED6000384601F095F9060039D01E4CA0680628F7
:10ED700035D21D4D00EB800005EB00104622A0F8B7
:10ED80000280001D3946FDF793FB0027B9F1000F03
:10ED900006D0A06800EB800005EB0010077006E0CD
:10EDA000A168022001EB810105EB01110870A06848
:10EDB00000EB800105EB0111401CCE64A060E1680E
:10EDC00088420CD1002606E006EB860005EB001019
:10EDD000C16C8847761CE0688642F5D3A760BDE821
:10EDE000F0870000E01E0020EC21002030B50D4629
:10EDF00090F8A61193B0C1EBC10101EB810114465B
:10EE000000EB410001F044F9030007D0ADF80240E7
:10EE100001208DF8000068460195984713B030BD79
:10EE20000E4910B54A788C780023A24212D0521CA9
:10EE3000D2B24A70022A00D14B70084A4B7818327D
:10EE400052F8232002600869104420F07F400861D6
:10EE5000012010BD0360002010BD00000C1F002029
:10EE6000826883881A4003689A5C0A708168491C2A
:10EE700081607047C26883881A4003689954C168EA
:10EE8000491CC160704710B50446C0B2FEF716FFBA
:10EE9000204610BD2DE9F04142F2086142F20872AD
:10EEA000002402EB401701EB40163046FDF7C6FF89
:10EEB00005463846FDF7C2FF00EB052005042D0C82
:10EEC00009D03046FDF7BAFF04463846FDF7B6FFD5
:10EED00000EB042084B2AC42E7D12046BDE8F081CB
:10EEE0002DE9F04142F2080142F20812002402EB3F
:10EEF000401701EB40163046FDF7A0FF05463846A7
:10EF0000FDF79CFF00EB052005042D0C09D03046D1
:10EF1000FDF794FF04463846FDF790FF00EB042010
:10EF200084B2AC42E7D12046BDE8F0812DE9F04142
:10EF3000124E07460125BD403068FEF72BFE002823
:10EF400005D10F4C2069284203D0A8432061BDE8B9
:10EF5000F081384600F09AFB0028E06801D0284391
:10EF600000E0A843E060206928432061A168306880
:10EF7000BDE8F0410022FEF7CFBD0000B81302004B
:10EF8000F81E0020F8B51A4C207800282ED02069F1
:10EF900028B10025E06820B1002625B110E0012548
:10EFA000F8E70126F9E7684652DF052803D020B1CB
:10EFB000FEF724FD04E0012502E02169009888475E
:10EFC00086B96088ADF800006946A06861DF052851
:10EFD00003D020B1FEF712FD04E0012602E0D4E9DF
:10EFE00002018847002DDED0002ED6D0F8BD0000EB
:10EFF000301F002009892AB1D088491C814218D1CC
:10F000000020704790F8A621C2EBC20202EB8202F8
:10F0100000EB420212899142F2D0491C198090F80B
:10F02000A611C1EBC10101EB810100EB4100008998
:10F0300002E01980D088401E5880012070470000EF
:10F040002DE9F8430E468146002401F1090561E0EF
:10F0500029192F5D487802280AD0032808D00428EF
:10F0600024D0052822D006283ED007283CD04FE0E7
:10F070004FF0000816E000BF04EB48004119891C5E
:10F080006A46022064DF58B9BDF80010B9F80000E4
:10F09000814205D19DF8021099F80200814234D0D6
:10F0A00008F10108B8EB570FE6D331E04FF0000844
:10F0B00016E000BF04EB88004119891C6A46022053
:10F0C00064DF58B9BDF80010B9F80000814205D1DD
:10F0D0009DF8021099F80200814216D008F101084B
:10F0E000B8EB970FE6D313E0891C6A46102064DF63
:10F0F00070B9BDF80010B9F80000814208D19DF840
:10F10000021099F80200814202D10120BDE8F88383
:10F110003C44641C307AB4EBD00F99D30020F5E75F
:10F120000348017AC90702D00078FFF7FDB970479C
:10F13000BC1E00202DE9F047DFF8B0A0DAF80C0083
:10F140009AF8004080469AF80460DAF80890DAF8F5
:10F1500010703AE009EBC4052A7833E002EB420173
:10F160006B68521C03EBC101AB78D2B2934200D161
:10F1700000220B78022B02D0032B23D11FE0D1F801
:10F1800004C00346014603E0614503D00B46C9694C
:10F19000C1B1F9E7B1B18B4205D1C06918B9144FBB
:10F1A0000126BE600027D1F800C0C969D96149B104
:10F1B0000B6863440B6005E00174C06900E0002146
:10F1C0000028F9D169789142C8D12100A4F1010445
:10F1D000E4B2BFD1CAE903078AF80460404502D00F
:10F1E0000120BDE8F0870020FBE700000C1F002095
:10F1F000001001402DE9F0470546304800268046C2
:10F200000778D0F80C904BE0D8F8080000EBC70462
:10F2100040E002D02846ED691EE02078616800EBEE
:10F220004002401CC0B201EBC2012070A2789042A3
:10F2300000D126700A784868012A2DD1027C5ABB79
:10F240008A684260CA6882600A69C26049698161ED
:10F2500098F8041001B146604268D8F81030DFF821
:10F2600060C0D11A21F07F41614502D28268114409
:10F2700006E0991A826821F07F418A4202D9511A28
:10F28000016000E006604660012186600174C6618D
:10F2900001F000FB002DBCD1207861788842BCD100
:10F2A0003800A7F10107FFB2AED1D8F80C104945DC
:10F2B00002D00120BDE8F0870020FBE70C1F0020F2
:10F2C000FFFF7F0008B50023334A03211846FEF7ED
:10F2D000DBFB08B1FEF792FB0621304801F0E0FBB2
:10F2E00040F6CD452E4A29460120FFF7CBF808B15C
:10F2F000FEF784FB69460020FEF7A2FF08B1FEF787
:10F300007DFBFFF755FCFEF71BFF264800F048FC8D
:10F3100001F0E6F801F0D8FC234A01212348FEF76A
:10F32000A1FB08B1FEF76AFB2048214A0121001D1C
:10F33000FEF798FB08B1FEF761FB1C481D4A01214E
:10F340000830FEF78FFB08B1FEF758FB174C002280
:10F350004FF400412068FEF7DFFB08B1FEF74EFBDB
:10F36000002229466068FEF7D7FB08B1FEF746FB8E
:10F3700000222946A068FEF7CFFB08B1FEF73EFB4E
:10F3800000F0F6FE0CA0FDF727FE48DF0028FCD0B9
:10F39000FEF734FBF9E700001C200020A109020061
:10F3A000E5E30100A9DE0100550602000813020092
:10F3B000A9E10100A50702005363616E2073746127
:10F3C000727465640D0A000010B586B020490020F3
:10F3D000FFF74EFB1E490120FFF74AFB03A9082057
:10F3E000FFF76CFB03A91BA0FDF7F6FD184CE078B6
:10F3F000627921798DE80700A378627821781BA0D3
:10F40000FDF7EAFD607A0090237AE279A17921A0E4
:10F41000FDF7E2FD607C0090237CE27BA17B22A0D3
:10F42000FDF7DAFD607B0090237BE27AA17A23A0CE
:10F43000FDF7D2FD607D0090237DE27CA17C24A0BD
:10F44000FDF7CAFD27A0FDF7C7FD06B010BD0000FF
:10F45000441F00200D0A3D3D3D202573204E45549C
:10F4600020434F4E46203D3D3D0D0A004D41433A5D
:10F4700020253032583A253032583A253032583A21
:10F48000253032583A253032583A253032580D0A54
:10F49000000000005349503A2025642E25642E2593
:10F4A000642E25640D0A00004741523A2025642E3F
:10F4B00025642E25642E25640D0A00005355423A1A
:10F4C0002025642E25642E25642E25640D0A000057
:10F4D000444E533A2025642E25642E25642E25643F
:10F4E0000D0A00003D3D3D3D3D3D3D3D3D3D3D3D29
:10F4F0003D3D3D3D3D3D3D3D3D3D0D0A0000000093
:10F500004907090E002804DA0A4B00F00F021A44DA
:10F5100001E0094BC218117000F01F020121914057
:10F5200042094FF0E02000EB8200C0F88012C0F8E2
:10F530000011704714ED00E000E400E02DE9F04117
:10F540000F46804600F0F2FC0125204E0028404680
:10F5500018D0FFF755F9304490F848008009032887
:10F5600002D001280CD005E01948006805FA08F51A
:10F57000284205D003214046BDE8F04100F0E2BA40
:10F580000221F8E700F0DEFC00281DD04046FFF71E
:10F5900037F904460F494FF4807001EB840100EB0A
:10F5A00084000A6880B242F001020A6000F0D8FAD2
:10F5B000002F09D04046FFF723F956F82000002815
:10F5C00002D00548A5400560BDE8F081EC2300208D
:10F5D0001005005010650040046300402DE9FC4117
:10F5E000DFF89880044608EB0400002790F930000B
:10F5F0001346C0170E46401C01D008273AE0F278A7
:10F6000019462046FFF7D8F80546401C31D0B0789F
:10F6100038B11B4800EB8400016821F00201016051
:10F6200007E000217378204600910A46019100F01E
:10F6300035FAF078A0B11348317800EB8500026804
:10F64000114B1A4002604FF4F8524FF4403302EA73
:10F65000042203EA01410A4301680A43026009E007
:10F6600008EB0500327810F8481F41EA821101705A
:10F6700000E004273846BDE8FC810000EC230020B0
:10F680000007005010650040FFE0FCFF03490968D7
:10F69000C14011F0010000D001207047100500505A
:10F6A00070B5124D95F8540008B1082070BD0020C7
:10F6B000411E2A18401CC0B282F830102028F8D30E
:10F6C00000242046FFF76AF8641CE4B20C2CF8D33F
:10F6D00006210846FFF714FF05494FF00040086077
:10F6E000012085F85400002070BD0000EC230020AC
:10F6F00004630040034890F85400002800D0012023
:10F7000070470000EC2300202DE9F0411D4D064616
:10F710000F46E87E10B10820BDE8F08106B91A4E08
:10F72000707F28773046FEF7E3FA6F603069286013
:10F7300016480024B7B1317F2A7F4AB100F588709E
:10F740000460046144614463114AC0F8F42106E096
:10F75000C0F81C41C0F844410E4AC0F804230220FE
:10F76000FFF7CEFE297F0C4809B1082100E00421F3
:10F770000160EC752C76AC750120E876AC76002043
:10F78000CAE7000044240020981302000020004033
:10F790001003020080000200002500402DE9F04126
:10F7A0001F4B1C7F3CB14FF40052B2EB104F02D004
:10F7B0001020BDE8F081D3F804C00022194D4FF4A9
:10F7C00004764FF40177BCF1000F05D014B1C5F8F1
:10F7D000086301E0C5F8087393F817E0BEF1000F65
:10F7E00010D01A7E52B1BCF1000F05D014B1C5F88B
:10F7F000046301E0C5F804731120DAE718610122FF
:10F80000197604E0D9750025D8605D761D761CB1A7
:10F81000BDE8F04100F066B8BDE8F04100F014B872
:10F82000442400200020004010B5064C207F002812
:10F8300006D1A07E002803D100F08EFC0120A07626
:10F8400010BD0000442400202DE9F05F234DA87E68
:10F85000104301D100F080FC214C686830B14FF4B6
:10F860000170C4F804030020BDE8F09F4FF00009C8
:10F870004FF4A27AC4F844914FF4927BA8465946BB
:10F88000204600F07DF905464FF48471204600F0D3
:10F8900077F907465146204600F072F9064647EAD6
:10F8A00006012943EBD055EA060007D100F02AFCF7
:10F8B00098F8171098F819008142E0D888F8179046
:10F8C0000DB10320D0E70EB10F20CDE798F81A1044
:10F8D000012009B12060C6E76060C4E7442400202D
:10F8E000002000402DE9F05F204C00264FF4887383
:10F8F000C4F810614FF4A275C4F844611C4F38601D
:10F90000381D01608AB1D4F8000240F02000C4F82C
:10F910000002DFF86080D8F8040048B14FF40470AA
:10F92000C4F804030020BDE8F09F01202060F0E748
:10F930009946AA464FF4927B4946204600F02BF99F
:10F9400005465146204600F026F90746594620460E
:10F9500000F021F93D430543EED088F8176008B167
:10F960000320E0E7002FDDD00F20DCE7002000407F
:10F9700034250040442400202DE9F047204C024665
:10F98000207F38B14FF40050B0EB124F02D010205E
:10F99000BDE8F08700F07AF808B11120F8E7A1750A
:10F9A0000023A260A382207F28B3164D00264FF4C7
:10F9B00090709846C5F820314FF4AC73C5F8588163
:10F9C000114F3A603A1D11600121A960616881B947
:10F9D000824699465146284600F0DDF807464946DA
:10F9E000284600F0D8F80743F4D000B10F2684F879
:10F9F00016803046CCE7BDE8F04700F007B80000BD
:10FA00004424002000200040442500402DE9F05F00
:10FA10001C4F00254FF48E7A2E46C7F81C514FF02C
:10FA20000108C7F8088000F095FF174CB815616809
:10FA300079B123E05F465146484600F0A1F810B97D
:10FA4000A08AB842F7D1A08AB84204D000F082FF61
:10FA500001E08346B946A08AA17D8842EAD3A08A04
:10FA6000584501D10F2508E04F465146384600F071
:10FA700087F80028F9D0C7F80C80A6752846BDE89D
:10FA8000F09F000000200040442400200248807DB8
:10FA9000002800D0012070474424002030B541EAFE
:10FAA0004201DDE9034541EA8301044A41EA0421B8
:10FAB00041EA054142F8201030BD00000007005027
:10FAC00030B541EA4201DDE9034541EA8301044AD8
:10FAD00041EA042141EA054142F8201030BD00000E
:10FAE0000007005030B541EA4201DDE9034541EA33
:10FAF0008301044A41EA042141EA054142F8201009
:10FB000030BD0000000700501CB500220B460092DB
:10FB100011460192FFF7D4FF1CBD1CB500210091D6
:10FB20000B46012201911146FFF7CAFF1CBD1CB50F
:10FB3000002100910B46012201911146FFF7D2FFEF
:10FB40001CBD0000054A02EB8000026822F440322E
:10FB50000260026842EA01410160704700070050FC
:10FB600002490844002101600068704700600040BD
:10FB700002494058012800D0002070470060004032
:10FB80004058002800D001207047D0F804030840F6
:10FB900000D0012070474058002800D00120704755
:10FBA00008B5694600900748FEF7F0F908B1FDF77F
:10FBB00025FF0448173071DF002801D0FDF71EFF34
:10FBC00008BD0000D824002010B50446011D00889F
:10FBD0001B283FD00EDC102830D013282DD1002355
:10FBE000A0881A4685217FDF002826D0BDE8104076
:10FBF000FDF704BF1D2805D01F281ED131F8040BC6
:10FC000075DFF1E7091D0C461648FFF719FA0028C1
:10FC100013D0144A2046083202F108018CDF002874
:10FC20000BD1FEF723FC08B1FDF7E8FE0E48216872
:10FC30000160A1888180A179817110BD0720FEF744
:10FC400015FC08B1FDF7DAFE0748A1881030FEF771
:10FC5000EBF8C9E708790228EFD1BDE8104000F0C1
:10FC600087BA0000C0130200E82400202DE9F84FF5
:10FC700005460C460888B5F8AA11884254D195F873
:10FC8000A601DFF8F0A0C0EBC00000EB800005EBA0
:10FC9000400160884FF003094FF00008F0BB26894F
:10FCA000087904F10802F3B250FA86F6052E01D85D
:10FCB000034400E005230B71002315E000EB400630
:10FCC00003EB830702EB470701EB8606D7F802C078
:10FCD000C6F80AC0D7F806C0C6F80EC07F8977827A
:10FCE000401CA6F814805B1C0E798642E6D895F875
:10FCF000A62100EB4000C2EBC20202EB820201EB44
:10FD0000800005EB4202C088128990420ED2F0B208
:10FD100005280BD085F8A501218800E006E02846DB
:10FD2000FEF776FD01000AD1BDE8F88F85F8A581C0
:10FD3000228869462846FEF749FF01000BD085F866
:10FD4000A78122882846FFF751F88AF80090218879
:10FD5000AAF80210E8E79DF800000028E4D0228805
:10FD600001212846FEF7F0FF2188284600F0A0F880
:10FD7000DAE70000EC210020F8B505460C460888BB
:10FD8000B5F8AA1188424AD195F8A60104F10801F4
:10FD9000C0EBC00000EB800005EB400295F8A50128
:10FDA00000EB400002EB800360880A33B0B900200A
:10FDB00042F602170E880FE000EB400C01EB4C0CF2
:10FDC000BCF804C0BC4506D100EB400001EB40008C
:10FDD0004088588102E0401C8642EDD800268DF80C
:10FDE000006095F8A5011179401C884203D10120DB
:10FDF0008DF8000018E085F8A5012288694628469C
:10FE0000FEF7E4FE01000BD085F8A76122882846A2
:10FE1000FEF7ECFF09480321017021884180F8BDFD
:10FE20009DF800000028FAD0228801212846FEF71C
:10FE30008BFF2188284600F03BF8F8BDEC2100201C
:10FE400070B5054690F8A6010C46C0EBC00000EB6B
:10FE5000800005EB40012288B5F8AA01824224D136
:10FE6000608848B100212846FEF76EFF21882846A9
:10FE7000BDE8704000F01CB8D4F80A200A60D4F83D
:10FE80000E00C1F8060021882846FEF7C1FC0100DB
:10FE90000BD0002085F8A70122882846FEF7A6FF90
:10FEA0000248032101702188418070BDEC210020AF
:10FEB0002DE9F041044690F8A8010E46401C19496E
:10FEC000C0B284F8A801C9680327174D4FF0000E8F
:10FED000884224D284F8A5E194F8A601401CC0B25F
:10FEE000C0EBC00101EB810104EB410284F8A601E3
:10FEF000A5F1180101EB800001210068106082F873
:10FF000004E0304690DF010007D084F8A7E13246D4
:10FF10002046FEF76BFF2F706E80BDE8F08184F8FD
:10FF2000A7E1F8E7E01E0020EC2100200449084486
:10FF300090F93000082801DB01207047002070474D
:10FF4000EC2300200449084490F93000082801D22D
:10FF50000120704700207047EC2300202DE9F74F67
:10FF600005461446082803D94FF0FF30BDE8FE8F40
:10FF7000680101260830FCF761FF00F00F0001283E
:10FF800001D0B01FF2E70CB341F6086000EB45105A
:10FF9000FCF754FF4FF6FF7101EA8020A04200D227
:10FFA00004464FF44270DFF8949041F6087AB04668
:10FFB00000EB451B2846FEF76DFF06465846FCF74A
:10FFC0003DFF172817D01C2803D00EE06FF00D005E
:10FFD000CCE7DEB92846FEF783FF07460AEB45105B
:10FFE000FCF72CFFB7EB802F05D12846FEF730FC3D
:10FFF0006FF00600BAE7B9F8021008FA05F00842F7
:020000040002F8
:1000000002D01EB90020B1E7002ED3D0A64200D204
:10001000344622462846019900F006FF4FF48470CA
:1000200000EB451005464021FCF76EFF2846FCF723
:1000300005FF0028FAD1204698E70000681F00203D
:10004000054A18B111B1C2E90401704703481061B3
:100050000348506170470000801F00200D0F020010
:100060000B0F0200074A10B513889C05FDD518B187
:1000700011B1C2E9060110BD034890610348D06187
:1000800010BD0000801F0020431102004711020034
:1000900070B50C4B00210A4ADC680DE002EB8105CB
:1000A0008678AD78B54206D132F821500688B5423F
:1000B00001D1586870BD491CA142EFD3002070BD2A
:1000C000D4210020E01E002070B501260A487104EA
:1000D00000250160094C4810C4F84803C4F808031F
:1000E00066602F20FCF796F9A660054C2F2025614D
:1000F000FCF790F9E57070BD80E100E00010014070
:100100000C1F0020094810B50949C47D0022094B85
:10011000C1F808213CB11968437EC268D154417EC0
:10012000491C417610BD186810BD00004424002011
:1001300000200040182500401FB501228DF808005E
:1001400004488DF800200191D0E9001268469047DC
:100150001FBD00004424002004480021C0F82411E1
:10016000C0F8081101210160704700000020004024
:1001700010B507488ADF08B1FDF740FC0120FEF703
:1001800075F9002803D0BDE81040FDF737BC10BD5D
:10019000D01302000149002070470000B01E00206B
:1001A00010B50121202805DA1F4B01FA00F21A428E
:1001B00007D10DE0402804DAA0F1200211FA02F381
:1001C00006D0002807DA194B00F00F021A4404E0A9
:1001D00042F2010010BD164BC21812785209082ACB
:1001E00013D292B1012A10D0042A0ED0052A0CD0C5
:1001F000104A936863B1430952F8234000F01F008E
:1002000081400C4342F823400CE042F2020010BD52
:1002100000F01F02914040094FF0E02202EB800005
:10022000C0F80011002010BDFC06FFBC14ED00E07A
:1002300000E400E0842400202DE9F05F0746154625
:100240008B46082803D94FF0FF30BDE8F09F7801B6
:1002500001240830FCF7F2FD00F00F00012801D066
:10026000A01FF2E775B14FF4427000EB47108246D1
:10027000FCF7E4FD6FF00609172806D01C2804D00F
:100280004846E2E76FF00D00DFE72D4EBC40B08836
:10029000044211D04FF4027000EB47108046FCF787
:1002A000CDFD00F01F00C10622D510214046FCF70D
:1002B0002BFEB088A043B08041F6087000EB4710D9
:1002C000FCF7BCFD4FF6FF7101EA8020854200D9A2
:1002D00005463846FEF704FE80465046FCF7AEFD64
:1002E00017280DD01C280BD03846FEF7B1FAC7E707
:1002F00000070AD53846FEF7ABFA6FF00C00A4E70A
:100300007088044203D0454501D900209DE745454A
:10031000DFD82A465946384600F0B4FD4FF48470C1
:1003200000EB471007462021FCF7EEFD3846FCF7AE
:1003300085FD0028FAD1B0880443B480284684E7BC
:10034000681F00202DE9F84304460E4617461D4657
:10035000082803D94FF0FF30BDE8F883012E06D0FE
:10036000022E0CD0042E0AD06FF00400F4E7042211
:1003700069464FF47060FCF78DFD009848B169073D
:100380006FF00500E8D49DB1012E05D0022E0FD1EB
:1003900006E06FF00200DFE715F0210FDCD007E088
:1003A000A90601D52906D7D5E90601D52906D3D551
:1003B0002046FEF74DFA600105F0F0014FF001080C
:1003C00008303143FCF7A0FD224E57B93788781C1E
:1003D00080B2A0F57F413080F03902D14FF4404027
:1003E00030804FF48160390A00EB4410FCF78CFD3B
:1003F0004FF4A160F9B200EB4410FCF785FD4FF417
:10040000847000EB441007460121FCF77DFD38465F
:10041000FCF714FD0028FAD108FA04F0718805F001
:1004200001028143A2400A437280B1888143B180B6
:100430000949002021F814000649891D08554FF488
:10044000427000EB44152846FCF7F8FC0028FAD06F
:1004500060B281E7681F0020B028002018B103496E
:10046000C860002070470E2070470000301F002039
:1004700008B502490091694660DF08BDB01E002042
:1004800070B50E460546144614211046FCF729F8AF
:10049000012020800021216121732672657205B13F
:1004A000A072002070BDFDF799BA000030B409B108
:1004B0008C0702D0072030BC7047074C0125A16093
:1004C00062800649636010DF0028F4D1257030BCDB
:1004D0001620FFF765BE0000301F0020A7040200B1
:1004E0001CB50549D1E90001CDE9000169460020AC
:1004F00000F004F81CBD0000FC1302007CB50546AA
:100500000C46012801D900207CBD234905EB45009C
:1005100001EB400021680160A1888180A078FFF78D
:1005200006FBE078FFF703FB0026207900963346B0
:10053000324631460196FFF7D5FA6079FFF7F7FAB0
:100540001648A17850F82520C2F8081550F8252043
:10055000E178C2F80C1550F825202179C2F8101561
:1005600061790F4B012202FA01F11960617850F8AC
:1005700025300906C3F8241550F825302178C3F832
:10058000541550F82510C1F8086150F82510C1F82D
:10059000002550F825007CBDA4280020601F002005
:1005A0000805005010B552B1134B53F820001B1F23
:1005B00018600023C0F80831C0F81C350EE0002098
:1005C00010BD00BFC0F81C35D0F80841002CFBD08E
:1005D000C0F80831D0F8184502F8014B491E09044B
:1005E000090CEFD1D0F808110029FBD0D0F818057C
:1005F0001070012010BD0000601F002030B562B1F6
:10060000134B53F820001B1F18600023C0F808315B
:1006100012F8014BC0F81C450EE0002030BD00BFB1
:1006200012F8015BC0F81C55D0F80841002CFBD033
:10063000C0F80831D0F81845491E0904090CEFD15B
:10064000D0F808110029FBD0D0F81805012030BDE2
:10065000601F00203EB54CF250344FF44A70FCF756
:10066000EDFB002834D0132811D01C2842D10121E1
:1006700021A0FCF7B1FC0120FEF720FB012803D0EC
:10068000012121A0FCF7A8FC012125A02DE0294C87
:10069000E01CA3688178C2788DE80E004378027868
:1006A000012125A0FCF798FC2089E11C82B20120E1
:1006B000FEF75EF9012803D001212AA0FCF78CFC8B
:1006C00003B00B22BDE830402DA10120FFF7B4BDDF
:1006D0000120FEF7BDF80121224600230846FFF75E
:1006E00031FE012806D0012128A003B0BDE830402A
:1006F000FCF772BC3EBD000025643A436C6F736525
:10070000576169740D0A000025643A536F636B6585
:100710007420436C6F736564204661696C0D0A0038
:1007200025643A536F636B657420436C6F73656423
:100730000D0A0000B01E002025643A54727920741E
:100740006F20636F6E6E65637420746F20746865CC
:100750002025642E25642E25642E2564203A20252C
:10076000640D0A0025643A536F636B657420436F10
:100770006E6E656374204661696C0D0A00000000AE
:10078000636F6E6E65637465640D0A0025643A5389
:100790006F636B6574204F70656E204661696C0DE8
:1007A0000A0000002DE9F041ADF5006D00260120A2
:1007B000FEF770FB00280FD04FF40061884200D391
:1007C0000846044682B269460120FFF7C7FB0028AD
:1007D00017DA0120FEF73CF80DF5006DBDE8F08159
:1007E000142C01D2254600E0142507EB0608AAB216
:1007F00041460648FDF784FC0028F8D1641B2E44CE
:1008000000E06F46002CEBD1E6E70000D824002082
:100810002DE9F84F1E4C00256846D4E903B6FEF7D3
:10082000FFFA8046FEF786FC0746A946B8F1000F9E
:1008300022D00023009ACC46E06819E00768014600
:10084000974202D9BA1A026014E0C1F800C0D1F888
:100850000C80D21BC8693B448A46B8F1000F07D010
:10086000F71827F07F47C1E90178CAF81C500D46F8
:100870000028E3D10127E0602846FEF7BBFC00B961
:1008800017B15846FEF71EF884F80490BDE8F88FBB
:100890000C1F00200D4B10B5D96831B102680C68EF
:1008A000A24204D8A21A0A60C161D86010BD0B46EA
:1008B00003E00B46C969121B21B10C689442F8D3BE
:1008C000A41A0C600260C161D86110BD0C1F002029
:1008D0002DE9F0411D4DEC68002C35D01C48002757
:1008E00000682969B846401A20F07F462068B04267
:1008F00015D82246361A0744E469107C68B182F89C
:1009000010806B6933B1D2E90501984728B1FDF732
:1009100075F802E0D2E905108847002CE6D1697825
:10092000A878814206D1401CC0B2A870022801D12B
:1009300085F802800548A978183040F82170BDE894
:10094000F0411420FCF73CB9BDE8F0810C1F0020F9
:10095000041501400648002101600648828A81682A
:10096000895C828A521C82820348016070470000C1
:100970001C210040442400201C2500401FB50021FC
:100980008DF8080005488DF8001082680192817585
:10099000D0E90012684690471FBD000044240020A3
:1009A00070B5017841B1012901D002291DD14068FB
:1009B000BDE87040FDF722B80D4C0C4D607828441E
:1009C000FDF710F96078401CC0B22918607011F86A
:1009D000011C0A2901D0142807D36278034905486D
:1009E000FDF78EFB0028F8D1607070BD0820002054
:1009F000B01E0020D82400207CB50178264D0129A6
:100A000009D002292CD0002929D129462348FDF7F5
:100A100000F880B334E04068017820481038FDF7D2
:100A200013F81E4C103C20B101218DF800100190EC
:100A300007E0A068E168081A012805D100208DF8B8
:100A40000000696868468847A068E168081AA188BC
:100A5000884204D810480121401CFEF79FFE7CBD4F
:100A600002218DF80010C06801900B480121401C44
:100A7000FEF794FE0CE0FFE701210748FEF77CFF3C
:100A800006488168C068401AE9D103208DF800004B
:100A90006968684688477CBDF01E0020DC23002082
:100AA00010B50D4C88B00DF1100C1CCCACE81C003E
:100AB0000A4A00920A4B4FF48072CDE90123039257
:100AC0000B460246694604A8FDF7A6F8002801D0A7
:100AD000FCF794FF08B010BDE0130200A42600202C
:100AE000A42700202DE9FF413D4D4FF40071284619
:100AF000FFF74BF801273B4C4FF401780026F8B183
:100B00004FF492712846FFF73BF8C8B1C5F824614D
:100B1000C5F80883A07E00B96F60334902208DF8C4
:100B20000000086808600390E07D8DF80800E06828
:100B30000190E6752676D4E900126846904724E0D5
:100B400004212846FFF721F8F8B14FF484712846B4
:100B5000FFF716F8C8B1FFF7D5FAE07D617E88424D
:100B600013D1227E3AB1607EE168E2752269E260CB
:100B70002676667607E0A07E00B96F60C5F8088328
:100B8000E675607EE168FFF7D7FA4FF48E7128466C
:100B9000FEF7F6FF58B1A18AA07D814202D2FFF78D
:100BA000D9FE04E0C5F81C6108B1FFF7E7FE4FF479
:100BB000A2712846FEF7E4FF00280FD0C5F8446173
:100BC000A07E00B12F60E07D002807D0E675607E32
:100BD000E16804B0BDE8F041FFF7AEBABDE8FF81BF
:100BE0000020004044240020802400402DE9FF41E3
:100BF000324D4FF492712846FEF7CDFF304F314C05
:100C00000026A8B1C5F824612D490220BC398DF811
:100C1000000008680860039038688DF80800E068F4
:100C20000190E6752676D4E90012684690471EE0EA
:100C30004FF488712846FEF7AEFFC0B1C5F81061C9
:100C40003868E17DC0B2814211D1227E5AB1E1689B
:100C5000D5F8003223F02003C5F80032E27522698E
:100C6000E260267601E0E675E168FFF765FA4FF489
:100C7000A2712846FEF78FFF48B1C5F84461E07DB8
:100C800028B1E6753868E168C0B2FFF755FA4FF44D
:100C900090712846FEF77FFF00280DD0C5F820612F
:100CA000A07D002808D006481030006804B0C0B20B
:100CB000BDE8F041FFF762BEBDE8FF8100200040C3
:100CC0003C2500404424002000B51D4B87B00DF1A9
:100CD000040C0FCBACE80F001A491B48FFF7B0F922
:100CE0001A491B48FFF7BEF91AA0FCF775F901A9CC
:100CF0000120FDF7E3FE401C09D01BA0FCF76CF9B6
:100D000069460F20FDF7DAFE401C04D006E01EA065
:100D1000FCF762F9FEE723A0FCF75EF99DF80000FE
:100D20000028EDD001208DF814004FF47A70ADF852
:100D3000160005A800F0F0F9FEF746FB07B000BD6D
:100D4000EC130200110F020071100200BD1102002D
:100D50005D1002005735353030206D656D6F72794A
:100D600020696E69740D0A005735353030205048BF
:100D700059204C696E6B20537461747573204368FD
:100D800065636B0D0A00000057495A4348495020DB
:100D9000496E697469616C697A6564206661696C21
:100DA0002E0D0A00556E6B6E6F776E2050485920DD
:100DB0004C696E6B207374617574732E0D0A00009C
:100DC000EFF30580C005C00D0FD0103840B20028E9
:100DD00003DA00F00F00084900E00849405CC0F366
:100DE0004710022803D0062803D0022070470020B5
:100DF000704701207047000014ED00E000E400E0BF
:100E000042788378521CD2B2934200D100220378F8
:100E1000934201D1002070470A704168407800EB8E
:100E2000400001EBC00070472DE9F0470446160072
:100E3000894625D042F6081000EB44108046FBF7A7
:100E4000FDFF054642F6080000EB44173846FBF765
:100E5000F5FF05EB002085B2280200EB44101830A6
:100E600032464946FCF716F8A81984B2210A3846DA
:100E7000FCF74AF8E1B24046BDE8F047FCF744B859
:100E8000BDE8F0872DE9F04704461600894625D0D5
:100E900042F2085000EB44108046FBF7CFFF0546B6
:100EA00042F2084000EB44173846FBF7C7FF05EB5A
:100EB000002085B2280200EB44101030324649462B
:100EC000FCF752F8A81984B2210A3846FCF71CF83E
:100ED000E1B24046BDE8F047FCF716B8BDE8F08740
:100EE000007870470170704710B5040A00F0F001F7
:100EF0004FF4A850FCF708F82146BDE810404FF425
:100F0000B850FCF701B87047704770477047000051
:100F100002494FF480000860704700000805005047
:100F200010B54FF4A850FBF789FF00F0F0044FF420
:100F3000B850FBF783FF04EB002080B210BD10B562
:100F40004FF4B050FBF77AFF04464FF4C050FBF764
:100F500075FF04EB002080B210BD000010B5044600
:100F6000014606224FF41060FBF794FF042204F1BF
:100F70000E019001FBF78EFF042204F10A014FF4E9
:100F8000A060FBF787FF0422A11D4FF47060FBF700
:100F900081FF07480178A1744178E1748178217557
:100FA000C07860750248401E0078A07510BD000032
:100FB000791F00200020FBF741BF70B504464FF4B5
:100FC000D850FBF73BFF20704FF4D050FBF736FFB3
:100FD00005464FF4C850FBF731FF05EB0020608059
:100FE00070BD2DE9F0410D460646002400F0ACF836
:100FF0004FF0FF38AEB10022B05C204444B2102C58
:1010000017DC521C52B2082AF6DB002441F608779E
:10101000315D07EB4410FBF777FF641C64B2082CCA
:10102000F6DBCDB1002108462A5C114449B21029F3
:1010300002DD4046BDE8F081401C40B20828F3DBE9
:10104000002441F60866295D06EB4410FBF75CFFBF
:10105000641C64B2082CF6DB0020EBE708B56A4696
:1010600001210020FFF79EFA9DF8000008BD000056
:1010700002494FF480000860704700000C050050E2
:1010800010B5C1B2040A4FF4B050FBF73DFF214642
:10109000BDE810404FF4C050FBF736BF10B5044612
:1010A000014606224FF41060FBF75EFF042204F1B4
:1010B0000E019001FBF758FF042204F10A014FF4DE
:1010C000A060FBF751FF0422A11D4FF47060FBF7F5
:1010D0004BFF0748A17C0170E17C4170217D81704C
:1010E000617DC1700249A07D491E087010BD0000DD
:1010F000791F002010B5044630F03A0002D04FF0BE
:10110000FF3010BD0020FBF799FE40EA04010020EB
:10111000FBF7FAFE002010BD10B5044601784FF42D
:10112000D850FBF7F1FE6088010A4FF4C850FBF776
:10113000EBFEA078BDE81040C1B24FF4D050FBF7F1
:10114000E3BE002070477047F0B585B04FF41064DF
:10115000062269462046FBF79DFE0422950102A95E
:101160002846FBF797FE4FF4A066042203A93046F9
:10117000FBF790FE4FF47067042204A93846FBF792
:1011800089FE80210020FBF7BFFE0020FBF756FE02
:10119000062269462046FBF7E7FE042202A92846FC
:1011A000FBF7E2FE042203A93046FBF7DDFE042232
:1011B00004A93846FBF7D8FE05B0F0BD01B56A4674
:1011C00001210020FFF71AFA08BD10B504464FF4BC
:1011D0003850FBF733FEC0F38011217000F0380067
:1011E00001210022202811D038280FD06270102849
:1011F0000ED018280CD020280AD0A270082809D0B8
:10120000182807D0202805D0E27010BD6170EEE7E5
:10121000A170F3E7E17010BD10B54FF43850FBF743
:101220000DFEC00700D0012010BD10B500244FF402
:101230003850FBF703FE10F0300F00D00124204699
:1012400010BD10B54FF438542046FBF7F7FD20F0E1
:1012500080012046FBF758FE2046FBF7EFFD40F0EB
:1012600080012046BDE81040FBF74EBE10B5027865
:101270000021012A00D140214278012A06D0C278FB
:101280008078012A05D001280BD00CE041F038010C
:1012900009E0012802D041F0080104E041F0180102
:1012A00001E041F010014FF43850FBF72DFEBDE88E
:1012B0001040FFF7C6BF70B504464FF438563046AD
:1012C000FBF7BCFD41064FF0FF351AD520F0380082
:1012D000012C10D040F038013046FBF715FEFFF727
:1012E000B0FF3046FBF7AAFD012C07D000F0380014
:1012F00038B1002070BD40F03001EDE700F0300063
:10130000F6E7284670BD0000A81F0020C81F002077
:10131000E81F00206821002088210020B42100203F
:101320000D0000000E0000000F0000001000000083
:101330000D00030011E301000E00030011E30100A2
:101340000F00030011E301001000030011E301008E
:101350009ECADC240EE5A9E093F3A3B50000406E1D
:101360000101000000000200000000000201000076
:10137000000000000000000006000000080000005F
:101380000700000005000000000000000000000051
:101390000000D60106000000060000000800000062
:1013A0000700000005000000000000000000000031
:1013B0000000D601060000006424002003000000A5
:1013C000010002000100000710003C000000900135
:1013D0000100000000000000A0005000000000001C
:1013E0000806FFFF0000000000E0D7010202020231
:1013F000020202020202020202020202068019171F
:101400001816000024140200B01E0020F80000008E
:1014100020D001001C150200A81F00201829000080
:1014200030D00100000000C0A80121008813000096
:1014300000000000000000000000000000000000AC
:10144000000000000000000000000000000000009C
:101450000090D00300000000000000000000000029
:10146000000000000000000000000000000000007C
:10147000000000000000000000000000000000006C
:10148000000000000000000000000000000000005C
:10149000000000000000000000000000000000004C
:1014A000000000000000000000000000000000003C
:1014B00000000000000000000008DC00ABCDC0A868
:1014C00001E1FFFFFF00C0A80101080808080200B1
:1014D00000000000003000400040004000C000005C
:1014E00000000000000000000000000000000000FC
:1014F000000000000102573535303000070F0200B0
:10150000090F02000D0F02000B0F0200E10E020096
:0C151000E50E02000000000000000000DA
:040000050001C40131
:00000001FF
