:020000040001F9
:10B00000A8300020F5B001000FB1010011B101001E
:10B010000000000000000000000000000000000030
:10B0200000000000000000000000000013B101005B
:10B03000000000000000000015B1010017B1010080
:10B0400019B1010019B101005DB9010019B1010088
:10B0500019B1010000000000E9B6010019B10100BA
:10B0600019B1010019B1010019B1010019B10100B4
:10B0700019B1010019B1010019B1010019B10100A4
:10B0800019B1010089B8010019B1010019B101001D
:10B09000A9B8010019B10100B1B8010019B101004E
:10B0A00019B1010019B1010000000000000000000A
:10B0B0000000000000000000000000000000000090
:10B0C0000348854600F06AFA00480047C1DD0100E8
:10B0D000A8300020401E00BF00BF00BF00BF00BF5F
:10B0E00000BF00BF00BF00BF00BF00BF00BFF1D165
:10B0F000704700000321094802680A4302600848BB
:10B1000002680A4302600748804707480047FEE795
:10B11000FEE7FEE7FEE7FEE7FEE70000240500404D
:10B1200054050040D1B80100C1B0010030B50B4654
:10B13000014600202022012409E00D46D5409D4211
:10B1400005D31D469540491B254695404019154697
:10B15000521E002DF1DC30BD03460B439B0703D08C
:10B1600009E008C9121F08C0042AFAD203E00B78CC
:10B17000491C0370401C521EF9D27047D2B201E044
:10B180000270401C491EFBD270470022F6E710B542
:10B1900013460A4604461946FFF7F0FF204610BD45
:10B1A0000146002000E0401C0A5C002AFBD17047E9
:10B1B000F0B51FB40646002082B005464024019138
:10B1C00000901BE0019922460F46304600F008FA35
:10B1D000049A059B801A994110D3104619462246BD
:10B1E00000F0EEF9361A8F41019722460120002126
:10B1F000009F00F0E5F938184D4100902046641E8C
:10B200000028DFDC019B00982946324607B0F0BDDC
:10B21000F0B507460846584087B0C00F0490480074
:10B220000E46590040084908BC1A884105D23846E4
:10B2300031461E4617460B4602465800400810434A
:10B2400003D13846314607B0F0BD300D03904005BC
:10B250005900400D490D0590401A029040286DDAC2
:10B2600018030121000B090508430190049800927E
:10B27000002805D001995242002088410092019097
:10B28000029840210A1A0199009800F099F90546A0
:10B290000C46684607C800F0B4F9C0197141039A1A
:10B2A0000E0D0023D71756401A467A40164340D059
:10B2B000049A002A29D0029A012A039A11DC120565
:10B2C000C01A914101263605001C7141D20F059E1E
:10B2D000D2070093019202962A46234600F0B1F964
:10B2E000B1E71605224A0F46B218C01AB74101212C
:10B2F0000905001C4F4100187F411146181879417B
:10B30000E20F10436D19644113E0E2076D08154325
:10B310006408C2071443039A01261205C01A91411A
:10B320003605001C7141CE07400830434908C0185B
:10B3300051412A46234600F077F984E70498012218
:10B340004000C117121A00238B4104983146C417DC
:10B35000381AA141EFE730B40124E407634030BC60
:10B3600056E730B40124E407614030BC50E70000E8
:10B370000000E0FFF0B51FB488B00B9909980024D5
:10B3800048400999C00F490049080991C0070B9925
:10B390000090490049080B9109990898A64608436E
:10B3A00003D00B990A98084303D1002001460DB041
:10B3B000F0BD099801244000420D4800410D099854
:10B3C00024050003000B204309900B980003000B99
:10B3D00020430B9050181A4940180022019014463F
:10B3E000104601E0032801DA034600E003239C46EF
:10B3F000C11A0AAE0AE05F0008ADED5B4F00F75BD3
:10B400007D430027AA187C415B1E491C6145F2DD83
:10B41000410004AB5A522104120C0A43240C401C74
:10B420000828DFDB01980290009970460191009096
:10B43000059B049A0799069800F003F9B7E7000006
:10B440000DFCFFFFF0B50C465C4085B0E40FE4074F
:10B4500003944C00002664085900944649080246AB
:10B460000296224321D062460A431ED06200570D45
:10B470004A000E032303550D012402462C492405DE
:10B48000781B1B0B360B4018234326436146009064
:10B490001C46501AB44103D30098401C009002E0AF
:10B4A000921800985B41002803DA0020014605B09D
:10B4B000F0BD0020012109050746864611E06446DB
:10B4C0001D46141BB54106D36546521BB341744655
:10B4D00007430C43A646CD07400849082843921865
:10B4E0005B4105460D43EAD11046184313D0604630
:10B4F000194650407140084303D100220123DB0765
:10B5000009E06046101AB34102D20122002302E092
:10B510000122D2435310009874460105381C614142
:10B52000029C039D0019694100F07EF8BFE700000E
:10B53000FD0300004A0009030123090B1B05194301
:10B540000A4B10B5520D9A4202DA0020014610BD96
:10B55000064B34339A4203DC9A1A00F041F810BDCE
:10B56000034BD21800F02CF810BD0000FF030000C0
:10B57000CDFBFFFF10B5002904DB0124E4074042A6
:10B580008C412146002B04DB1C460123DB07524281
:10B59000A341994200D1904210BD0000064C012504
:10B5A000064E05E02046E36807C82B439847103451
:10B5B000B442F7D3FFF788FD40FD010060FD0100B4
:10B5C00010B5202A04DB0146203A9140002010BD2E
:10B5D000914020239C1A0346E3401943904010BD3C
:10B5E00010B5202A04DB0846203AD040002110BDC7
:10B5F0000B46D340D0402024A21A9140084319465C
:10B6000010BD10B5202A06DBCB170846203A1041A2
:10B61000C1170B4306E00B461341D0402024A21A69
:10B6200091400843194610BD10B5002B08DA0024DC
:10B63000401C614192185B411A4301D1400840000F
:10B6400010BDF0B51FB482B005460C0003D008460B
:10B6500000F074FA02E000F071FA20300246009027
:10B6600021462846FFF7ACFF049B059A04460F4687
:10B6700018431143084303D12046394607B0F0BDB3
:10B680001846104317D0009840210A1A1846059909
:10B69000FFF7A6FF05460E46009A05990498FFF7A6
:10B6A0008FFF084301D0012000E00020C1170543AF
:10B6B0000E432C43374300990E986305401A7905D1
:10B6C000E40A0A3000220C43FD0A002802DA0020B6
:10B6D0000146D3E70105101969410C9C0D9D001925
:10B6E0006941FFF7A1FFC9E7F0B50025FF248BB042
:10B6F000013401262F460295204602F033FF002830
:10B7000008D049484068304204D0484800212018F9
:10B7100035430160241D76007F1CA4B2042FEBD3B7
:10B72000FF207D3002F01EFF002807D04049002096
:10B730000860480705433F48006902903E4C2807CF
:10B7400013D001270026384628420AD03B48B200D1
:10B75000111808690969C004C00E8903A258890F2D
:10B7600090477F00761C042EEDD3002D59DA00207F
:10B770000490401E4FE0A119403108788506AD0EB7
:10B7800042B2521C3BD00121A940089A00911142BB
:10B7900035D080090390284601F0AEFD8000205886
:10B7A0000590002804D003990098032904D006E0EE
:10B7B0000398032823D10098049901430491204A57
:10B7C000A90089180968029A8903890F104202D0DA
:10B7D000022902D013E0032911D10398032807D1CD
:10B7E00002291CD00221284602F0ACFE7F1CFFB2C9
:10B7F0000598002803D0059A284603999047761C9F
:10B80000042EB8D3002F0CD00A4800690299884250
:10B8100007D00290049800273E460890ABE703212A
:10B82000E1E70BB0F0BD00000063004000600040A5
:10B830007C61004000050050F423002000650040BA
:10B84000000700508307FF22DB0E9A408907090E8C
:10B85000994000280BDA0007000F083883080848D1
:10B860009B001B18D86990430843D8617047830830
:10B8700004489B001B1818689043084318607047E1
:10B8800000ED00E000E400E010B50649002008608B
:10B8900048608860C860034940390860486003F028
:10B8A00015FD10BD4011014010B503F0A7FC10BDFF
:10B8B00010B506484068002805D08047002801D010
:10B8C00000F046FE10BD02F0B3F810BD301F00209E
:10B8D00010B502F00BF9002805D01A491848486045
:10B8E000C813194988611948018CC9B2012925D1A9
:10B8F000818C090722D1018D0906090F042906D17F
:10B90000828D1206120F02D1114B01229A600A2970
:10B9100003D1828D1206120F05D00D290ED1808D14
:10B920000006000F0AD10B480168012904D00A491A
:10B93000016001680129FCD1C021416110BD0000F6
:10B94000DFFF07C000050040006C0040C00F00F0A2
:10B950000006004000EC06407593000010B503F0AF
:10B96000C1FD10BDF8B5144C0546A068804720699C
:10B9700080472904226A280C0E0E002A12D0626A1F
:10B98000002A0FD0694608704E708D7003216846FA
:10B990009047A0698047054660698047E068804716
:10B9A0002846F8BDE169C0B28847E169304688475A
:10B9B000E169E8B28847ECE7881F0020F7B51B4C27
:10B9C0000546A06882B01746804720698047290451
:10B9D000226A280C0E0E002A13D0626A002A10D0A8
:10B9E000694608704E708D70032168469047226A40
:10B9F00039460398904760698047E068804705B002
:10BA0000F0BDE169C0B28847E16930468847E16925
:10BA1000E8B28847002505E0A069804703994855AA
:10BA20006D1CADB2BD42F7D3E5E70000881F0020D2
:10BA3000F8B5144D0446A8680E468047286980472B
:10BA400004206A6A0443002A0DD0210C6846017064
:10BA5000210A41708470C67004219047686980474C
:10BA6000E8688047F8BD2002E969000E8847200495
:10BA7000E969000E8847E969E0B28847E96930461C
:10BA80008847EBE7881F0020F8B5194D0446A868E1
:10BA900016460F4680472869804704206A6A044397
:10BAA000002A10D0210C68460170210A4170847070
:10BAB000032190476A6A3146384690476869804753
:10BAC000E8688047F8BD2002E969000E8847200435
:10BAD000E969000E8847E969E0B28847002404E07C
:10BAE000E969385D8847641CA4B2B442F8D3E5E73D
:10BAF000881F00200FB410B503A9044B044A029814
:10BB000000F0FCF810BC08BC04B0184737D901009D
:10BB10002C1F00200FB410B504A9074B02AA0398EC
:10BB200000F0ECF8044602A9002000F089FC204651
:10BB300010BC08BC04B0184741C401002021020C0D
:10BB400001D010211046020A01D00839104602091E
:10BB500001D0091F1046820801D0891E10464208F4
:10BB600001D0881E7047081A704730B47446641EAE
:10BB70002578641CAB4200D21D46635D5B00E31870
:10BB800030BC184702E008C8121F08C1002AFAD1C9
:10BB900070477047002001E001C1121F002AFBD14D
:10BBA00070470000F0B51FB484B007980699020DE5
:10BBB00001430FD10F98012449A3012807D004980D
:10BBC0000F9A84600360C260416009B0F0BD0E98B6
:10BBD000C143F4E7434844491018484305140F98FB
:10BBE00001280E980BD0281A401C00243F4E4049D3
:10BBF000009401910290002803DA474216E0404287
:10BC0000F3E7074612E0F80707D0224633460199CA
:10BC10000098FFF7AFFB0191009022463346104693
:10BC20001946FFF7A7FB04460E467F10002FEAD106
:10BC30000298019B0028009A0799069802DAFFF7FC
:10BC400099FB01E0FFF7FEFB04460E460022294B5C
:10BC5000FFF790FC03D80020C043014607E0002214
:10BC6000254B20463146FFF7D3FAFFF763FC10243B
:10BC700009E0002C0ADB0A220023FFF799FA059B52
:10BC800030321A55641E02460A43F2D1641C112256
:10BC9000059B121B1C190F9B012B08D00123084385
:10BCA00002D10E9882420DDD00236D1C0EE0084388
:10BCB00003D10E98151A6D1E0AE011200E90002077
:10BCC0000F908CE7824201DA00236D1E002B86D094
:10BCD00004980F99456004608260C16075E70000B8
:10BCE0003000000001FCFFFF104D00000000244068
:10BCF0000000F03F0000F0430000E03FFFB597B0C8
:10BD0000064600251FE2252879D10024F949274657
:10BD1000761C049432780120203A904002460A4270
:10BD200002D00443761CF5E730782A280ED0022290
:10BD3000307801463039092916D804990A23594325
:10BD4000303940181443761C0490F1E7189802C863
:10BD500004911890002904DA01204003044348426A
:10BD6000049002200443761C30782E2814D104203D
:10BD70000443761C30782A2809D11898761C80C88C
:10BD8000189009E00A214F43303FC719761C3078DC
:10BD9000014630390929F5D930786C2810D006DCF5
:10BDA0004C281AD068280ED06A2817D104E07428CD
:10BDB00013D07A2812D110E00120400504430CE092
:10BDC0000121090501E0032109050C437178814235
:10BDD00003D10120761C00052418761C30781190C0
:10BDE00066280BD013DC58287ED009DC00287CD0D4
:10BDF0004528F6D04628F4D047281AD1AAE118E001
:10BE0000632836D0642871D0652812D1A2E1702849
:10BE10006DD008DC6728F1D069287CD06E280DD061
:10BE20006F2806D1BDE073282FD0752872D07828EE
:10BE30005AD01A9A199990476D1C83E16002400FFD
:10BE4000022809D003280DD00428189801680DD0C5
:10BE5000001D0D60189075E11898EA1702C80D6072
:10BE60004A60F7E7189802C80D80F3E7001D0D70CF
:10BE7000F0E718986A460178001D117218900020AA
:10BE8000507202A80090012005E0189802C818908E
:10BE900000200091C04361070DD5002101E0019908
:10BEA000491C0191B94212DA8142F8DB009A515CD7
:10BEB0000029F4D10BE0002101E00199491C019116
:10BEC0008142FADB019A0099895C0029F5D1019938
:10BED00004981A9B471A21463846199A00F09AFA94
:10BEE0000199401945180BE051E030E113E050E0B2
:10BEF000009800990078491C00911A9A1999904766
:10BF00000198401E0190401CF2D1214638461A9BF0
:10BF1000199A14E139E00A20002100900191600291
:10BF2000410F022907D0189A01CA1892C2179446E5
:10BF300003290AD00CE01898C01DC108C9004A683E
:10BF4000086808319446189107E000B2C217944679
:10BF5000042902D140B2C1178C46002261469445A3
:10BF600006DA0A460021404291418C462D2102E02A
:10BF7000210504D52B216A461173012103E0E10755
:10BF800001D02021F7E7029151E00A200AE01020B9
:10BF900008E01020009000210420044301910827AC
:10BFA00003E008200021019100906002410F022966
:10BFB00007D0189A01CA18920022944603290AD081
:10BFC0000AE01898C01DC108C9004A68086808310D
:10BFD0009446189103E080B2042900D1C0B2002138
:10BFE0000291210723D51199702928D0009A102198
:10BFF000019B4A401A4309D16146014306D03021D2
:10C000006A4611731199517302210291009A082115
:10C01000019B4A401A430AD16146014301D161079D
:10C0200005D530216A46117301217F1E02911199B5
:10C03000582909D030A10E910DA90D9112E040218F
:10C040006A4611730121E0E730A1F4E76146019BE4
:10C05000009AFFF7ADF80E9B8C469B5C0D9A521E22
:10C060000D92137061460143F0D10D9805A9081A8D
:10C0700020300190600703D501200004844300E0D4
:10C0800001270198874201DD381A00E0002001995C
:10C0900000904118029809180498401A0490E0038F
:10C0A00006D421461A9B199A049800F0B3F9451951
:10C0B000002706E003A81A9AC05D199990476D1CE5
:10C0C0007F1C02988742F5DBE0030CD521461A9BC2
:10C0D000199A049800F09EF9451904E01A9A302044
:10C0E000199990476D1C0099481E00900029F5DCB5
:10C0F0001FE0000009280100303132333435363773
:10C1000038396162636465660000000030313233A3
:10C110003435363738394142434445460000000043
:10C120000D980D990078491C0D911A9A199990470C
:10C130006D1C0199481E01900029F1DC4CE100F0D2
:10C1400059F94519761C3078002800D0DBE52846DF
:10C150001BB0F0BD600700D406271898C01DC108A9
:10C16000C90048680A680831C30FDB071891190035
:10C1700001D09CA108E0210501D59BA104E0E107C5
:10C1800001D09AA100E09AA1430011985B08109198
:10C1900065280CD006DC452809D046281DD0472844
:10C1A00041D141E0662818D067283CD13CE000210D
:10C1B000112F01DB112000E0781C0191009008A9EB
:10C1C00011A8FFF7EFFC139905910021119A159220
:10C1D0007F1C12980197009150E00120C007039046
:10C1E0000120019008A9009711A8FFF7DBFC139A22
:10C1F000149905920022119B009212981593059AAA
:10C200000192002901D0104602E0791C40180190EB
:10C21000381A01D5019804E04042401E0090781C75
:10C220000190C01B029043E0012F00DA012700219A
:10C23000112F01DD112000E038460191009008A97E
:10C2400011A8FFF7AFFC13990591119A00211298DC
:10C2500015920091019721070CD40599B94201DB91
:10C26000019900E00191012904DD159A491E515CF4
:10C27000302906D0B84201DA011D05DA0121029108
:10C2800015E00199491EEDE7002805DC00994118E9
:10C2900000910199091A03E0019A411C914200DDC5
:10C2A00001910099401A401C02900120C0070390A0
:10C2B000200706D402990198814202DB0020C04386
:10C2C000029000206946C87707AF01210398033721
:10C2D000C907884224D0022011902B201290039885
:10C2E00000280CDA404203902D20129007E00A212A
:10C2F0000398FEF71BFF30317F1E039039701199B0
:10C30000481E11900029F2DC03980028EFD1791E15
:10C31000129808703078202108404530BF1E3870D0
:10C3200006A8C01BC01D039010980078002800D0FC
:10C330000120019941180298C0170918039809189B
:10C340000498401A401E0490E00306D421461A9B2C
:10C35000199A049800F05EF84519109800780028A2
:10C3600003D01A9A199990476D1CE00323D52146F2
:10C370001A9B199A049800F04DF845191BE0009893
:10C38000002807DB00990598884203DD1598405C7A
:10C39000199901E0199930201A9A904700986D1C5C
:10C3A000401C00900298401E029004D11A9A2E2040
:10C3B000199990476D1C0199481E01900029DEDCF7
:10C3C00005E038781A9A7F1C199990476D1C0399DB
:10C3D000481E03900029F4DC21461A9B199A049800
:10C3E000ADE600002D0000002B0000002000000042
:10C3F00000000000F8B5044600251E4617468804D4
:10C4000004D405E039462020B0476D1C641EF9D5E0
:10C410002846F8BDFFB50446002581B01E46C80376
:10C4200001D5302700E02027880404D505E03846F0
:10C430000399B0476D1C641EF9D5284605B0F0BDC0
:10C440000A68531C0B601070704710B5012202215E
:10C45000002000F067FD002801D0072812D1072234
:10C460000221012000F05EFD002801D0072809D13B
:10C4700000210A22084600F055FD002801D00728B7
:10C4800000D1002010BD0000044842680121C90508
:10C490000B46934383600A40C2607047000500501A
:10C4A00070B50024064D06E06968E000085C0121D3
:10C4B00001F0DEFD641C28788442F5D3002070BDB5
:10C4C000F81E0020F8B50C4615460646052A01D28E
:10C4D0000720F8BD01F09EFE002803D101F070FE98
:10C4E0000028F6D1104900204E600C70C8608D60A5
:10C4F00008610E4D0DE0E0006968801900918178B7
:10C500006A46517000780A4A694601F001FE002827
:10C51000DFD12046641EE4B20028ECD1054A002198
:10C52000024800F04BF8F8BDF81E0020F4FC0100B2
:10C53000DDD9010031D70100BFF34F8F0349024815
:10C54000C860BFF34F8FFEE70400FA0500ED00E07E
:10C550000EB50021029000916A4601910148FFF753
:10C56000EBFF0EBD0140000010B58268C3689A1A47
:10C5700003D001F0CDF9002010BD052010BD002929
:10C5800006D0002A02D0531E134203D00920704760
:10C590000E2070470160838000218160C1600846E1
:10C5A000704710B58268C3689A1A83889A4203D884
:10C5B00001F0B8F9002010BD042010BD094B9B68A4
:10C5C000002B07D0002A07D0002805D00068037C84
:10C5D000002B03D008207047072070474174426148
:10C5E000002070470C1F0020FFB59007002581B088
:10C5F0000E461446002832D11B4F002C31D002F0D9
:10C6000059FA04987861032038702246BC601834C7
:10C610000020334618214B43C10089180D704D701E
:10C620008E704C601C19401C0328F5DBFD607D708A
:10C6300001240E48BD702405046003211420FFF777
:10C6400001F90B4804600B4C0198A06003211120F4
:10C65000FFF7F8F860683861002005B0F0BD0720EA
:10C66000FBE7BD60FBE700000C1F002080E200E05C
:10C6700000E100E000150140FEB50D461B491746DC
:10C680008968044600292AD0002C28D0052D01D223
:10C690000720FEBD6069002821D0607C012820D0E1
:10C6A000002603F02BF8C00010490190896840185B
:10C6B000694603F04DF8002815D0012101700C499E
:10C6C000446049680830E2C0084901988968411807
:10C6D00068460078487002F0D1FD0020FEBD0820B9
:10C6E000FEBD2E46DDE70420FEBD00000C1F00202D
:10C6F00000150140F8B5134D0446A96800291CD067
:10C70000002C1AD06069002817D00026267402F089
:10C71000F5FFC700A8686946381803F019F8002823
:10C720000DD0022101704460A8683918684600786D
:10C73000487002F0A3FD3046F8BD0820F8BD042083
:10C74000F8BD00000C1F002010B5044609488168A0
:10C75000C2688088511A814207D10121064801F040
:10C76000C9FD002801D0052010BD21460148FFF772
:10C77000FBFE10BDD4230020F11E002070B504463E
:10C78000224888B01E460D0042601CD0A888296847
:10C7900082B21F48FFF7F3FE002815D1A889A968C7
:10C7A00082B21B481030FFF7EAFE00280CD120228D
:10C7B00018496846FEF7D0FCA0680690207900284A
:10C7C00004D0012103E0072008B070BD00216846B5
:10C7D000017506776079002800D00E2069464875FB
:10C7E000E0780290A0780390207801906078009023
:10C7F0000949684601F016FD0028E5D101F0A0FDC9
:10C8000002480121401C01F075FDDDE7F01E00200B
:10C81000D4230020B4FC0100F1F3010010B501465F
:10C820000A48FFF7BEFE04000ED101F02FFE0028DB
:10C830000AD107490548FFF797FE002804D10121D6
:10C84000034801F0D7FD0446204610BDE423002034
:10C85000F01E002070B500280AD00F4D297800295D
:10C8600008D0044602F00AF9002805D0002070BD67
:10C870000E2070BD082070BDE868062809D2074A5E
:10C880008100891822880A8062884A80401CE860FA
:10C89000ECE7042070BD0000E01E0020DC21002039
:10C8A000002808D0002205490123CA600B708A6065
:10C8B0004860104670470E2070470000E01E0020C0
:10C8C00010B5002811D000290FD0114A1278002A83
:10C8D0000BD00A88112A11D0302A07D0322A09D069
:10C8E000332A02D1091D01F03FFF10BD091D01F0DF
:10C8F00099FF10BD091D01F0C3FE10BDFF30A1302E
:10C90000898842899142F8D10021C17110BD00008F
:10C91000E01E002010B50B4600280ED0134A1178F7
:10C9200000290CD0D168002909D00446FF34A13475
:10C93000E179002905D0112010BD0E2010BD08207E
:10C9400010BD638100219160024621720848A171E7
:10C9500001881180408850800121184690DF00280E
:10C96000EED10120E071002010BD0000E01E00208B
:10C97000DC21002010B5044601F032FE204600F014
:10C9800003FA21460448FFF79BFF0348214620385D
:10C9900000F09CF810BD0000E0240020FEB5054624
:10C9A00008780C46012806D0022816D0032801D1A9
:10C9B00002F0DAF8FEBD224661880A32284600F00D
:10C9C0004FF8002801D0FFF7C3FD284600F0E8F833
:10C9D0000028EFD0FFF7BCFDFEBD12A0FFF78AF8DC
:10C9E00014486D46017D837D427D0EC5C37C827CEB
:10C9F000417C11A0FFF77EF8002506E06068405DED
:10CA0000FFF70CFF0028F9D16D1C207AA842F5D859
:10CA1000114EB570B27861681048FEF79DFB012099
:10CA20003070FEBD5B46726F6D20424C455F505DBD
:10CA300020000000C0240020253032783A25303212
:10CA4000783A253032783A253032783A25303278C3
:10CA50003A25303278200000B01E00205C210020F2
:10CA600000280AD04180002A05D05188C180118851
:10CA7000818091880181002070470E20704700005E
:10CA800030B5114B0D4604000FCB85B003936B46B8
:10CA900007C317D0002D15D02146684663DF002854
:10CAA0000ED121786846817401210182881E608040
:10CAB0002868E0600020A080208104A8FFF7CAFE5B
:10CAC00005B030BD0E20FBE78CFC01001FB500282F
:10CAD0002DD000292BD04288154B9A4202D08C8849
:10CAE000A24224D10C88112C14D0392C1FD1828859
:10CAF000002A1CD08B89934219D1C268002A16D013
:10CB000002236A4613700A4612320192097C6A4671
:10CB1000117209E08988914209D1C168002906D0C3
:10CB200003216A4611704380C268694690471FBD61
:10CB3000FFFF00007FB50022009201920292039253
:10CB40000B460A780E33002A29D18A88012A26D179
:10CB50008A790478A24222D1002213E00C245443A3
:10CB60001D5B022D02D0032D0BD104E0E4182489B3
:10CB70006D46EC8105E0E41826896D466E81648976
:10CB8000AC81521C0C7A9442E8D8C268002A06D0C4
:10CB90004A8869464A8001220A70C26890477FBD70
:10CBA0001FB5010018D048880D4A904216D0C98898
:10CBB000002913D001236A46137300235373094BD2
:10CBC0001A695B69009201936A46518003A9029138
:10CBD000694698DF04B010BD0E20FBE70820F9E796
:10CBE000FFFF00008CFC01003EB5002803D0142A92
:10CBF00003D907203EBD0E203EBD4388094CA34209
:10CC000001D108203EBD084D1C3538CD009302955A
:10CC1000019404896B465C80DA8002914088694601
:10CC200098DF3EBDFFFF00008CFC010000B51748F7
:10CC300087B04068059000234822154905A802F0F6
:10CC40002FF9002801D0FFF783FC6A46002101205C
:10CC500002F00EF9002801D0FFF77AFC0D4801F030
:10CC600095FF002801D0FFF773FC684602F0F8F842
:10CC7000002801D0FFF76CFC074802F0E7F8002815
:10CC800001D0FFF765FC07B000BD0000FCFC01000F
:10CC900078240020E01C002075C9010030B5174C35
:10CCA0009DB02078002827D06520C000FEF75AFEEE
:10CCB00017281FD11248857D437D027DC17C0395D5
:10CCC0006D460EC5837C427C0EA104A8FEF722FFB0
:10CCD00004A8FEF765FA82B204A9012001F0A4FFBE
:10CCE000A2781349012001F09FFF002802DA0120F9
:10CCF00000F028FB002020701DB030BDB01E0020C9
:10CD0000C02400205B46726F6D20424C455F505D31
:10CD100020253032783A253032783A253032783A48
:10CD2000253032783A253032783A25303278200072
:10CD30005C2100207CB5134E00250C463060002994
:10CD400018D06946002000F0B5F8002819D101A9D3
:10CD5000012000F0AFF8002813D1684601790020C7
:10CD6000002901D0022004E069460978002900D09A
:10CD70000B2020707068002802D1FFF766FB054683
:10CD800028467CBDD41E002010B51C4C018860686C
:10CD900010290DD011290AD1401E606007D1FFF77C
:10CDA00054FB002803D02168002900D0884710BD1B
:10CDB00000281ED100210122084600F0B3F8002807
:10CDC00001D0072811D107220221012000F0AAF882
:10CDD000002801D0072808D104220221002000F0F9
:10CDE000A1F8002805D0072803D02168002900D029
:10CDF00088476068401C606010BD0000D41E0020A1
:10CE000010B5032000F022FA002801D0062800D136
:10CE1000002010BDF8B507460024234802E0641C3A
:10CE2000042C1AD2A2008258BA42F8D1042C14D28F
:10CE30001D481E4E0C38002929D001290ED0022988
:10CE40000BD16000201880194578002D05D01848B6
:10CE50000169002901D028468847F8BD61006118A2
:10CE6000755C8E19717800290CD011490A22496825
:10CE7000806851430E4A521CFFF7FEFB002801D187
:10CE80000B4847700A48B17814300155DDE78068D7
:10CE9000FFF730FC06486100611814308919005D05
:10CEA0008D78A842D1D0F8BD5CFC0100B0210020F3
:10CEB000BC1E002004280CD2074A1269074B8000D0
:10CEC0001B5C01209840904300D001200870002096
:10CED00070470020FAE70000000500505CFC0100EC
:10CEE00010B5042813D00A2810D1002000F03EF815
:10CEF000002801D0FFF72CFBFFF782FF002801D0AC
:10CF0000FFF726FB3CDF08E0FFF722FB10BD0448DB
:10CF10001321408876DF0828F8D00028F4D110BD0E
:10CF2000C024002070B50023042811D24400041945
:10CF30000D4D012A02D101290DD000224600801991
:10CF4000094E801900290CD0012906D0022906D0EB
:10CF50000723184670BD0D30C2B22A55F9E742705A
:10CF6000F7E78270F5E70000B021002010B5054A10
:10CF70000146127A0020D20702D0084600F054F889
:10CF800010BD0000BC1E002070B50E4620490546AD
:10CF90004E608D6000200A61A9071ED50024012281
:10CFA00011462046FFF7BEFF641C042C02D2002865
:10CFB000F5D012E0002810D1720804211548FFF7BF
:10CFC00081FA002809D1FFF76BFA002805D1114832
:10CFD000114A00211438FFF7F1FAE90706D00F22B1
:10CFE0000E4952058A600023CB608A6100280DD16A
:10CFF00008480B4A00211C38FFF7E0FA002805D149
:10D000000448084A01211838FFF7D8FA70BD00001B
:10D01000BC1E00206CFC010089D2010000050050FC
:10D0200019DC010089C40100FEB5844D0721EA68BE
:10D0300089059143029201910646696800208A00A1
:10D04000009107467E4C89183300FEF78EFD180DBF
:10D050001515394B5B6F8688919AA3F3AFAFAFAFCD
:10D06000AFD9DFE5ECF3F3140F21029A49059143A0
:10D07000A160E7602F70FEBD0198A060E760606866
:10D080000F214905484080026E4809D5A060E7603D
:10D09000022E02D1E120C0000AE07D20400107E01D
:10D0A000E060A760022E01D1C82001E0FF2091308E
:10D0B0002E706421FEF73AF800994143002247E0C0
:10D0C0000198A060E76060680F2149054840800230
:10D0D0005C4804D5A060E76019204001E8E7E06003
:10D0E000A760E1E70198A060E76060680F2149054B
:10D0F00048408002534802D5A060E760CDE7E06079
:10D10000A760D3E70198A060E76060680F21490538
:10D11000484080024B4802D5A060E76001E0E06033
:10D12000A7602E7000984100002211E00198A060D5
:10D13000E76060680F21490548408002414802D5F8
:10D14000A060E76001E0E060A7602E700099002217
:10D150003D480068FFF790FAFEBD019958E061680C
:10D160000120800502468A43A2600140E160EDE7AC
:10D1700060680122920513468343A3601040E0607B
:10D18000D2E76068012189050A468243A26008400F
:10D19000E060DBE762680120800503469343A360FB
:10D1A0000240E260C0E7E160A7602DE026484068E9
:10D1B000FFF7A0FA11218A1B01D0002807D00F2207
:10D1C000E96852051140A160E760EF60FEBD0121F2
:10D1D000C905E960012A0CD91046C82148436421D9
:10D1E000FDF7A4FF69680022414317484068FFF734
:10D1F00043FA0F22E96852051140E160A760FEBDC5
:10D200000F214905A160E7602E70FEBD0721890549
:10D21000A160E7600B49C6E70D214905A160E76001
:10D2200001218905BFE70321C905A160E7608910D5
:10D23000B9E7FFE70F214905B5E70000BC1E002054
:10D24000000500500000200050FC0100F0B5002156
:10D250000B4C0C4D03273F048A00A258920056192C
:10D26000326801238B40034000D00323BA431B04E0
:10D2700013433360491C0429EED30020F0BD0000A5
:10D280005CFC01000007005010B500780221FFF798
:10D29000C1FD10BD0022D243830004490428CA50B6
:10D2A00002D308182030027770470000F4230020D2
:10D2B000F0B50025ED43002A02D00023042601E04A
:10D2C000042308260B4C04E09F00E7597F1C04D080
:10D2D0005B1CB342F8D32846F0BD26185DB2203659
:10D2E00035709E00A151002AF5D1E1182031087750
:10D2F000F1E70000F4230020024909182020085615
:10D3000070470000F423002038B50B460146FF317A
:10D310000246A13188794624604380184A79002A60
:10D3200007D0521ED1B20C2251430918498A491C18
:10D3300000E0C1886A461180008969464880184625
:10D3400092DF38BD70B50446082802D90020C043DA
:10D3500070BD65012846FF30093006461021FEF7F2
:10D3600067FB3046FEF7FEFA0028FAD14120C000E4
:10D3700028181F21FEF75CFB0C4901204A88A040B9
:10D3800082434A808A8882438A80094A0020610059
:10D3900050520649891D08556120C0002C182046AE
:10D3A000FEF7E0FA0028FAD1012070BD701F0020BE
:10D3B00098280020F8B52348C16800293ED00E689F
:10D3C00021494C680769C078E11B0D022D0AED1C4C
:10D3D000002814D101201D4A000450601B4A403A25
:10D3E00050601B49400008601A4908601A49012032
:10D3F00008602F20FDF76EFE12490120C870B5426B
:10D4000000D23546E81900020F4B000A403318607D
:10D410000D4A5168001B091B0902090A0002C91CB8
:10D42000000A814209D9506818602F20FDF752FE8A
:10D4300001200749400480390860F8BD01F03AFB3B
:10D44000F8BD00000C1F00200015014040130140F2
:10D4500080E200E000E100E000100140F8B5054680
:10D4600017460E46082802D90020C043F8BD6801BF
:10D470000830FEF777FA0007000F012802D00420D9
:10D48000C043F8BD61206C01C00020180090FEF779
:10D4900069FA132802D00220C043F8BD30787178B1
:10D4A00000024018B17800024018F17800024018DC
:10D4B000411C27D0002825D0002F26D02248042246
:10D4C00020183146FEF7E0FA2048390A2018FEF706
:10D4D000AFFA1F48F9B22018FEF7AAFA2046FF302B
:10D4E000093006460421FEF7A3FA3046FEF73AFA61
:10D4F0000028FAD1174901204988A84008421AD0CB
:10D500000020F8BD0B20C043F8BD0A20C043F8BD81
:10D510006019FEF727FA000706D560190821FEF703
:10D5200087FA0C20C043F8BD0098FEF71BFA0028CC
:10D5300003D1001FF8BD4125ED000098FEF712FA57
:10D540001728E5D10120F8BD080C000008100000E4
:10D5500008110000701F002010B50C460300FEF7F4
:10D5600004FB0604080C1014181D084602F038FAD3
:10D5700012E0084602F092F90EE0087802F05CFA38
:10D5800010BD02F0B7F9207006E0084602F066FA16
:10D5900002E0084602F0B3F9002010BD0020C043AD
:10D5A00010BD0000F8B50C460746002113220525E2
:10D5B00008461202AD024E1E3B00FEF7D6FA1009D5
:10D5C0000C18141B1F232E3744474B574F53595FDA
:10D5D00002F05BFA4AE0002C02D0214620460831D6
:10D5E00002F0A0F9F8BD208802F01EF93EE002F03A
:10D5F00037F905E0208802F0E5F937E002F03FF95D
:10D60000208033E02088010A1046FEF711FA2078C6
:10D61000C1B22846FEF70CFA28E01046FEF7A2F940
:10D6200006022846FEF79EF93018E9E7144882788A
:10D630002270C27862700279A2704279E2708079B9
:10D640002071617112E002F09DFA0FE0204602F0B5
:10D65000ADFA0BE0204602F059FA07E0207802F01C
:10D66000C7FAF8BD02F082FA04E020700020F8BD8D
:10D6700002F073FAC0B241B2491CF6D13046F8BD8F
:10D68000881F002010B501460148FFF753FA10BD6E
:10D69000C024002010B50448FFF702F9002801D08B
:10D6A000FEF756FF10BD000085D60100F7B5054610
:10D6B000FF350646A135A8794621484387196C797C
:10D6C0000C206043C1193A790A31601C82B0904243
:10D6D00026D101AB0022304600F0E6F9002822D026
:10D6E00010E0401EA04201D1002003E00C20604366
:10D6F000C01916300246009001AB304600F0D4F954
:10D70000002807D003980021017001A9049893DF35
:10D7100005B0F0BD68790099401C641C6871E4B2E2
:10D720003879A042DDD80398012101700020EFE78D
:10D73000F8B500260124164D25E06968F000471869
:10D740003878214681402A690B46134219D08A4312
:10D750002A6100F02BFD014638782246EB688240B2
:10D760001A400B4683409A420BD17A78012A01D0A5
:10D77000012200E000227B684A40002B01D0D1B298
:10D780009847761CF6B228788642D6D3F8BD0000BA
:10D79000F81E0020F8B50546082802D90020C0432D
:10D7A000F8BD680101240830FEF7DCF80007000F1F
:10D7B000012801D0A01FF8BD6E013046FF300930AE
:10D7C00007460821FEF734F93846FEF7CBF8002863
:10D7D000FAD11048AC408188A1438180408804423E
:10D7E0000CD00020F8BDF019FEF7BCF800070AD5F0
:10D7F0002846FFF7A7FD0C20C043F8BD4127612054
:10D80000FF00C00034182046FEF7ACF80028EAD12B
:10D810000120F8BD701F0020F7B5FF21A731144685
:10D82000095C462251430F18384601F027F90600DB
:10D8300033D01A4A906806282FD221461446502227
:10D840005043174D462240194180001D3946FDF7CF
:10D8500083FC01980027002804D0A0685021484389
:10D860002F5404E0A0680221502250432954A0689C
:10D87000502141434919401CCE64A060E1688842B0
:10D880000BD1002605E0502070434019C16C884739
:10D89000761CE0688642F6D3A760FEBDE01E00203D
:10D8A000F421002030B50D46FF21A7311446095C54
:10D8B0004622514393B0081801F0E0F8030005D068
:10D8C00068464480012101700195984713B030BD2E
:10D8D00010B50E4900234A788C78A24212D0521C0F
:10D8E000D2B24A70022A00D14B704A78074B92009C
:10D8F00018339A580260086910180002000A08617B
:10D90000012010BD0360002010BD00000C1F00208E
:10D91000826883881A4003689A5C0A708168491C8F
:10D9200081607047C26883881A4003689954C1684F
:10D93000491CC160704710B50446C0B2FEF76EFFC7
:10D94000204610BDF8B5114A0F4940010024871840
:10D9500046183046FEF706F805463846FEF702F848
:10D960002902401805042D0C09D03046FDF7FAFFB6
:10D9700004463846FDF7F6FF2102401884B2AC4257
:10D98000E7D12046F8BD0000082600000827000067
:10D99000F8B5114A0F49400100248718461830464F
:10D9A000FDF7E0FF05463846FDF7DCFF2902401889
:10D9B00005042D0C09D03046FDF7D4FF0446384647
:10D9C000FDF7D0FF2102401884B2AC42E7D12046D7
:10D9D000F8BD00000820000008210000F8B5074647
:10D9E000114E0125BD403068FEF784FE002806D1A7
:10D9F0000E4C20690146294202D0A8432061F8BD9F
:10DA0000384600F0D3FB0028E06801D0284300E04E
:10DA1000A843E0602069002228432061A1683068A3
:10DA2000FEF72AFEF8BD0000F4FC0100F81E0020FD
:10DA3000F8B51C4C2078002833D02069002807D086
:10DA40000025E068002805D00026002D04D011E054
:10DA50000125F6E70126F8E7684652DF052804D0DD
:10DA6000002804D0FEF774FD04E0012502E02169DE
:10DA700000988847002E10D1608869460880A06809
:10DA800061DF052804D0002804D0FEF761FD04E022
:10DA9000012602E0E168A0688847002DDCD0002E56
:10DAA000D3D0F8BD301F002030B50989002A05D039
:10DAB000D088491C814213D1002030BD0246FF327C
:10DAC000A132947946256C4324182489A142F3D0CD
:10DAD000491C19809179462251430818008902E0B7
:10DAE0001980D088401E5880012030BD1048018C1C
:10DAF000C9B2012917D1818C090714D1018D0906FA
:10DB00000A0F03D1828D1206120F0ED0090F0129C0
:10DB100003D1828D1206120F07D0032903D1808D05
:10DB20000006000F01D00020704701207047000060
:10DB3000C00F00F0F3B500240D4683B08E460935C2
:10DB400062E0285D29190190487802280AD003284C
:10DB500008D0042823D0052821D006283CD0072847
:10DB60003AD04EE001980026470815E070000019F1
:10DB70004119891C6A46022064DF00280BD16846DF
:10DB8000018803980088814205D16846817803980E
:10DB90008078814232D0761CB742E7D831E00198D4
:10DBA0000026870815E0B00000194119891C6A4653
:10DBB000022064DF00280BD16846018803980088A2
:10DBC000814205D16846817803988078814215D0DA
:10DBD000761CB742E7D814E0891C6A46102064DF3F
:10DBE00000280ED16846018803980088814208D138
:10DBF0006846817803988078814202D1012005B07F
:10DC0000F0BD01982418641C7046007AC008A04238
:10DC100097D80020F3E7000010B50448017AC9073F
:10DC200002D00078FFF700FA10BD0000BC1E0020F3
:10DC3000F8B52C49C8680A690C780F798968864656
:10DC4000944600913EE00099E20055182A7836E0AB
:10DC5000182353436968521CC918AB78D2B2934257
:10DC600000D100220B78022B02D0032B27D123E016
:10DC70004E680346014603E0B14204D00B46C96931
:10DC800000291CD0F8E7002919D08B4208D1C069BF
:10DC9000002805D1144F0126BE600026B446012796
:10DCA0000E68C969D961002909D00B689B190B60FE
:10DCB00005E00174C06900E000210028F9D169780D
:10DCC0009142C5D12146641EE4B20029BBD1054969
:10DCD00062460A61C8600F71704501D00120F8BD2D
:10DCE0000020F8BD0C1F002000100140F8B50446CC
:10DCF00031480026C168009107784EE02E48F900AF
:10DD000080680D1843E0002C02D02046E4691FE033
:10DD10002878182141436A68401CC0B25118287005
:10DD2000AA78904200D12E700A784868012A30D132
:10DD3000027C002A2DD18A684260CA6882600A6922
:10DD4000C260496981611C490979002900D0466097
:10DD5000194943680A699C46991A0902174B090A2E
:10DD6000994202D28268891807E06146511A090275
:10DD70008268090A8A4202D9511A016000E00660ED
:10DD80004660012186600174C66101F07FFA002CB3
:10DD9000B9D1287869788842BAD138467F1EFFB257
:10DDA0000028ABD10448C1680098814201D001200D
:10DDB000F8BD0020F8BD00000C1F0020FFFF7F0011
:10DDC00008B50023374A03211846FEF70DFC00284A
:10DDD00001D0FEF7BDFB0321334801F061FB344D58
:10DDE000324A29460120FFF7CFF8002801D0FEF77C
:10DDF000AFFB69460020FEF79DFF002801D0FEF72B
:10DE0000A7FBFFF747FCFEF711FF2A4800F0D4FB01
:10DE100001F060F801F0F8FB274A01212748FEF7DE
:10DE2000CDFB002801D0FEF793FB2448244A0121B2
:10DE3000001DFEF7C3FB002801D0FEF789FB1F4839
:10DE4000204A01210830FEF7B9FB002801D0FEF777
:10DE50007FFB1A4C01210022C9032068FEF70CFC4D
:10DE6000002801D0FEF774FB002229466068FEF707
:10DE700003FC002801D0FEF76BFB00222946A068B6
:10DE8000FEF7FAFB002801D0FEF762FB00F06CFE03
:10DE90000DA0FDF72FFE48DF0028FCD0FEF758FB51
:10DEA000F9E700002420002099F30100E1CE0100F1
:10DEB000CD0C00009DC9010049F0010044FC0100A7
:10DEC0009DCC010091F101005363616E2073746178
:10DED000727465640D0A000010B586B020490020F8
:10DEE000FFF73AFB1E490120FFF736FB03A9082084
:10DEF000FFF758FB03A91BA0FDF7FCFD184C6B4670
:10DF0000E0786279217907C3A378627821781BA031
:10DF1000FDF7F0FD607A0090237AE279A17921A0E3
:10DF2000FDF7E8FD607C0090237CE27BA17B22A0D2
:10DF3000FDF7E0FD607B0090237BE27AA17A23A0CD
:10DF4000FDF7D8FD607D0090237DE27CA17C24A0BC
:10DF5000FDF7D0FD27A0FDF7CDFD06B010BD0000F8
:10DF60004C1F00200D0A3D3D3D202573204E455499
:10DF700020434F4E46203D3D3D0D0A004D41433A62
:10DF800020253032583A253032583A253032583A26
:10DF9000253032583A253032583A253032580D0A59
:10DFA000000000005349503A2025642E25642E2598
:10DFB000642E25640D0A00004741523A2025642E44
:10DFC00025642E25642E25640D0A00005355423A1F
:10DFD0002025642E25642E25642E25640D0A00005C
:10DFE000444E533A2025642E25642E25642E256444
:10DFF0000D0A00003D3D3D3D3D3D3D3D3D3D3D3D2E
:10E000003D3D3D3D3D3D3D3D3D3D0D0A0000000097
:10E010008207D30EFF229A408907090E10B5994056
:10E0200000280BDA03071B0F083B9C080C4BA400CD
:10E03000E418E36993430B43E36107E08408094B69
:10E04000A400E418236893430B432360C106C90E60
:10E0500001208840044908600449086010BD0000A0
:10E0600000ED00E000E400E080E200E000E100E01C
:10E07000F3B581B00F46019800F04AFC0124002856
:10E080001E4E019817D0FFF737F980192030007F16
:10E090008009032802D001280BD005E01848006948
:10E0A00001998C40204204D00321019800F04AFAE3
:10E0B000FEBD0221F9E700F037FC0028F8D00198F6
:10E0C000FFF71AF905468100C81D0E4AF930891874
:10E0D0000A6980B222430A610B494018002101609D
:10E0E000002FE5D00198FFF707F98000305800288D
:10E0F000DED00648AC404460FEBD0000F4230020A2
:10E1000000050050006500400060004000630040D2
:10E11000FEB515460E460446002700F0EFFB00282A
:10E1200001D0082738E0F27829462046FFF7C0F8EA
:10E130000546401C2FD0B078002807D01748A10012
:10E140000918086802229043086007E000217378EC
:10E15000204600910A46019100F0A0F9F0780028CD
:10E1600010D00F48AA001018317802690D4B1A40E0
:10E170000261E206D20C8907890B0A4301690A434E
:10E18000026109E00848327840192030017F92018D
:10E190001143017700E004273846FEBD0007005018
:10E1A00000650040FFE0FCFFF423002003490969FB
:10E1B000C140C807C00F00D00120704700050050C3
:10E1C00070B5124D2879002801D0082070BD0F4984
:10E1D00000204039421E0B182033401CC0B21A7078
:10E1E0002028F8D300242046FFF754F8641CE4B23A
:10E1F000082CF8D303210620FFF70AFF0120044969
:10E20000C007486001202871002070BD3424002020
:10E210000063004002480079002800D001207047C8
:10E2200034240020F3B52C4D0446E87E81B000284C
:10E2300001D00820FEBD002C00D1284C01272078F9
:10E240003946274E8140B160206800F066F9002110
:10E25000606800F059F92449224BA0694862607D4A
:10E26000217D084320494031C86218466268216810
:10E2700000F09BF9207D01280FD10021A06800F05B
:10E2800043F9207B39468140B160E06800F045F9F0
:10E290001448A268E16800F07AF902986860216980
:10E2A0000026296000280DD00E48FF22217F1D3254
:10E2B0008650FF22453286500D4A0C48506002209D
:10E2C000FFF7A6FE084804210160EE752E76AE75B4
:10E2D000EF76AE760020FEBD3C240020D4FC010089
:10E2E0000005005000200040002500408000020092
:10E2F00000230040F8B5104B81245E680022A40082
:10E300000E4D002E00D0AC60DF7D002F0BD01A7EAA
:10E31000002A04D0002E00D06C601120F8BD1861D6
:10E320000122197604E0D9750024D8605C761C7649
:10E3300000F012F8F8BD00003C240020002300404B
:10E3400010B5044CA07E002803D100F0FFFB012093
:10E35000A07610BD3C240020F8B5234DA87E1043C4
:10E3600001D100F0F3FB6868204C002805D0812023
:10E370001F49800048600020F8BDFF204530002183
:10E380002150FF212531204600F0FCF80546FF21F1
:10E390000931204600F0F6F80746FF2145312046B6
:10E3A00000F0F0F80646394631432943E9D02846C3
:10E3B000304306D100F0A0FB0B48C17D407E814276
:10E3C000DFD800210848002DC17501D00320F8BD19
:10E3D000002E01D00F20F8BD817E0120002901D040
:10E3E0002060C8E76060C6E73C24002000200040B1
:10E3F0000023004010B5034600F048F8002801D083
:10E40000112010BD034A002091759360908200F0A6
:10E4100003F810BD3C240020F8B50026194FFF2555
:10E420001D357E510120B86000F090FF164C6168E8
:10E43000002910D024E0FF2701372946114800F0B9
:10E44000A1F8002802D1A08AB842F6D1A08AB84229
:10E4500001D000F07BFFA08AA17D8842EBD3A18A86
:10E46000C81FF93801D10F2608E0064F2946384663
:10E4700000F088F80028F9D00120F8600020A0758D
:10E480003046F8BD002000403C2400200248807D3A
:10E49000002800D0012070473C24002030B55200F5
:10E4A0000A439900039C0A432102049D0A4329045C
:10E4B0000A43024980004018026030BD0007005046
:10E4C00030B552000A439900039C0A432102049D7F
:10E4D0000A4329040A43024980004018026030BD03
:10E4E0000007005030B552000A439900039C0A43CC
:10E4F0002102049D0A4329040A430249800040186E
:10E50000026030BD000700501CB500220B4600928F
:10E5100011460192FFF7D4FF1CBD1CB500210091EC
:10E520000B46012201911146FFF7CAFF1CBD1CB525
:10E53000002100910B46012201911146FFF7D2FF05
:10E540001CBD0000820006481018026803231B044B
:10E550009A430260026809040A430260704700009F
:10E5600000070050034940180068012800D000202F
:10E5700070470000006000400921C9014118086887
:10E58000086070474058002800D0012070470523DC
:10E590001B02C018816002617047032212028018BA
:10E5A0004068084000D00120704705231B02C018B6
:10E5B000C16042617047000008B500906946074895
:10E5C000FEF75EFA002801D0FDF7C2FF03481730BE
:10E5D00071DF002801D0FDF7BBFF08BDC02400207B
:10E5E00010B50446011D00881B283ED00DDC102804
:10E5F0002ED0132808D10023A0881A4685217FDF5A
:10E60000002801D0FDF7A4FF10BD1D2805D01F284C
:10E61000FAD10888091D75DFF2E7091D0C46164876
:10E62000FFF788FA0028EFD0134A20460832114637
:10E6300008318CDF0028E7D1FEF798FC002801D0D4
:10E64000FDF786FF072221460C48FCF785FD10BD2B
:10E650000720FEF78BFC002801D0FDF779FF074863
:10E66000A1881030FEF756F9CAE708790228EED1E2
:10E6700000F07AFA10BD0000FCFC0100D02400205C
:10E68000F3B583B0039E0C46FF360888A136718926
:10E69000884257D1B079462148430399471860888A
:10E6A00000283CD12046083001903D79207A281876
:10E6B000052800D905203871002013E000980A21B0
:10E6C000484301990A2241180C206843C01902905E
:10E6D000891C0A30FCF740FD0298002181820098D5
:10E6E0006D1C401C00903879A842E7D80C204543A7
:10E6F000E919CA88B1794623039859430818008953
:10E7000082420CD23879052809D07071218803988B
:10E71000FEF7FAFD010015D00020F07109E0002598
:10E720007571228869460398FEF7C0FF01000BD07F
:10E73000F57122880398FFF7B5F80A4803210170A4
:10E740002188418005B0F0BD684600780028F9D0E6
:10E75000228801210398FFF75FF82188039800F0D1
:10E7600097F8EFE7F4210020F3B581B0019D0C4646
:10E77000FF350888A1356989884240D1A8794621AA
:10E78000484301990C234218687921465843801860
:10E790000A30844660880831002812D11F4E0B8849
:10E7A0000DE0062747437F18BF88B74206D10623EE
:10E7B0005843401841886046418102E0401C834232
:10E7C000EFD800266846067068791179401C8842A7
:10E7D00003D101206946087016E0687122886946F5
:10E7E0000198FEF763FF01000AD0EE7122880198BC
:10E7F000FFF758F80A480321017021884180FEBDC7
:10E80000684600780028FAD0228801210198FFF795
:10E8100003F82188019800F03BF8FEBD02290000B2
:10E82000F421002070B50646FF360C460546A13699
:10E83000B0794621484341192288708982420AD121
:10E840006088002808D000212846FEF7E5FF2188CF
:10E85000284600F01DF870BD62890A80A2894A80AE
:10E86000E289CA80208A088121882846FEF74CFD6B
:10E870000100F0D00020F07122882846FFF712F83E
:10E880000248032101702188418070BDF4210020DD
:10E89000F8B50446FF340646A134207A0F46401CE2
:10E8A000C0B214492072C968002588421FD2657120
:10E8B000A0794621401CC0B241438A19A0710E497B
:10E8C0008000401801881180408850801571012116
:10E8D000384690DF010009D0E5713A463046FEF730
:10E8E000E1FF05480321183001704780F8BDE5714C
:10E8F000F7E70000E01E0020DC2100200349081893
:10E9000020214156C817401C70470000F423002006
:10E910000449081820214156042901DB01207047D1
:10E9200000207047F4230020044908182021415694
:10E93000042901D20120704700207047F4230020F1
:10E94000F7B582B006461446082803D90020C04314
:10E9500005B0F0BD70010830FDF704F80007000FA6
:10E96000012802D00420C043F2E7002C1BD0700124
:10E97000294900904018FCF7F5FF8006000CA042E2
:10E9800000D2044661210098C90040180190304629
:10E99000FEF7D8FF05460198FCF7E4FF172819D0C9
:10E9A0001C2803D010E00D20C043D1E7002D1DD15D
:10E9B0003046FEF7EDFF0746184900984018FCF76F
:10E9C000D1FF8002874205D13046FEF7BBFC06200E
:10E9D000C043BDE7124901204988B040084203D036
:10E9E000002D03D10020B3E7002DD0D0A54200D2E6
:10E9F0002C4622463046039900F0BEFE0098402186
:10EA0000FF3009300546FDF713F82846FCF7AAFF4A
:10EA10000028FAD120469BE7081E0000081F0000CE
:10EA2000701F0020064A002804D0002902D051613E
:10EA3000106170470348106103485061704700003F
:10EA4000881F00204DF801004BF8010010B5084A5E
:10EA500013889C05FDD5002804D0002902D0D1617F
:10EA6000906110BD034890610348D06110BD000063
:10EA7000881F002085FA010089FA0100F0B50C4BCF
:10EA800000210A4ADC680CE08D00AE18B678877861
:10EA9000BE4205D1555B0688B54201D15868F0BD2C
:10EAA000491CA142F0D30020F0BD0000DC21002071
:10EAB000E01E002070B501240B49600408600B497A
:10EAC00040108860094940398860094D6C602F20EA
:10EAD000FCF700FBAC60074D00242F202C61FCF7F5
:10EAE000F9FAEC7070BD000080E100E040130140D5
:10EAF000001001400C1F002030B50A48FF21C57DE1
:10EB00000022094C0931094B002D625007D0996948
:10EB1000437EC268D154417E491C417630BD98691C
:10EB200030BD00003C2400200020004000250040B3
:10EB30001FB501236A46137010720348019106C87D
:10EB4000684690471FBD00003C240020FF22054876
:10EB5000253200218150FF220932815001210160BC
:10EB6000704700000020004010B507488ADF0028E9
:10EB700001D0FDF7EDFC0120FEF7F8F9002801D0E7
:10EB8000FDF7E6FC10BD00000CFD0100014900206E
:10EB900070470000B01E002010B50121202804DAC3
:10EBA0000A461B4B82401A420AD000280ADA0207A2
:10EBB000120F083A9208174B9200D218D26906E059
:10EBC000154810BD8208154B9200D21812688307B1
:10EBD000DB0EDA409209042A10D2002A0ED0022A53
:10EBE0000CD00F4A5368002B0BD043099B00D4581C
:10EBF000C006C00E81400C43D45007E00648401CBC
:10EC000010BDC006C00E814006480160002010BD46
:10EC1000FC06FFBC00ED00E00120000000E400E085
:10EC2000441F002000E100E0F7B582B0074615461A
:10EC3000082803D90020C04305B0F0BD78010124A5
:10EC40000830FCF78FFE0007000F012801D0A01F3D
:10EC5000F2E7002D0DD061207E01C0003018009039
:10EC6000FCF780FE172807D01C2805D00620C043DB
:10EC7000E2E70D20C043DFE72C48BC408088044217
:10EC800011D04120C00030180190FCF76BFEC00687
:10EC9000C00EC1061FD510210198FCF7C9FE2348FC
:10ECA0008188A143818022483018FCF75BFE8006F2
:10ECB000000C854200D905463846FEF769FE0190F2
:10ECC0000098FCF74FFE17280DD01C280BD03846B3
:10ECD000FEF738FBCAE700070CD53846FEF732FBD3
:10ECE0000C20C043A8E711484088044204D0019892
:10ECF000854201D900209FE701988542DCD82A4649
:10ED00003846039900F062FD3046FF300930064670
:10ED10002021FCF78DFE3046FCF724FE0028FAD1B6
:10ED2000024881880C438480284685E7701F0020B4
:10ED3000081F0000F8B505460E4617461C46082871
:10ED400002D90020C043F8BD012E06D0022E0DD0FE
:10ED5000042E0BD00420C043F8BD0F2004226946C6
:10ED60000002FCF72BFE0098002809D03348610709
:10ED7000F2D4002C13D0012E05D0022E0FD106E0C4
:10ED80000220C043F8BD21210C42FBD007E0A106C0
:10ED900001D52106F6D5E10601D52106F2D5284692
:10EDA000FEF7D0FA21096801090108303143FCF768
:10EDB0003FFE002F0AD12248224A0788791C89B2D7
:10EDC0000180914202D103218903018081206E01DB
:10EDD000C000390A3018FCF72BFEA120C000F9B2A0
:10EDE0003018FCF725FE3046FF3009300746012178
:10EDF000FCF71EFE3846FCF7B5FD0028FAD10120CD
:10EE0000A8400F49E3074A88DB0F8243AB40134316
:10EE10004B808A8882438A800B4A002069005052C6
:10EE20000749891D48556120C00034182046FCF769
:10EE300099FD0028FAD068B2F8BD0000FAFFFFFF84
:10EE4000701F0020F0FF000098280020002803D049
:10EE50000249C860002070470E207047301F002014
:10EE600008B502490091694660DF08BDB01E002068
:10EE700070B50E460546144614211046FCF785F978
:10EE80000120002120802161217326726572002DEE
:10EE900000D0A072002070BD10B5FDF74DFB10BD75
:10EEA00070B5002901D08C0701D0072070BD074C38
:10EEB0000125A16062800649636010DF0028F5D15A
:10EEC00025701620FFF768FE70BD0000301F00207F
:10EED00099EE01001CB5044903C9019100906946EF
:10EEE000002000F003F81CBD38FD0100FEB5064609
:10EEF0000C46012801D90020FEBD0620214970439F
:10EF0000401806222146FCF727F9A078FFF70FFBEF
:10EF1000E078FFF70CFB0025207900952B462A4668
:10EF200029460195FFF7DEFA6079FFF700FB1648E6
:10EF3000B100465805221202A378B618B3604658AD
:10EF4000E378B618F36046582379B61833616379CD
:10EF5000012637469F400D4B9F60637847581B063C
:10EF6000BF187B62237844581527BF01E4196361F9
:10EF70004358FF3301339D6043589A181660405838
:10EF8000FEBD00008C280020681F002000050050F6
:10EF9000F0B5002A10D0144B800018581B1F1860C1
:10EFA000FF24002309342350052424020519EB61B2
:10EFB0000419C61DF93609E00020F0BDE361B76809
:10EFC000002FFCD0B360A7691770521C491E0904BA
:10EFD000090CF3D1FF30013081680029FCD0A86909
:10EFE00010700120F0BD0000681F0020F0B5002A5D
:10EFF00012D0144B800018581B1F1860FF240023E8
:10F000000934235016780524521C24020519EE6198
:10F010000419C61DF93609E00020F0BD1778521C0E
:10F02000E761B768002FFCD0B360A769491E0904E7
:10F03000090CF3D1FF30013081680029FCD0A869A8
:10F040000120F0BD681F00203EB56520244CC000A3
:10F05000FCF788FC002832D0132811D01C282DD1B1
:10F06000012120A0FCF746FD0120FEF793FB0128BB
:10F0700003D001211FA0FCF73DFD012123A02BE0BF
:10F08000274C6D46E01C8178C278A3680EC5437892
:10F090000278012123A0FCF72DFD2089E11C82B21A
:10F0A0000120FEF7DBF9012803D0012128A0FCF79D
:10F0B00021FD0B222DA10120FFF7B6FD3EBD012051
:10F0C000FEF740F90121224600230846FFF732FEF1
:10F0D0000128F3D0012128A0FCF70CFD3EBD000063
:10F0E00050C3000025643A436C6F736557616974BF
:10F0F0000D0A000025643A536F636B657420436CFE
:10F100006F736564204661696C0D0A0025643A538B
:10F110006F636B657420436C6F7365640D0A000048
:10F12000B01E002025643A54727920746F20636FFA
:10F130006E6E65637420746F207468652025642E7C
:10F1400025642E25642E2564203A2025640D0A00AE
:10F1500025643A536F636B657420436F6E6E65630D
:10F1600074204661696C0D0A00000000636F6E6ECA
:10F1700065637465640D0A0025643A536F636B65BB
:10F1800074204F70656E204661696C0D0A000000A6
:10F19000F0B5184B00259D440120FEF7D3FB002855
:10F1A00010D00121C902884200D30846044682B229
:10F1B00001AF39460120FFF7C3FB002816DA012012
:10F1C000FEF7C0F80B4B5B429D44F0BD142C01D2FE
:10F1D000264600E0142678190090B2B2064800993D
:10F1E000FDF702FD0028F8D1A41BAD19002CEDD1CC
:10F1F000E8E70000FCF7FFFFC0240020FEB51E4C2E
:10F2000000252769E06802906846FEF761FB0190DF
:10F21000FEF70EFD0646019800281FD00023009837
:10F22000E16817E00E680A46864202D9301A086083
:10F2300012E0801BF31800261660D668D169B44628
:10F24000002E07D0FE183602360A566066469660D3
:10F25000D56115460029E5D10126E1602846FEF773
:10F2600045FD002801D1002E02D00298FEF7A2F839
:10F2700000202071FEBD00000C1F0020012002496B
:10F28000000508607047000000E200E010B50E4B7A
:10F29000D968002906D002680C68A24204D8A21AD4
:10F2A0000A60C161D86010BD0B4604E00B46C96915
:10F2B000121B002904D00C689442F7D3A41A0C60E6
:10F2C0000260C161D86110BD0C1F0020F8B51D4D52
:10F2D000EC68002C34D01C48002740682969401A8B
:10F2E0000602360A2068B04218D8361AC7192246D4
:10F2F000107CE46900280FD0002010746B69002B8B
:10F3000007D0916950699847002805D0FDF720F98A
:10F3100002E0516990698847002CE3D16978A878A8
:10F32000814206D1401CC0B2A870022801D1002041
:10F33000A87004490006800D18310F50FFF79EFF9A
:10F34000F8BD00000C1F002000150140FF210748F8
:10F350001D31002242500648828A8168895C828A77
:10F36000521C82820348C1617047000000200040A7
:10F370003C240020002500401FB500216A46117082
:10F380001072044882680192817506C868469047E9
:10F390001FBD00003C24002070B50178002907D073
:10F3A000012901D0022902D14068FDF7D1F870BDD2
:10F3B0000D4C0C4D60782818FDF7C6F96078401C9C
:10F3C000C0B2291860702039C97F0A2901D01428D9
:10F3D000EDD3627803490548FDF706FC0028F8D113
:10F3E000607070BD10200020B01E0020C0240020DE
:10F3F0007CB50178284D01290AD002292FD0002997
:10F400002CD129462548FDF7AFF8002833D036E047
:10F410004068017821481038FDF7C3F81F4C103CB4
:10F42000002805D001216A4611700190684608E065
:10F43000A068E168081A012805D100206946087013
:10F44000684669688847A068E168081AA188884208
:10F4500004D811480121401CFEF74CFF7CBD02215D
:10F460006A461170C06801900B480121401CFEF7EC
:10F4700041FF68460CE001210748FEF7BBFF074843
:10F480008168C068401AE9D103206946087068465F
:10F49000696888477CBD0000F01E0020E42300203E
:10F4A00010B50D4C88B01CCC059304920B4A009209
:10F4B000FF22013206940A4B0192029303920B46FB
:10F4C0000246694604A8FDF759F9002801D0FDF766
:10F4D0003FF808B010BD00001CFD01008C26002084
:10F4E0008C270020F0B5454D012185B04902284602
:10F4F000FFF753F801270026414C002824D0FF21B4
:10F5000025312846FFF73EF800281DD0FF21253180
:10F5100028466E5081213B4A89009160A17E0029D6
:10F5200000D14760022269460A70FFF725F8039070
:10F53000E07D69460872E0680190E67526766268AB
:10F540006846216890472BE004212846FFF725F8FC
:10F55000002825D0FF2109312846FFF713F800289D
:10F560001ED0FFF7C9FAE07D617E884218D1207E67
:10F57000002808D0627EE168E0752069E0602676A8
:10F58000667610460AE0A07E002800D16F608120D8
:10F590001C4980008860E675607EE168FFF7C8FA64
:10F5A000FF211D312846FEF7EDFF00280DD0A18A6E
:10F5B000A07D814202D2FFF7C9FE06E0FF211D3186
:10F5C0006E50002801D0FFF7D7FEFF2145312846B5
:10F5D000FEF7D8FF00280ED0FF2045302E50A07E29
:10F5E000002800D02F60E07D002804D0E675607E02
:10F5F000E168FFF79DFA05B0F0BD00000020004073
:10F600003C2400200023004000B51C4B87B00FCBEA
:10F61000049301AB07C31A491A48FFF703FA1A49C2
:10F620001A48FFF713FA1AA0FCF764FA01A901209F
:10F63000FDF7B8FF401C09D01AA0FCF75BFA694639
:10F640000F20FDF7AFFF401C04D006E01DA0FCF723
:10F6500051FAFEE722A0FCF74DFA68460078002830
:10F66000EDD00121684601757D21C900C18205A840
:10F6700000F0F4F9FEF730FC07B000BD28FD0100F2
:10F6800051F80100B5F90100FFFA0100A1F90100EC
:10F690005735353030206D656D6F727920696E6930
:10F6A000740D0A00573535303020504859204C69C8
:10F6B0006E6B2053746174757320436865636B0DC2
:10F6C0000A00000057495A4348495020496E69745E
:10F6D00069616C697A6564206661696C2E0D0A0047
:10F6E000556E6B6E6F776E20504859204C696E6B6B
:10F6F000207374617574732E0D0A0000EFF305809A
:10F70000C005C00D1AD0103840B2002808DA010731
:10F71000090F083989080C4A89008918C96904E069
:10F7200081080A4A8900891809688007C00EC1400B
:10F730008804000E012803D0032803D0022070475C
:10F74000002070470120704700ED00E000E400E079
:10F7500042788378521CD2B2934200D100220378BF
:10F76000934201D1002070470A7041684078182206
:10F770005043081870470000F7B582B016001ED03D
:10F780004401104820180090FCF7ECF805020E48E0
:10F7900027183846FCF7E6F8281885B22802001921
:10F7A000183032460399FCF709F9A81984B2210AE6
:10F7B0000098FCF73DF9E1B23846FCF739F905B09D
:10F7C000F0BD00000828000008290000F7B582B04D
:10F7D00016001ED04401104820180090FCF7C2F813
:10F7E00005020E4827183846FCF7BCF8281885B2E1
:10F7F00028020019103032460399FCF745F9A81980
:10F8000084B2210A0098FCF713F9E1B23846FCF7FC
:10F810000FF905B0F0BD0000082400000825000025
:10F82000007870470170704710B5C1B2040A090929
:10F83000152009010002FCF7FBF817202146000201
:10F84000FCF7F6F810BD704770477047704700002E
:10F850000120024900068860704700000005005042
:10F8600010B515200002FCF77DF8040917202401CB
:10F870000002FCF777F80002001980B210BD10B545
:10F880000B204002FCF76EF804460320C002FCF790
:10F8900069F80002001980B210BD000010B50446DE
:10F8A0000146092006220002FCF788F804222146BE
:10F8B0000E319001FCF782F82146052004220A311E
:10F8C0000002FCF77BF80F200422A11D0002FCF7C8
:10F8D00075F807480178A1744178E1748178217541
:10F8E000C07860750248401E0078A07510BD000009
:10F8F000811F002010B50020FCF734F810BD70B552
:10F9000004461B200002FCF72DF82070192000028D
:10F91000FCF728F805020D204002FCF723F8281810
:10F92000608070BDF8B50D460646002400F0ADF8C5
:10F93000002E14D00022B05C001944B2102C17DC49
:10F94000521C52B2082AF6DB134F00246001315DCD
:10F95000C019FCF76DF8641C64B2082CF6DB002DAE
:10F9600018D0002108462A5C511849B2102902DD3E
:10F970000020C043F8BD401C40B20828F3DB074E0E
:10F9800000246001295D8019FCF752F8641C64B200
:10F99000082CF6DB0020F8BD081F0000081E000040
:10F9A00008B56A4601210020FFF7F2FA68460078A0
:10F9B00008BD0000012002490006C8607047000031
:10F9C0000005005010B5C1B2040A0B204002FCF73C
:10F9D0002FF803202146C002FCF72AF810BD0000D2
:10F9E00010B504460146092006220002FCF74CF837
:10F9F000042221460E319001FCF746F821460520ED
:10FA000004220A310002FCF73FF80F200422A11D56
:10FA10000002FCF739F80748A17C0170E17C4170D5
:10FA2000217D8170617DC1700249A07D491E0870F1
:10FA300010BD0000811F002010B50446C5200442FF
:10FA400002D00020C04310BD0020FBF78BFF2043F5
:10FA500001460020FBF7ECFF002010BD10B5044666
:10FA600001781B200002FBF7E3FF6088010A1920E0
:10FA70000002FBF7DDFFA078C1B20D204002FBF7CA
:10FA8000D7FF10BD002070477047F0B5092485B03E
:10FA90002402062269462046FBF790FF04229501C6
:10FAA00002A92846FBF78AFF05263602042203A98D
:10FAB0003046FBF783FF0F273F02042204A9384694
:10FAC000FBF77CFF80210020FBF7B2FF0020FBF753
:10FAD00049FF062269462046FBF7D6FF042202A909
:10FAE0002846FBF7D1FF042203A93046FBF7CCFFE1
:10FAF000042204A93846FBF7C7FF05B0F0BD01B5E5
:10FB00006A4601210020FFF771FA08BD10B50446CE
:10FB100017204002FBF726FF4106C90F217038214C
:10FB2000084001220021202811D038280FD0617010
:10FB300010280ED018280CD020280AD0A170082830
:10FB400009D0182807D0202805D0E17010BD6270B8
:10FB5000EEE7A270F3E7E27010BD10B51720400287
:10FB6000FBF700FFC00700D0012010BD10B5172023
:10FB700000244002FBF7F6FE8006800F00D001242F
:10FB8000204610BD10B5172464022046FBF7EAFE9C
:10FB90004106490E2046FBF74BFF2046FBF7E2FEED
:10FBA000802101432046FBF743FF10BD10B50278CA
:10FBB0000021012A00D140214278012A06D0C278D2
:10FBC0008078012A04D0012808D009E0382006E016
:10FBD000012801D0082002E0182000E01020014395
:10FBE00017204002FBF724FFFFF7CCFF10BD0000F9
:10FBF00070B5172504466D022846FBF7B3FE104E7C
:10FC000041061AD5C7210840012C11D038210143E3
:10FC10002846FBF70DFFFFF7B5FF2846FBF7A2FECE
:10FC2000012C07D08006400F002806D0002070BDB0
:10FC30003021ECE78006800FF6E7304670BD00000B
:10FC4000FFFFFFFFB01F0020D01F0020F01F00208B
:10FC50007021002090210020BC2100201100000014
:10FC60001200000013000000140000001100030047
:10FC700015CE01001200030015CE01001300030091
:10FC800015CE01001400030015CE01009ECADC242D
:10FC90000EE5A9E093F3A3B50000406E010100005A
:10FCA000000002000000000002010000000000004F
:10FCB00000000000090000000B0000000A00000026
:10FCC00008000000000000000000000000E0D70174
:10FCD00003000000090000000B0000000A00000003
:10FCE00008000000000000000000000000E0D70154
:10FCF000030000005824002003000000010002005F
:10FD00000100000710003C0000009001010000000D
:10FD100000000000A0005000000000000B09FFFFE1
:10FD20000000000000E0D70102020202020202020B
:10FD3000020202020202020206801D191C180000C3
:10FD400060FD0100B01E00200001000084BB010026
:10FD500060FE0100B01F0020F810000094BB0100FD
:10FD6000000000C0A801210088130000000000006E
:10FD70000000000000000000000000000000000083
:10FD80000000000000000000000000000024F4005B
:10FD90000000000000000000000000000000000063
:10FDA0000000000000000000000000000000000053
:10FDB0000000000000000000000000000000000043
:10FDC0000000000000000000000000000000000033
:10FDD0000000000000000000000000000000000023
:10FDE0000000000000000000000000000000000013
:10FDF0000000000000000000000000000008DC001F
:10FE0000ABCDC0A801E1FFFFFF00C0A801010808B9
:10FE100008080200000000000030004000400040E0
:10FE200000C0000000000000000000000000000012
:10FE3000000000000000000001025735353030009E
:10FE400047F8010049F801004DF801004BF80100A6
:10FE500021F8010025F8010000000000000000006A
:040000050001B0C185
:00000001FF
