:020000040001F9
:10C00000E04800208DC4010095C4010097C40100E0
:10C0100099C401009BC401009DC401000000000000
:10C020000000000000000000000000009FC40100AC
:10C03000A1C4010000000000A3C40100A5C40100C8
:10C04000A7C40100A7C40100E1CE010015CC010086
:10C05000A7C40100A7C4010045CA0100A7C401008C
:10C06000A7C40100A7C40100A7C40100A7C4010020
:10C07000A7C40100A7C40100A7C40100A7C4010010
:10C08000A7C40100F1CB0100A7C40100A7C40100AF
:10C090004DCC0100A7C4010051CC0100A7C4010090
:10C0A000A7C40100A7C40100A7C40100A7C40100E0
:10C0B000A7C40100A7C401000000000000000000A8
:10C0C000A7C40100A7C40100A7C40100A7C40100C0
:10C0D000A7C40100A7C40100A7C40100000000001C
:10C0E0000000000000000000000000000000000050
:10C0F0000000000000000000000000000000000040
:10C10000000000000000000000000000000000002F
:10C11000000000000000000000000000000000001F
:10C40000DFF80CD000F07EFA004800474DF3010041
:10C41000E0480020401E00BF00BF00BF00BF00BFBB
:10C4200000BF00BF00BF00BF00BF00BF00BF00BF14
:10C4300000BF00BF00BF00BF00BF00BF00BF00BF04
:10C4400000BF00BF00BF00BF00BF00BF00BF00BFF4
:10C4500000BF00BF00BF00BF00BF00BF00BF00BFE4
:10C4600000BF00BF00BF00BF00BF00BF00BF00BFD4
:10C4700000BF00BF00BF00BF00BF00BF00BF00BFC4
:10C4800000BF00BF00BFC5D170470000064880470D
:10C4900006480047FEE7FEE7FEE7FEE7FEE7FEE7A9
:10C4A000FEE7FEE7FEE7FEE775CC010001C40100F0
:10C4B00040EA01039B0703D009E008C9121F08C026
:10C4C000042AFAD203E011F8013B00F8013B521EA6
:10C4D000F9D27047D2B201E000F8012B491EFBD21D
:10C4E00070470022F6E710B513460A46044619467F
:10C4F000FFF7F0FF204610BD421C10F8011B002979
:10C50000FBD1801A704730B50B460146002020222F
:10C51000012409E021FA02F59D4205D303FA02F550
:10C52000491B04FA02F52844151EA2F10102F1DCB0
:10C5300030BD2DE9F05F0546002092469B468846B7
:10C540000646814640241BE028464146474622468F
:10C5500000F0F9F953465A46C01A914110D31146DA
:10C560001846224600F0E0F92D1A67EB01084F4605
:10C5700022460120002100F0D7F917EB00094E41B7
:10C58000201EA4F10104DFDC484631462A4643461A
:10C59000BDE8F09F2DE9FE4F804681EA0300C00F01
:10C5A0000C46009021F0004123F00045B8EB02005A
:10C5B000A94105D24046214690461C460B460246FC
:10C5C00023F00040104347D0270DC7F30A00C3F300
:10C5D0000A510290401A019040286BDAC3F313000D
:10C5E00040F4801B0098924620B10023D2EB030A4E
:10C5F00063EB0B0B01985946C0F14002504600F026
:10C6000093F906460D4650465946019A00F0ABF99B
:10C6100010EB08006141002487EA115284EAE773B5
:10C620001A4340D0009A62B3019A012A4FEA075296
:10C6300015DC001B61EB02014FF0004202EA0752D9
:10C64000CDE90042001C41F5801132462B4600F036
:10C65000ABF903B0BDE8F08F40462146F9E7001B77
:10C6600061EB0201001C41F5801300185B412018AA
:10C67000A2F5001747EB030140EAD570B6196D41EA
:10C6800011E06D084FEA360645EAC0754FEA0752D9
:10C69000001B61EB0201001C41F5801149084FEAC3
:10C6A00030000019514132462B4603B0BDE8F04F2F
:10C6B00000F06BB90098012240000023D0EB020289
:10C6C00063EBE073009821464FEAE074B8EB00009A
:10C6D00061EB0401E9E783F000435BE781F000418F
:10C6E00058E72DE9FE4F81EA030404F0004421F0ED
:10C6F000004100944FF0000B23F0004350EA010486
:10C700005ED052EA03045BD0C3F30A54C1F30A5566
:10C710002C44A4F2F3340194A0FB0254C1F313019E
:10C7200041F48011C3F3130343F4801301FB02446B
:10C7300000FB034E840A970A44EA815447EA835770
:10C74000A4FB076802958D0A05FB07854FEA932C29
:10C7500004FB0C542705029D4FEA065847EA16379A
:10C76000B5EB08056EEB070C870E920E47EA8117B2
:10C7700042EA8312A7FB0201B6EB0B0164EB000453
:10C780002B0D43EA0C335E1844EB1C50DA4651463D
:10C79000E7FB0201C5F313044FEA0B3343EA1453DA
:10C7A0004FEA0432019C43EA0603A4F10C0402940C
:10C7B000009CCDE900B400F0F7F803B0BDE8F08FBD
:10C7C00000200146F9E72DE9F04D81EA030404F069
:10C7D000004B21F0004514464FF0000A23F00041C1
:10C7E00050EA050220D054EA01021DD0C5F30A57D1
:10C7F0000246C5F31303C1F31300C1F30A5640F414
:10C80000801543F48013A7EB0608101BD64608F2E8
:10C81000FD3873EB050002D308F1010801E092181E
:10C820005B41B8F1000F03DA00200146BDE8F08D4E
:10C8300000204FF48011064684460EE0171B73EB70
:10C84000050705D3121B63EB050306434CEA010CF5
:10C8500049084FEA300092185B4150EA0107EDD1D8
:10C8600052EA030012D082EA040083EA0501084379
:10C8700005D0101BAB4106D20122002306E00022A6
:10C880004FF0004302E06FF0010253101AEB060074
:10C890004CEB085110EB0A0041EB0B01BDE8F04DE9
:10C8A00000F073B8C1F30A52C1F3130140F2FF3331
:10C8B00041F480119A4202DA00200146704740F2AA
:10C8C00033439A42A2F2334202DC524200F03BB8B8
:10C8D00000F02AB830B5041E71F1000404DB4FF0FB
:10C8E0000044404264EB0101141E73F1000405DBB7
:10C8F0001C464FF00043524263EB0403994208BFC9
:10C90000904230BD064C074D06E0E06840F0010360
:10C9100094E8070098471034AC42F6D3FFF774FD53
:10C92000D8140200F8140200202A04DB203A00FA8E
:10C9300002F1002070479140C2F1200320FA03F376
:10C94000194390407047202A04DB203A21FA02F074
:10C950000021704721FA02F3D040C2F12002914039
:10C96000084319467047202A06DBCB17203A41FAC4
:10C9700002F043EAE07306E041FA02F3D040C2F16C
:10C980002002914008431946704710B5141E73F1F8
:10C99000000408DA401C41F1000192185B411A437F
:10C9A00001D120F0010010BD2DE9F04D92469B46CB
:10C9B00011B1B1FA81F202E0B0FA80F22032904671
:10C9C000FFF7B2FF04460F4640EA0A0041EA0B01B6
:10C9D00053465A46084313D0114653EA010019D072
:10C9E000C8F140025046FFF7AEFF05460E465046DE
:10C9F00059464246FFF798FF084305D0012004E05E
:10CA000020463946BDE8F08D0020054346EAE07631
:10CA10002C4337430A986305E40AA0EB0800002280
:10CA2000FD0A44EA47540A3002D500200146E9E7EE
:10CA3000010510196941DDE9084500196941BDE8A2
:10CA4000F04DA2E72DE9FC5F0025DFF83491A84600
:10CA50004FF4807601242F46304603F0D3F838B1E6
:10CA6000D9F80403204203D0304603F0C1F825432F
:10CA7000361D64007F1CB6B2082FEDD34FF4BE7490
:10CA8000204603F0BFF838B1204603F0B1F83D4826
:10CA900045F00045D0F800803B4E15F0FF0F14D054
:10CAA000012700242F420CD009EB8401D1F8100596
:10CAB000D1F81015C0F3042056F82420C1F3014129
:10CAC00090477F00641C082CECD3002D56DA002020
:10CAD0000190401E4CE0701910F8501F90F90000B2
:10CAE00021F0C004401C38D0012000FA04FA1AEAF0
:10CAF000090F32D04FEA911B204601F0C5FE56F8CF
:10CB00002000009010B9BBF1030F26D15146BBF1B4
:10CB1000030F02D1019808430190A00000F1A0404A
:10CB2000D0F800071AEA080FC0F3014002D002282B
:10CB300002D012E0032810D1BBF1030F07D1022865
:10CB40001AD00221204603F03DF87F1CFFB2009866
:10CB500018B1009A5946204690476D1C042DBAD34F
:10CB6000002F0BD007480068404507D08046019849
:10CB7000002781463D46AEE70321E3E7BDE8FC9F81
:10CB80000060004010050050EC23002000F01F0260
:10CB9000012191404009800000F1E020C0F880129E
:10CBA000704700F01F02012191404009800000F110
:10CBB000E020C0F80011704700F01F0201219140F1
:10CBC0004009800000F1E020C0F8001270474907DA
:10CBD000090E002806DA00F00F0000F1E02080F8CE
:10CBE000141D704700F1E02080F800147047000029
:10CBF00007480021C0F84011C0F84411C0F848119E
:10CC0000C0F84C11C0F80011C0F8041103F0A6BE22
:10CC10000010014070B50C480A4C0025C0F80851BE
:10CC2000214603F0DDFE00280BD1A07EFF2801D0B5
:10CC300002F0D6FF65762571201D2168BDE87040A1
:10CC4000084770BD642400200030004003F022BE7D
:10CC5000074810B5406830B18047002807D0BDE8CC
:10CC6000104000F01FBFBDE8104002F0D3B910BD66
:10CC70002C1F002070B58D480023021D0178101D67
:10CC80000124062907D115782D0704D10578C5F3AD
:10CC90000315032D02D0062904D00FE0854E844DE4
:10CCA00075670EE015782D0708D10578C5F30315D3
:10CCB000032D06D0042D04D0052D02D0062909D05D
:10CCC00010E04FF08055D5F844527B4EC5F3423505
:10CCD000356002E015782D0704D10578C5F30315FA
:10CCE000032D02D0062906D011E0744D2E6826F0DF
:10CCF00080762E600EE015782D0708D10578C5F3F3
:10CD00000315032D06D0042D04D0052D02D00629CD
:10CD10000AD011E04FF08045C5F80C31C5F810314C
:10CD2000654D2D1F2B6002E015782D0704D1057885
:10CD3000C5F30315032D02D0062905D00CE05E4A89
:10CD40000321643211600AE015782D0704D10578BB
:10CD5000C5F30315032D02D006290DD06AE0584A09
:10CD600005211160564978310C60554908310B6036
:10CD70003F21121D116002E0117809075AD1007895
:10CD8000C0F30310052855D14E4800684E4908608D
:10CD90004C48001D0068091D08604A4808300068BA
:10CDA000091D086047480C300068091D08604548A7
:10CDB00010300068091D0860424814300068091DE1
:10CDC00008604048183000683F49203108603D48FD
:10CDD0001C300068091D08603A4820300068091DB1
:10CDE0000860384824300068091D0860354828303C
:10CDF0000068091D086033482C300068091D086070
:10CE00003048303000683049403108602D483430B7
:10CE10000068091D08602B4838300068091D08604B
:10CE200028483C300068091D0860264840300068EA
:10CE3000091D086021487438016841F470010160DF
:10CE4000BFF34F8FBFF36F8F4FF01021D1F8000267
:10CE5000002803DBD1F80402002822DA1B4A146000
:10CE60001B480468002CFCD01524C1F8004205685A
:10CE7000002DFCD0C1F8044201680029FCD01360E9
:10CE800001680029FCD0BFF34F8F0C48F0380168CF
:10CE9000104A01F4E06111430160BFF34F8F00BFFE
:10CEA000FDE70E490C48086070BD0000E00F00F07F
:10CEB0000DF0ADBA00C007403C050040FCED00E0BD
:10CEC000105600400404001020C5004004E5014055
:10CED00000E401400400FA050090D003A41F0020E4
:10CEE0000348007F08B103F0EDBE03F067BE000009
:10CEF00044240020F8B5144C0546A06880472069FA
:10CF00008047216AC5F30740C5F3072699B1626AD5
:10CF10008AB18DF800008DF801608DF80250032170
:10CF200068469047A0698047054660698047E06889
:10CF300080472846F8BDE1698847E169304688475F
:10CF4000E169E8B28847EDE77C1F00202DE9F8434E
:10CF50001A4C05461746A0688846804720698047D6
:10CF6000216AC5F30740C5F30726A1B1626A92B1F1
:10CF70008DF800008DF801608DF80250032168469D
:10CF80009047226A39464046904760698047E0688A
:10CF90008047BDE8F883E1698847E1693046884702
:10CFA000E169E8B28847002505E0A069804708F8F4
:10CFB00005006D1CADB2BD42F7D3E6E77C1F002033
:10CFC000F8B5164C05460E46A06880472069804794
:10CFD000626A45F004058AB1280C8DF80000280A21
:10CFE0008DF801008DF802508DF803600421684629
:10CFF000904760698047E0688047F8BDE169C5F304
:10D0000007408847E169C5F307208847E169E8B22E
:10D010008847E16930468847EBE700007C1F002025
:10D02000F8B51A4C05461646A0680F468047206999
:10D030008047626A45F004059AB1280C8DF800001B
:10D04000280A8DF801008DF80250032168469047A8
:10D05000626A31463846904760698047E068804799
:10D06000F8BDE169C5F307408847E169C5F30720CA
:10D070008847E169E8B28847002504E0E169785D06
:10D0800088476D1CADB2B542F8D3E5E77C1F0020A0
:10D090000FB4054B10B503A9044A029800F0DEF85E
:10D0A00010BC5DF814FB000017EF0100281F0020E2
:10D0B0000FB4084B10B504A902AA039800F0CEF8EB
:10D0C000044602A9002000F060FC204610BC5DF878
:10D0D00014FB00008BD9010002E008C8121F08C130
:10D0E000002AFAD170477047002001E001C1121FE9
:10D0F000002AFBD1704700002DE9FF5FDDE9022027
:10D10000010DDDF838B0024318D044F61050A1F2FA
:10D11000FF3141430D140F98012820D0A5EB0B00DF
:10D12000401C5FEA000A4FF00004474EDFF81C91F4
:10D13000A046504616D5CAF1000728E00F980124F2
:10D1400043A2012808D0002100980F9BC0E90021CC
:10D15000C0E90243BDE8FF9F6FEA0B01F4E7CBF1A2
:10D160000000DEE7074612E0F80707D02246334604
:10D1700040464946FFF7B5FA80468946224633467F
:10D1800010461946FFF7ADFA04460E467F10002FF1
:10D19000EAD1DDE90201BAF1000F42464B4602DA5C
:10D1A000FFF79FFA01E0FFF70EFB04460E46002250
:10D1B000284BFFF78FFB03D84FF0FF30014607E005
:10D1C0000022254B20463146FFF7E4F9FFF76AFBC2
:10D1D000102409E0002C0ADB0A220023FFF7A9F93A
:10D1E000019B30321A55641E50EA0102F2D1641CD0
:10D1F000019AC4F1110314440F9A012A03D00122A9
:10D2000008430DD10AE0084304D000204FF0110B71
:10D210000F9080E7A3EB0B056D1E0DE05B4504DD71
:10D220004FF0000205F1010504E003DA4FF00002BF
:10D23000A5F10105002AECD000980F99C0E9023150
:10D24000C0E9004586E70000000024400000F03FF0
:10D25000300000000000F0430000E03F2DE9FF4FE8
:10D2600095B09B468946064600250FE2252877D1D2
:10D2700000242746F84A0121059400E0044316F8EB
:10D28000013F203B01FA03F01042F7D130782A2801
:10D2900011D06FF02F033078A0F13002092A16D890
:10D2A000059A44F0020402EB820203EB42021044AE
:10D2B000761C0590EFE759F8042B0592002A03DA53
:10D2C000504244F40054059044F00204761C307837
:10D2D0002E2816D116F8010F44F004042A280DD088
:10D2E0006FF02F023078A0F13003092B09D807EB3B
:10D2F000870302EB4303C718761CF3E759F8047B56
:10D30000761C30786C280FD006DC4C2817D06828A3
:10D310000DD06A2814D104E0742810D07A280FD1D7
:10D320000DE044F400140AE044F4801401E044F4F5
:10D3300040147278824202D104F58014761C761C67
:10D34000307866280BD013DC582877D009DC002809
:10D3500075D04528F6D04628F4D047281AD19DE14B
:10D3600018E0632835D0642879D0652812D195E17A
:10D37000702873D008DC6728F1D069286FD06E2838
:10D380000DD06F2806D1B5E073282CD0752875D044
:10D39000782874D05A46179990476D1C75E1C4F3EC
:10D3A0000250022809D003280DD0D9F80010042813
:10D3B0000DD00D6009F1040967E1D9F80010EA17F2
:10D3C000C1E90052F6E7D9F800100D80F2E70D70C0
:10D3D000F0E719F8041B8DF8001000208DF801000B
:10D3E000EA46012003E059F804AB4FF0FF30610733
:10D3F0004FF0000102D40DE008F101018846B94266
:10D400000FDA8045F8DB1AF808100029F4D108E09B
:10D4100008F1010188468142FADB1AF80810002958
:10D42000F6D105985B46A0EB080721463846179AC7
:10D4300000F094FA284400EB080507E04DE029E1EC
:10D440000DE01AF8010B5A4617999047B8F10108F8
:10D45000F7D25B4621463846179A13E142E00A228A
:10D460000092C4F302524FF0000A022A08D059F881
:10D4700004CB032A4FEAEC710AD00DE029E02AE040
:10D4800009F1070121F00702F2E802C1914609E023
:10D490000FFA8CFC4FEAEC71042A03D14FFA8CFC92
:10D4A0004FEAEC71002907DA0A460021DCF1000C92
:10D4B00061EB02012D2202E0220504D52B228DF81A
:10D4C0000420012203E0E20701D02022F7E7904682
:10D4D00059E00A2102E010220DE010214FF0000A6D
:10D4E00000910BE010224FF0000A44F004040827DA
:10D4F000009203E008224FF0000A0092C4F30252A7
:10D50000022A05D059F804CB0021032A08D009E0EB
:10D5100009F1070121F00702F2E802C1914605E096
:10D520001FFA8CFC042A01D10CF0FF0C4FF000080C
:10D53000220728D5702806D0009B83F0100353EAF9
:10D540000A0305D00EE040228DF80420012208E0F5
:10D550005CEA010206D030228DF804208DF8050027
:10D5600002229046009B83F0080353EA0A030AD183
:10D570005CEA010201D1620705D530228DF8042052
:10D580004FF001087F1E582804D034A003900EA845
:10D5900002900DE036A0F9E753466046009AFEF788
:10D5A000C8FF84460398825C0298401E0290027075
:10D5B0005CEA0100F0D1029806A9081A00F1200ADD
:10D5C000600702D524F4803400E00127574502DDCE
:10D5D000A7EB0A0000E0002000EB0A01009005988C
:10D5E0004144401A0590E00306D45B462146179A51
:10D5F000059800F0B3F90544002706E001A85A4653
:10D60000C05D179990476D1C7F1C4745F6DBE00312
:10D610000CD55B462146179A059800F09FF9054402
:10D6200004E030205A46179990476D1C0099481E17
:10D6300000900029F5DC08E0029802995A4600782B
:10D64000491C0291179990476D1CBAF10001AAF18B
:10D65000010AF1DC65E100000928010030313233B4
:10D66000343536373839616263646566000000001E
:10D670003031323334353637383941424344454608
:10D680000000000000F058F90544761C30780028AE
:10D690007FF4ECAD19B02846BDE8F08F620700D4E6
:10D6A000062709F1070222F0070CFCE80223E146F5
:10D6B00003F000485FEA080C02D00FF2702C0DE076
:10D6C0005FEA045C02D50FF2682C07E05FEAC47CD5
:10D6D00002D00FF2602C01E0AFF2700C4FF0FF3877
:10D6E00023F00043CDF850C065280CD006DC452857
:10D6F00009D046281DD047283DD13DE0662818D0E6
:10D7000067287ED138E00021112F01DB112000E0D5
:10D71000781CCDE9000106A90EA8FFF7EDFCDDE9B4
:10D720000F010E9A03910021009207F1010A049162
:10D730004DE04FF000400097CDE9011006A90EA87A
:10D74000FFF7DAFCDDE90F0203920E9B119900222C
:10D75000DDF80CA00093049211B9791C00EB010ACA
:10D76000B7EB0A0004D4C0F1FF3007F1010A0490BE
:10D77000AAEB0700019044E0012F00DA0127002105
:10D78000112F01DD112000E03846CDE9000106A986
:10D790000EA8FFF7B1FCDDE90F010E9A03910021FD
:10D7A00004910092BA4621070CD40399514500DA3E
:10D7B0008A46BAF1010F05DD009AAAF10101515C18
:10D7C000302908D0B84202DA10F1040F06DA01213C
:10D7D000CDE9011015E0AAF10101E9E7002805DC17
:10D7E000049901440491AAEB000102E0411C514557
:10D7F00000DD8A460499401A401C01904FF0004019
:10D800000290200704D40198504501DBCDF8048034
:10D8100000208DF84F0002980DF14F07B0F1004F36
:10D8200025D02B200E9002984FF0020800280CDA29
:10D83000404202902D200E9007E00A210298FEF748
:10D8400062FE3031029007F8011DB8F10001A8F125
:10D850000108F2DC02980028EFD1791E0E980870BA
:10D86000307800F0200040F0450007F8020D12A8C3
:10D87000C01B00F107081498007800B1012000EBEC
:10D880000A01019801EBE07105984144401A401EDD
:10D890000590E00306D45B462146179A059800F0F0
:10D8A0005DF805441498007818B15A4617999047C6
:10D8B0006D1CE00324D55B462146179A059800F0BD
:10D8C0004DF805441CE00498002807DBDDE903015E
:10D8D000884203DD0098405C179901E017993020D9
:10D8E0005A469047049805F10105401C04900198A0
:10D8F000401E019004D12E205A46179990476D1C66
:10D90000BAF10001AAF1010ADDDC05E017F8010B0C
:10D910005A46179990476D1CB8F10001A8F101080B
:10D92000F4DC5B462146179A0598ABE62D00000013
:10D930002B000000200000002DE9F04104460025E6
:10D940001E461746880404D405E039462020B04717
:10D950006D1C641EF9D52846BDE8F0812DE9F04123
:10D96000044600251E469046C80301D5302700E036
:10D970002027880404D505E041463846B0476D1C91
:10D98000641EF9D52846BDE8F0810A68531C0B6077
:10D990001070704710B501220221002000F08EFDAA
:10D9A00008B1072810D107220221012000F086FDCE
:10D9B00008B1072808D100210A22084600F07EFDA0
:10D9C00008B1072800D1002010BD000006480068FB
:10D9D0004FF40021044A8143121D1160111D00F40F
:10D9E00000200860704700000405005070B5002456
:10D9F000064D06E06868012110F8340001F0E0FDF2
:10DA0000641C28788442F5D3002070BDF41E0020E9
:10DA1000F8B515460C460646052A01D20720F8BD82
:10DA200001F0B0FE18B901F083FE0028F7D11049CB
:10DA300000204E600C70C1E902500E4D08610DE0EF
:10DA400006EBC4006968009181788DF801100078B8
:10DA5000094A694601F006FE0028E0D1641EE4B2DE
:10DA6000EED2BDE8F840054A0021024800F04EB869
:10DA7000F41E00208C140200BDEF0100EDEC01004B
:10DA8000BFF34F8F05480168054A01F4E061114377
:10DA90000160BFF34F8F00BFFDE700000CED00E019
:10DAA0000400FA050EB500210091CDE901106A4687
:10DAB00044F20100FFF7E4FF0EBD10B58268C368B1
:10DAC000934203D001F014FA002010BD052010BDD0
:10DAD00029B112B1531E134203D0092070470E2002
:10DAE00070470160838000218160C16008467047F3
:10DAF00010B58268C3689A1A83889A4203D801F0E5
:10DB000001FA002010BD042010BD0000074B9B68E7
:10DB100023B12AB120B10068037C1BB108207047F3
:10DB2000072070474174426100207047081F0020A1
:10DB30002DE9F0478046994614460F4690074FF06E
:10DB4000000634D11C4D8CB302F008FB0320C5F84D
:10DB50001490287004F11800002107EB4703AC6013
:10DB600004EBC102491C167056709770506000EBB0
:10DB7000C3000329F4DBEE606E70AE701420FFF773
:10DB800005F806211420FFF722F81420FFF709F802
:10DB90000A49C1F8008006211120FFF718F807484C
:10DBA000001F006828610020BDE8F08701E0072021
:10DBB000FAE7AE60FBE70000081F002008150140EF
:10DBC0002DE9F843DFF870900D461746D9F8081094
:10DBD000044651B34CB3052D02D20720BDE8F883AB
:10DBE000606910B3607C012821D0002603F052F94F
:10DBF000D9F80810804601EBC800694603F069F9BE
:10DC0000B8B1012100F8041B0C4910C0096880E874
:10DC1000E200D9F8081001EBC8009DF8001041702F
:10DC20001420FEF7C9FF0020D8E70820D6E72E46CB
:10DC3000DCE70420D2E70000081F002004150140A3
:10DC4000F8B5124E0446B168E1B1DCB16069C8B103
:10DC50000027277403F01EF90546B068694600EBFB
:10DC6000C50003F036F978B1022101704460B06854
:10DC70009DF8001000EBC50041701420FEF79CFFDA
:10DC80003846F8BD0820F8BD0420F8BD081F002064
:10DC900010B5044609488168C2688088511A8142DB
:10DCA00006D10121064801F0C1FD08B1052010BDD3
:10DCB0002146BDE810400148FFF7FFBECC230020FD
:10DCC000ED1E002070B50446234888B01E460D00A6
:10DCD000426035D0A888296882B22048FFF7F8FE54
:10DCE00000282ED1A889A96882B21C481030FFF7FD
:10DCF000EFFE002825D1202219496846FEF7D8FBFF
:10DD0000A0680690207900B101208DF814008DF8EC
:10DD10001C60607900B10E208DF81500E07802904B
:10DD2000A078039020780190607800900D496846B3
:10DD300001F032FD002804D19DF81D0018B104E067
:10DD4000072008B070BD01F0B7FD03480121401C59
:10DD500001F06CFDF5E70000EC1E0020CC23002054
:10DD60004C140200D10A020010B501460948FFF721
:10DD7000BFFE04000CD101F0CDFE48B906490548AC
:10DD8000FFF79BFE20B90121034801F03BFE04464A
:10DD9000204610BDDC230020EC1E00202DE9F041C0
:10DDA00004460078184F012606FA00F03860206813
:10DDB00001F0F4FE0021606801F0E7FE1348144D05
:10DDC000007FA069C5F82405607D217D0843C5F862
:10DDD0006C05D4E90001C5F80C05C5F81415207DC3
:10DDE00001280FD10021A06801F0CFFE207B8640E2
:10DDF0003E60E06801F0D2FED4E90201C5F80815E2
:10DE0000C5F81005BDE8F081080500504424002045
:10DE10000020004070B540B10C4D297839B104465E
:10DE200002F080F928B1002070BD0E2070BD0820DE
:10DE300070BDE868062807D20549226801EB800119
:10DE4000401C0A60E860EEE7042070BDDC1E002084
:10DE5000D421002040B1054900220123CA600B7083
:10DE6000C1E90102104670470E207047DC1E0020F9
:10DE700000281FD000291DD00F4A1278002A19D07F
:10DE80000A88112A0ED0302A06D0322A07D0332A27
:10DE900010D1091D01F0BABF091D02F01BB8091D00
:10DEA00001F02EBF8988B0F8AA21914202D1002149
:10DEB00080F8A71170470000DC1E002010B50B464B
:10DEC000040009D01148017841B1C16831B194F81A
:10DED000A71129B1112010BD0E2010BD082010BDC2
:10DEE000A4F8AA310021816084F8A811084884F8B8
:10DEF000A6112246006820600121184690DF002804
:10DF0000EDD1012084F8A701002010BDDC1E002007
:10DF1000D421002010B5044601F0A0FE204600F0F8
:10DF2000FFF921460448FFF7A3FF21460248BDE858
:10DF30001040203800F09AB818250020FEB505469C
:10DF400008780C46012807D0022817D0032839D1B9
:10DF5000BDE8FE4002F054B9618804F10A02284687
:10DF600000F050F808B1FFF79DFD284600F0EEF8EC
:10DF7000002827D0BDE8FE40FFF794BD12A0FFF7B0
:10DF800087F81548017D837D427D8DE80E00C37CB6
:10DF9000827C417C11A0FFF77BF8002506E06068D9
:10DFA000405DFFF7E1FE0028F9D16D1C207AA84200
:10DFB000F5D8124EB570B27861681148FEF778FA5C
:10DFC00001203070FEBD00005B46726F6D20424C38
:10DFD000455F505D20000000F82400202530327895
:10DFE0003A253032783A253032783A253032783A4C
:10DFF000253032783A25303278200000B01E0020DB
:10E000005421002048B141802AB15188C180118833
:10E01000818091880181002070470E2070470000A8
:10E0200030B5114B0D4604000FCB85B08DE80F00C5
:10E0300018D0BDB12146684663DF002810D1207892
:10E040008DF812000120ADF810004FF6FF706080CF
:10E050002868E0600020A080208104A8FFF7DAFE95
:10E0600005B030BD0E20FBE7241402001FB50028C8
:10E070002ED000292CD042884FF6FF739A4202D04E
:10E080008C88A24224D10C88112C14D0392C1FD199
:10E090008288002A1CD08B89934219D1C268002A39
:10E0A00016D002228DF8002001F112020192097CA3
:10E0B0008DF8081009E08988914209D1C1680029CA
:10E0C00006D003218DF800104380C268694690474E
:10E0D0001FBD7FB5002200920192029203920B783D
:10E0E00001F10E02002B2FD18B88012B2CD18B79C3
:10E0F0000478A34228D1002317E003EB430432F84D
:10E100002450022D02D0032D0ED105E002EB840431
:10E110002489ADF80E4007E002EB84042589ADF8B0
:10E120000A506489ADF80C405B1C0C7A9C42E4D820
:10E13000C268002A08D04988ADF8021001218DF884
:10E140000010C268694690477FBD00001FB50100FE
:10E1500019D04888A0F57F42FF3A16D0C988A1B1EE
:10E1600001228DF80C200A4B00228DF80D20D3E9F6
:10E170000423CDE90023ADF8021003A902916946FA
:10E1800098DF04B010BD0E20FBE70820F9E700007F
:10E19000241402003EB518B1142A03D907203EBD4D
:10E1A0000E203EBD4388A3F57F44FF3C0DD0084DB3
:10E1B00038CD8DE8380003890291ADF80230ADF812
:10E1C00006204088694698DF3EBD08203EBD00001D
:10E1D0004014020000B5154887B000234068059040
:10E1E0004822134905A802F0ADF908B1FFF75AFC1F
:10E1F0006A460021012002F08FF908B1FFF752FCB6
:10E200000C4802F00FF808B1FFF74CFC684602F02A
:10E2100079F908B1FFF746FC074802F069F90028D0
:10E2200001D0FFF73FFC07B000BD000094140200CE
:10E23000B0240020E01C002015DF010030B5174C91
:10E240009DB02078002826D04FF44A70FEF752FE89
:10E2500017281ED11248C17C857D437D027D8DE843
:10E260002E00837C427C0FA104A8FEF721FF04A8A6
:10E27000FEF742F982B204A9012002F01FF8A27849
:10E280001349012002F01AF8002802DA012000F0F8
:10E2900025FB002020701DB030BD0000B01E002006
:10E2A000F82400205B46726F6D20424C455F505D44
:10E2B00020253032783A253032783A253032783A93
:10E2C000253032783A253032783A253032782000BD
:10E2D000542100207CB5114E0C004FF00005306039
:10E2E00015D06946002000F0B1F8002815D101A929
:10E2F000012000F0ABF800280FD19DF8041009B1FF
:10E30000022003E09DF8001001B10B20207070681E
:10E3100010B9FFF73FFB054628467CBDD41E002000
:10E3200010B51A4C0188606810290ED011292BD124
:10E33000401E606028D1FFF72DFB002824D0216803
:10E34000002921D0BDE810400847D0B900210122A2
:10E35000084600F0B3F808B107280FD107220221C0
:10E36000012000F0ABF808B1072807D104220221F0
:10E37000002000F0A3F820B1072802D0216801B1E5
:10E3800088476068401C606010BD0000D41E0020FB
:10E3900010B5032000F024FA08B1062800D10020AF
:10E3A00010BD00002DE9F04707460024244802E094
:10E3B000641C042C41D250F82420BA42F8D1042C19
:10E3C0003BD21F48DFF87C901F4E0C38A9F114088F
:10E3D00041B301290FD002292FD104EB440030446E
:10E3E0004578002D29D0D8F81010002925D02846CE
:10E3F000BDE8F047084704EB4401755C0E447178B2
:10E4000061B1D8F804100F4A01EB81014900133AB9
:10E410008068FFF7D5FB08B988F80170B17809F872
:10E420000410DEE78068FFF70BFC04EB4401314485
:10E4300019F804008D78A842D3D0BDE8F087000019
:10E44000F4130200D01E0020A821002004280CD2C2
:10E45000074A1268074B13F8203001209840904378
:10E4600000D001200870002070470020FAE700006B
:10E4700010050050F413020010B504280ED00A282D
:10E4800018D1002000F03CF808B1FFF70BFBFFF7B4
:10E490007FFF08B1FFF706FB3CDF05E006481321CC
:10E4A000408876DF082805D0002803D0BDE810405A
:10E4B000FFF7F8BA10BD0000F824002070B5002363
:10E4C000042810D20D4D00EB4004012A02D101298D
:10E4D0000CD00022094E00EB4000304461B101290C
:10E4E00006D0022906D00723184670BD0D30C2B2EF
:10E4F0002A55F9E74270F7E78270F5E7A821002076
:10E50000044A01460020127AD20702D0084600F0E1
:10E5100055B87047BC1E002070B50E46214905460F
:10E5200000200A61C1E90165A9071BD50024012269
:10E5300011462046FFF7C2FF641C042C02D20028BB
:10E54000F5D00FE070B9720804211748FFF760FAA0
:10E5500040B9FFF74BFA28B91348144A0021143880
:10E56000FFF7D4FAE9070AD0114A4FF4F01111600D
:10E570000F4B00221B1D1A600D4A1032116000283B
:10E580000FD109480B4A00211C38FFF7BFFA0028B9
:10E5900007D1BDE8704004480121074A1838FFF749
:10E5A000B5BA70BDBC1E0020041402001DE80100B5
:10E5B00008050050B1F10100CDD901002DE9F84F57
:10E5C000854EDFF810A24FF4E01CF16807462CEAF4
:10E5D000010C0091002071680AF10404251D7F4B95
:10E5E0004FF400324FF4802B01EB810E8146182F3F
:10E5F00016D2DFE807F00C17173A4E607083868F4B
:10E60000868FEAA0A0A0A0A0CAD1D8E1EAEA009A29
:10E610004FF4F01191432160C5F8009086F8009006
:10E62000BDE8F88FC4F800C04846C5F80090DAF895
:10E6300000C08CF4F01C5FEA8C3C09D52260286095
:10E64000022F02D14FF4E16008E04FF47A6005E058
:10E650002A602060022F3CD04FF4C8706422B0FBC7
:10E66000F2F04143377000225EE0C4F800C0484633
:10E67000C5F80090DAF800C08CF4F01C5FEA8C3C1E
:10E6800004D5226028604FF44870E7E72A602060D4
:10E690001FE0C4F800C04846C5F80090DAF800C092
:10E6A0008CF4F01C5FEA8C3C02D522602860CCE739
:10E6B0002A602060D0E7C4F800C04846C5F8009042
:10E6C000DAF800C08CF4F01C5FEA8C3CDED52260E6
:10E6D0002860C820C2E7C4F800C04846C5F80090CA
:10E6E000DAF800C08CF4F01C5FEA8C3C02D52260A2
:10E6F000286001E02A602060377014E0C4F800C090
:10E700004DE0DAF800002BEA0002226000F48020DD
:10E71000286008E0DAF800002BEA0001216000F42C
:10E7200080202860714600221868BDE8F84FFFF786
:10E7300047BA21602EE098465868FFF781FAD7F172
:10E74000110100D040B1F16801F4F0112160C5F869
:10E750000090C6F80C9063E74FF40022F2600129A4
:10E760000CD9C82011FB00F16420B1FBF0F17068F6
:10E7700000224143D8F80400FFF722FAF16801F4BF
:10E78000F0112960C4F800904AE74FF4F0112160BD
:10E79000C5F80090377043E74FF4E0112160494617
:10E7A000C5F8009006E04FF4D01121604946C5F845
:10E7B00000905A462A60BCE74FF4C01121604946D8
:10E7C000C5F800904FF4C022F4E74FF4F01129602F
:10E7D0004946AEE704050050BC1E0020E8130200C5
:10E7E00070B500210C4D012455F82120920002F152
:10E7F000A042D2F8006704FA01F3034000D00323DB
:10E8000026F4403646EA0343C2F80037491C04297F
:10E81000EAD3002070BD0000F4130200007802214A
:10E82000FFF7C0BD05494FF0FF32082841F820200E
:10E8300002D3084480F8482070470000EC230020F1
:10E84000F0B54FF0FF3512B10023082601E0082390
:10E850000C260C4C05E000BF54F823707F1C04D03C
:10E860005B1CB342F8D32846F0BD26185DB286F88B
:10E87000305044F82310002AF5D1E11881F84800FF
:10E88000F1E70000EC2300200249084490F9300031
:10E8900070470000EC23002008B5024690F8A6015E
:10E8A0000B46C0EBC00000EB800002EB400092F88A
:10E8B000A52142B1521ED2B202EB420100EB81020D
:10E8C000518A491C00E0C188ADF800100089ADF8FC
:10E8D00002006946184692DF08BD000070B5044684
:10E8E000082802D94FF0FF3070BD4FF4847000EB60
:10E8F000441005461021FEF763FB2846FEF7FAFA9E
:10E900000028FAD14FF4027000EB44101F21FEF7EB
:10E9100057FB0D490120A0404A8882434A808A88DB
:10E9200082438A800949002021F814000649891D84
:10E9300008554FF4427000EB44142046FEF7DAFA13
:10E940000028FAD1012070BD641F0020D0280020CB
:10E950002DE9F05F2648C168F1B3DFF898B00E6882
:10E960008146DBF800400769C078E11B21F07F4554
:10E97000ED1CB0B9DFF880804FF48030C8F8440354
:10E98000C8F804031120FEF701F91120FEF709F978
:10E990004FF0010AC8F800A02F20FDF73BFD89F8D1
:10E9A00003A0B54200D23546124BE8193C3320F0A3
:10E9B0007F401860DBF800105A46091B21F07F41A8
:10E9C000001B20F07F40C91C81420FD910681860DD
:10E9D0002F20FDF71FFD00E004E0BDE8F05F1120EF
:10E9E000FEF7EAB8BDE8F05F01F0B8BBBDE8F09F04
:10E9F000081F002004150140001001402DE9F041DE
:10EA000017460E460446082803D94FF0FF30BDE8EC
:10EA1000F08160014FF001080830FEF76BFA00F05A
:10EA20000F00012802D06FF00400F0E74FF44270AD
:10EA300000EB44100546FEF75DFA132802D06FF094
:10EA40000200E4E73078717801EB0020B17801EB47
:10EA50000020F17801EB0020411C2CD058B36FB39B
:10EA600040F6084000EB441004223146FEF7D8FA85
:10EA700041F20800390A00EB4410FEF7A1FA41F216
:10EA80000810F9B200EB4410FEF79AFA4FF48470C4
:10EA900000EB441006460421FEF792FA3046FEF7DA
:10EAA00029FA0028FAD1164908FA04F049880842E0
:10EAB0001AD00020ABE76FF00B00A8E76FF00A0058
:10EAC000A5E72046FEF716FA000706D520460821DE
:10EAD000FEF776FA6FF00C0099E72846FEF70AFA7F
:10EAE00030B96FF0030092E74FF4027000EB44146A
:10EAF0002846FEF7FFF91728E3D1012087E7000039
:10EB0000641F002010B50C4606281ED2DFE800F076
:10EB100003070B101418204602F02CFB13E02046CC
:10EB200002F088FA0FE02078BDE8104002F04EBBFA
:10EB300002F0ACFA207006E0204602F059FB02E039
:10EB4000204602F0A6FA002010BD4FF0FF3010BDA5
:10EB50002DE9F0410C46002102464F1E08464FF4B5
:10EB600098554FF4A056102A61D2DFE802F0080B46
:10EB700017131A1E222C3643464A574E535A02F098
:10EB80004EFB4BE014B1204604F10801BDE8F04112
:10EB900002F093BA208802F014FA3FE002F02CFA57
:10EBA00005E0208802F0D8FA38E002F034FA20803C
:10EBB00034E02088010A2846FEF702FA2178304620
:10EBC000FEF7FEF92AE03046FEF794F9064628469D
:10EBD000FEF790F906EB0020E9E7164882782270EC
:10EBE000C27862700279A2704279E27080792071F5
:10EBF000617113E002F090FB10E0204602F0A1FBEF
:10EC00000CE0204602F04CFB08E02078BDE8F04123
:10EC100002F0BCBB02F074FB05E020700020BDE8F0
:10EC2000F08102F064FBC0B241B2491CF5D1384614
:10EC3000F5E700007C1F002001460148FFF749BAB4
:10EC4000F824002010B50548FFF704F9002803D088
:10EC5000BDE81040FEF726BF10BD000039EC0100F2
:10EC60002DE9F843054690F8A60195F8A541C0EBBB
:10EC7000C00000EB800005EB40060F4604EB4400AB
:10EC8000914606EB80013279601C0A31904226D110
:10EC90006B460022284600F0F5F918B310E0401E3C
:10ECA000A04201D1002004E004EB440006EB800008
:10ECB0001630804602466B46284600F0E3F930B134
:10ECC000002038706946484693DFBDE8F88395F820
:10ECD000A5014146401C641C85F8A501E4B23079C9
:10ECE000A042DCD8012038700020EEE72DE9F04189
:10ECF00000260125144C22E06068226900EBC6075B
:10ED0000387805FA00F1114217D08A43226100F0E9
:10ED100005FD02463878E36805FA00F1194002FA69
:10ED200000F3994209D17978012901D0012100E04D
:10ED3000002151407A6802B19047761CF6B22078E3
:10ED40008642D9D3BDE8F081F41E002070B5044698
:10ED5000082802D94FF0FF3070BD6001012508304E
:10ED6000FEF7C8F800F00F00012801D0A81F70BD01
:10ED70004FF4847000EB441006460821FEF720F99A
:10ED80003046FEF7B7F80028FAD11248A54081882E
:10ED9000A9438180408805420CD0002070BD3046D8
:10EDA000FEF7A8F800070DD52046FFF797FD6FF096
:10EDB0000C0070BD4FF4027000EB44164FF442702B
:10EDC00000EB44152846FEF795F80028E7D101200E
:10EDD00070BD0000641F00202DE9F047894690F8BF
:10EDE000A6119046C1EBC10101EB810100EB410787
:10EDF000384601F097F9060039D01E4CA068062865
:10EE000035D21D4D00EB800005EB00104622A0F826
:10EE100002803946001DFDF74BFB0027B9F1000FBA
:10EE200006D0A06800EB800005EB0010077006E03C
:10EE3000A168022001EB810105EB01110870A068B7
:10EE400000EB800105EB0111401CCE64A060E1687D
:10EE500088420CD1002606E006EB860005EB001088
:10EE6000C16C8847761CE0688642F5D3A760BDE890
:10EE7000F0870000DC1E0020EC21002030B50D469C
:10EE800090F8A61193B0C1EBC10101EB81011446CA
:10EE900000EB410001F046F9030007D0ADF8024055
:10EEA00001208DF8000068460195984713B030BDE9
:10EEB0000E4910B54A788C780023A24212D0521C19
:10EEC000D2B24A70022A00D14B70084A4B781832ED
:10EED00052F8232002600869104420F07F40086146
:10EEE000012010BD0360002010BD0000081F00209D
:10EEF000826883881A4003689A5C0A708168491C9A
:10EF000081607047C26883881A4003689954C16859
:10EF1000491CC160704710B50446C0B2FEF724FF1B
:10EF2000204610BD2DE9F04142F2086101EB401589
:10EF300042F20871002601EB40142846FDF7DAFF83
:10EF400007462046FDF7D6FF00EB072007043F0CDD
:10EF500009D02846FDF7CEFF06462046FDF7CAFF3A
:10EF600000EB062086B2BE42E7D13046BDE8F08114
:10EF70002DE9F04142F2080101EB401542F208117F
:10EF8000002601EB40142846FDF7B4FF0746204653
:10EF9000FDF7B0FF00EB072007043F0C09D028461F
:10EFA000FDF7A8FF06462046FDF7A4FF00EB06206C
:10EFB00086B2BE42E7D13046BDE8F0812DE9F0418E
:10EFC000124E07460125BD403068FEF739FE002885
:10EFD0000DD10F4C2069284207D1384600F09EFB26
:10EFE0000028E06805D0284304E0A8432061BDE87C
:10EFF000F081A843E060206928432061A16830685F
:10F00000BDE8F0410022FEF7DBBD00008C140200D9
:10F01000F41E0020F8B51A4C207800282ED0206964
:10F0200028B10026E06820B1002526B110E00126B5
:10F03000F8E70125F9E7684652DF052803D020B13B
:10F04000FEF730FD04E0012602E0216900988847C0
:10F0500085B96088ADF800006946A06861DF0528C1
:10F0600003D020B1FEF71EFD04E0012502E0D4E943
:10F0700002018847002EDED0002DD6D0F8BD00005A
:10F080002C1F002009892AB1D088491C814218D13F
:10F090000020704790F8A621C2EBC20202EB820268
:10F0A00000EB420212899142F2D0491C198090F87B
:10F0B000A611C1EBC10101EB810100EB4100008908
:10F0C00002E01980D088401E58800120704700005F
:10F0D0002DE9F8430E468146002401F1090561E05F
:10F0E00029192F5D487802280AD0032808D004285F
:10F0F00024D0052822D006283ED007283CD04FE057
:10F100004FF0000816E000BF04EB48004119022050
:10F110006A46891C64DF58B9BDF80010B9F80000D0
:10F12000814205D19DF8021099F80200814234D045
:10F1300008F10108B8EB570FE6D331E04FF00008B3
:10F1400016E000BF04EB8800411902206A46891CC2
:10F1500064DF58B9BDF80010B9F80000814205D14C
:10F160009DF8021099F80200814216D008F10108BA
:10F17000B8EB970FE6D313E010206A46891C64DFD2
:10F1800070B9BDF80010B9F80000814208D19DF8AF
:10F19000021099F80200814202D10120BDE8F883F3
:10F1A0003C44641C307AB4EBD00F99D30020F5E7CF
:10F1B0000348017AC90702D00078FFF7FFB970470A
:10F1C000BC1E00202DE9F047DFF8ACA0DAF80C00F7
:10F1D0009AF8004080469AF80460DAF80890DAF865
:10F1E00010703AE009EBC4052A7833E002EB4201E3
:10F1F0006B68521C03EBC101AB78D2B2934200D1D1
:10F2000000220B78022B02D0032B23D11FE0D1F870
:10F2100004C00346014603E0614503D00B46C969BB
:10F22000C1B1F9E7B1B18B4205D1C06918B9134F2B
:10F230000126BE600027D1F800C0C969D96149B173
:10F240000B6863440B6005E00174C06900E00021B5
:10F250000028F9D169789142C8D1641EE4B2C1D2C4
:10F26000CAE903078AF80460404502D00120BDE8DE
:10F27000F0870020FBE70000081F0020001001407D
:10F280002DE9F04705462F48002680460778D0F83C
:10F290000C904BE0D8F8080000EBC70440E002D027
:10F2A0002846ED691EE02078616800EB4002401CB2
:10F2B000C0B201EBC2012070A278904200D126704A
:10F2C0000A784868012A2DD1027C5ABB8A684260BC
:10F2D000CA6882600A69C2604969816198F804104D
:10F2E00001B146604268D8F81030DFF85CC0D11A2E
:10F2F00021F07F41614502D28268114406E0991AEB
:10F30000826821F07F418A4202D9511A016000E0EF
:10F3100006604660012186600174C66101F000FB51
:10F32000002DBCD1207861788842BCD17F1EFFB20D
:10F33000B0D2D8F80C10494502D00120BDE8F087C2
:10F340000020FBE7081F0020FFFF7F0008B5002317
:10F35000334A03211846FEF7EBFB08B1FEF7A2FB88
:10F360000621304801F008FC40F6CD452E4A2946DA
:10F370000120FFF7D1F808B1FEF794FB69460020A1
:10F38000FEF7A8FF08B1FEF78DFBFFF75BFCFEF769
:10F3900021FF264800F04EFC01F0EEF801F0FEFCE3
:10F3A000234A01212348FEF7B1FB08B1FEF77AFB9F
:10F3B0002048214A0121001DFEF7A8FB08B1FEF7F5
:10F3C00071FB1C481D4A01210830FEF79FFB08B164
:10F3D000FEF768FB174C00224FF400412068FEF74F
:10F3E000EFFB08B1FEF75EFB002229466068FEF7DE
:10F3F000E7FB08B1FEF756FB00222946A068FEF79E
:10F40000DFFB08B1FEF74EFB00F0FAFE0CA0FDF7A3
:10F410003FFE48DF0028FCD0FEF744FBF9E7000080
:10F420001C200020790A020079E401003DDF010080
:10F43000F5060200DC1302003DE201002D08020087
:10F440005363616E20737461727465640D0A000009
:10F4500010B586B020490020FFF754FB1E4901205B
:10F46000FFF750FB03A90820FFF772FB03A91BA0BD
:10F47000FDF70EFE184CE078627921798DE80700DF
:10F48000A378627821781BA0FDF702FE607A0090D5
:10F49000237AE279A17921A0FDF7FAFD607C009042
:10F4A000237CE27BA17B22A0FDF7F2FD607B009034
:10F4B000237BE27AA17A23A0FDF7EAFD607D00902C
:10F4C000237DE27CA17C24A0FDF7E2FD27A0FDF7CF
:10F4D000DFFD06B010BD0000401F00200D0A3D3DBD
:10F4E0003D202573204E455420434F4E46203D3D40
:10F4F0003D0D0A004D41433A20253032583A25301F
:10F5000032583A253032583A253032583A2530327E
:10F51000583A253032580D0A000000005349503A3D
:10F520002025642E25642E25642E25640D0A0000F6
:10F530004741523A2025642E25642E25642E2564E9
:10F540000D0A00005355423A2025642E25642E25CD
:10F55000642E25640D0A0000444E533A2025642E83
:10F5600025642E25642E25640D0A00003D3D3D3D99
:10F570003D3D3D3D3D3D3D3D3D3D3D3D3D3D3D3DBB
:10F580003D3D0D0A000000004907090E002806DA7B
:10F5900000F00F0202F1E02282F8141D03E000F1F6
:10F5A000E02282F8001400F01F020121914040097E
:10F5B000800000F1E020C0F88012C0F80011704710
:10F5C0002DE9F0478846814600F0FAFC0124224EDE
:10F5D0000028484618D0FFF757F9304490F8480003
:10F5E0008009032802D0012806D007E01B480068E4
:10F5F00004FA09F4204201D1022100E00321484627
:10F60000BDE8F04700F0DEBA00F0E6FC002820D0AC
:10F610004846FFF739F90546114F4FF4807007EB64
:10F62000850100EB8500D1F8102580B242F001027F
:10F63000C1F8102500F0DCFAB8F1000F09D04846F7
:10F64000FFF722F956F82000002802D0AC40C7F896
:10F650000443BDE8F0870000EC23002010050050B3
:10F66000006000402DE9FC41DFF8A480044608EB6F
:10F670000400002790F930001346C0170E46401CC6
:10F6800001D0082740E0F27819462046FFF7D8F865
:10F690000546401C37D0B07848B1A00000F1A0402A
:10F6A000D0F8001721F00201C0F8001707E0002190
:10F6B0007378204600910A46019100F033FAF07801
:10F6C000C0B11448317800EB8500D0F81025124BFA
:10F6D0001A40C0F810254FF4F8524FF4403302EAB4
:10F6E000042203EA01410A43D0F810150A43C0F886
:10F6F000102509E008EB0500327810F8481F41EAB0
:10F700008211017000E004273846BDE8FC8100004A
:10F71000EC23002000600040FFE0FCFF0349096883
:10F72000C14011F0010000D00120704710050050C9
:10F7300070B5124D95F8540008B1082070BD002036
:10F74000411E2A18401CC0B282F830102028F8D37D
:10F7500000242046FFF766F8641CE4B20C2CF8D3B2
:10F7600006210846FFF710FF05494FF00040C1F899
:10F770000403012085F85400002070BDEC23002014
:10F7800000600040034890F85400002800D0012099
:10F7900070470000EC2300202DE9F0411E4C074685
:10F7A0000D46E07E10B10820BDE8F08107B91B4F7F
:10F7B000787F20773846FEF7F1FA65603869206077
:10F7C0002800174E4FF0000516D0397F207F48B132
:10F7D000C6F81051C6F82051C6F82451C6F8445155
:10F7E000104804E0C6F81C51C6F844510E48C6F84B
:10F7F00004030220FFF7C8FE207F08B1082000E0C4
:10F800000420C6F80005E5752576A5750120E0768B
:10F81000A5760020C8E70000442400206C140200F4
:10F820000020004010030200800002002DE9F0419A
:10F830001F4B1C7F3CB14FF40052B2EB104F02D073
:10F840001020BDE8F081D3F804C00022194D4FF418
:10F8500004764FF40177BCF1000F05D014B1C5F860
:10F86000086301E0C5F8087393F817E0BEF1000FD4
:10F8700010D01A7E52B1BCF1000F05D014B1C5F8FA
:10F88000046301E0C5F804731120DAE7186101226E
:10F89000197604E0D9750025D8605D761D761CB117
:10F8A000BDE8F04100F066B8BDE8F04100F014B8E2
:10F8B000442400200020004010B5064C207F002882
:10F8C00006D1A07E002803D100F08EFC0120A07696
:10F8D00010BD0000442400202DE9F05F234DA87ED8
:10F8E000104301D100F080FC214C686830B14FF426
:10F8F0000170C4F804030020BDE8F09F4FF0000938
:10F900004FF4A27AC4F844914FF4927BA84659462A
:10F91000204600F07FF905464FF48471204600F040
:10F9200079F907465146204600F074F9064647EA41
:10F9300006012943EBD055EA060007D100F02CFC64
:10F9400098F8171098F819008142E0D888F81790B5
:10F950000DB10320D0E70EB10F20CDE798F81A10B3
:10F96000012009B12060C6E76060C4E7442400209C
:10F97000002000402DE9F05F204C00264FF48873F2
:10F98000C4F810614FF4A275C4F84461C4F834059A
:10F99000C4F838158AB1D4F8000240F02000C4F849
:10F9A0000002DFF85C80D8F8040048B14FF404701E
:10F9B000C4F804030020BDE8F09F01202060F0E7B8
:10F9C0009A46A9464FF4927B5146204600F02DF905
:10F9D00005464946204600F028F907465946204684
:10F9E00000F023F93D430543EED088F8176008B1D5
:10F9F0000320E0E7002FDDD00F20DCE700200040EF
:10FA0000442400202DE9F047204D0246287F38B1DC
:10FA10004FF40050B0EB124F02D01020BDE8F08739
:10FA200000F078F808B11120F8E7A9750023AA6062
:10FA3000AB82287F28B3164C00264FF4907098466E
:10FA4000C4F820314FF4AC73C4F85881C4F844258D
:10FA5000C4F848150121A160696881B982469946B8
:10FA60005146204600F0E1F807464946204600F09E
:10FA7000DCF80743F4D000B10F2685F81680304635
:10FA8000CCE7BDE8F04700F005B8000044240020B2
:10FA9000002000402DE9F05F1C4F00254FF48E7AC6
:10FAA0002E46C7F81C514FF00108C7F8088000F037
:10FAB000BFFF174CB815616879B123E05F46514626
:10FAC000484600F0A7F810B9A08AB842F7D1A08A3A
:10FAD000B84204D000F0ACFF01E08346B946A08AEA
:10FAE000A17D8842EAD3A08A584501D10F2508E0BC
:10FAF0004F465146384600F08DF80028F9D0C7F837
:10FB00000C80A6752846BDE8F09F0000002000404C
:10FB1000442400200248807D002800D00120704746
:10FB20004424002030B541EA4201DDE9034541EAC1
:10FB30008301800041EA042100F1A04041EA05412F
:10FB4000C0F8001730BD30B541EA4201DDE9034598
:10FB500041EA8301800041EA042100F1A04041EA2A
:10FB60000541C0F8001730BD30B541EA4201DDE97A
:10FB7000034541EA8301800041EA042100F1A040ED
:10FB800041EA0541C0F8001730BD1CB500220B4604
:10FB9000009211460192FFF7D6FF1CBD1CB5002153
:10FBA00000910B46012201911146FFF7CCFF1CBDCD
:10FBB0001CB5002100910B46012201911146FFF76F
:10FBC000D3FF1CBD800000F5E06000F1A04002689A
:10FBD00022F440320260026842EA0141016070474B
:10FBE0000121814001480160704700000805005074
:10FBF000034908B50844002101600068009008BD71
:10FC00000060004002494058012800D000207047A1
:10FC1000006000404058002800D001207047D0F814
:10FC20000403084000D0012070474058002800D04D
:10FC30000120704708B5694600900748FEF7F0F9C3
:10FC400008B1FDF72FFF0448173071DF002801D0FD
:10FC5000FDF728FF08BD0000F824002010B5044679
:10FC6000011D00881B2840D00EDC102831D013283D
:10FC70002ED10023A0881A4685217FDF002827D0B7
:10FC8000BDE81040FDF70EBF1D2805D01F281FD16D
:10FC900031F8040B75DFF1E7091D0C461648FFF734
:10FCA00017FA002814D0144A2046083202F108013D
:10FCB0008CDF00280CD1FEF723FC08B1FDF7F2FE23
:10FCC0000E48216840F8581FA1888180A179817170
:10FCD00010BD0720FEF714FC08B1FDF7E3FE07484E
:10FCE000A1886830FEF7EAF8C8E708790228EFD162
:10FCF000BDE8104000F084BA94140200B024002043
:10FD00002DE9F84F05460C460888B5F8AA11884237
:10FD100054D195F8A601DFF8F0A0C0EBC00000EBCD
:10FD2000800005EB400160884FF003094FF00008A8
:10FD3000F0BB2689087904F10802F3B250FA86F67E
:10FD4000052E01D8034400E005230B71002315E0C4
:10FD500000EB400603EB830702EB470701EB860647
:10FD6000D7F802C0C6F80AC0D7F806C0C6F80EC059
:10FD70007F897782401CA6F814805B1C0E7986422E
:10FD8000E6D895F8A62100EB4000C2EBC20202EBD8
:10FD9000820201EB800005EB4202C088128990428A
:10FDA0000ED2F0B205280BD085F8A501218800E01D
:10FDB00006E02846FEF770FD01000AD1BDE8F88F85
:10FDC00085F8A581228869462846FEF749FF01008B
:10FDD0000BD085F8A78122882846FFF74FF88AF8CC
:10FDE00000902188AAF80210E8E79DF8000000289A
:10FDF000E4D0228801212846FEF7EEFF218828461C
:10FE000000F0A0F8DAE70000EC210020F8B5054684
:10FE10000C460888B5F8AA1188424AD195F8A6017F
:10FE200004F10801C0EBC00000EB800005EB4002CC
:10FE300095F8A50100EB400002EB800360880A33CF
:10FE4000B0B9002042F602170E880FE000EB400C1C
:10FE500001EB4C0CBCF804C0BC4506D100EB4000E3
:10FE600001EB40004088588102E0401C8642EDD8FA
:10FE700000268DF8006095F8A5011179401C884294
:10FE800003D101208DF8000018E085F8A501228833
:10FE900069462846FEF7E4FE01000BD085F8A7610D
:10FEA00022882846FEF7EAFF0948032101702188CD
:10FEB0004180F8BD9DF800000028FAD02288012179
:10FEC0002846FEF789FF2188284600F03BF8F8BD58
:10FED000EC21002070B5054690F8A6010C46C0EB59
:10FEE000C00000EB800005EB40012288B5F8AA01B4
:10FEF000824224D1608848B100212846FEF76CFF79
:10FF000021882846BDE8704000F01CB8D4F80A20CB
:10FF10000A60D4F80E00C1F8060021882846FEF7D2
:10FF2000BBFC01000BD0002085F8A70122882846E1
:10FF3000FEF7A4FF0248032101702188418070BDB3
:10FF4000EC2100202DE9F041044690F8A8010E466E
:10FF5000401C1949C0B284F8A801C9680327174D8D
:10FF60004FF0000E884224D284F8A5E194F8A6014F
:10FF7000401CC0B2C0EBC00101EB810104EB4102A7
:10FF800084F8A601A5F1180101EB800001210068A9
:10FF9000106082F804E0304690DF010007D084F85A
:10FFA000A7E132462046FEF769FF2F706E80BDE85C
:10FFB000F08184F8A7E1F8E7DC1E0020EC210020A6
:10FFC0000449084490F93000082801DB01207047FB
:10FFD00000207047EC2300200449084490F93000C9
:10FFE000082801D20120704700207047EC23002030
:10FFF0002DE9F74F14460546082803D94FF0FF3086
:020000040002F8
:10000000BDE8FE8F680101260830FCF773FF00F0A1
:100010000F00012801D0B01FF2E724B341F60860B9
:1000200000EB4510FCF766FF4FF6FF7101EA8020F8
:10003000A04200D204464FF4427000EB451841F64E
:100040000870DFF88CA000EB451B06FA05F928467E
:10005000FEF768FF06464046FCF74CFF172816D00F
:100060001C2803D00DE06FF00D00C9E7CEB928467B
:10007000FEF77EFF07465846FCF73CFFB7EB802FA4
:1000800005D12846FEF72AFC6FF00600B8E7BAF85B
:10009000021019EA010F02D01EB90020B0E7002EAD
:1000A000D5D0A64200D2344622462846019900F017
:1000B00024FF4FF4847000EB451005464021FCF707
:1000C0007FFF2846FCF716FF0028FAD1204697E765
:1000D000641F0020054A18B111B1C2E9040170473C
:1000E0000348106103485061704700007C1F0020E6
:1000F000E70F0200E50F0200074A10B513889C05C0
:10010000FDD518B111B1C2E9060110BD03489061D7
:100110000348D06110BD00007C1F002019120200AE
:100120001D12020070B50C4B00210A4ADC680DE07C
:1001300002EB81058678AD78B54206D132F82150C0
:100140000688B54201D1586870BD491CA142EFD361
:10015000002070BDD4210020DC1E002070B50126D7
:1001600070044FF0E0210025C1F88001084C4010D8
:10017000C4F84803C4F8080366602F20FCF74AF966
:10018000A660044C2F202561FCF744F9E57070BD92
:1001900000100140081F002009480A490022C37DC1
:1001A000C1F8082143B1D1F81815437EC268D15473
:1001B000417E491C41767047D1F818057047000010
:1001C00044240020002000401FB501228DF80800C3
:1001D00004488DF800200191D0E90012684690474C
:1001E0001FBD00004424002004480021C0F8241151
:1001F000C0F8081101210160704700000020004094
:1002000010B507488ADF08B1FDF74CFC0120FEF766
:1002100077F9002803D0BDE81040FDF743BC10BDBE
:10022000A414020008B502490020009108BD000096
:10023000B01E002010B50121202803DA1D4A81409C
:10024000114004E0402803DAA0F12002914041B1BE
:10025000002809DA00F00F0101F1E02191F8141DE6
:1002600006E042F2010010BD00F1E02191F8001417
:100270004909082914D299B1012911D004290FD0B4
:1002800005290DD00C4A946800F01F030121994004
:10029000400944B152F820300B4342F8203007E0C7
:1002A00042F2020010BD800000F1E020C0F8001111
:1002B000002010BDFC06FFBCA42400202DE9F05F47
:1002C00015468B460646082803D94FF0FF30BDE897
:1002D000F09F700101240830FCF70CFE00F00F00C5
:1002E000012801D0A01FF2E775B14FF4427000EB76
:1002F00046100746FCF7FEFD6FF0060A172806D0E9
:100300001C2804D05046E2E76FF00D00DFE7DFF86D
:10031000C480B440B8F80400044213D04FF4027013
:1003200000EB46108146FCF7E5FD00F01F00C1061A
:1003300024D548461021FCF743FEB8F80410A14329
:10034000A8F8041041F6087000EB4610FCF7D2FD47
:100350004FF6FF7101EA8020854200D905463046FC
:10036000FEF706FE81463846FCF7C4FD17280DD07F
:100370001C280BD03046FEF7B1FAC3E700070BD5B7
:100380003046FEF7ABFA6FF00C00A0E7B8F80200B9
:10039000044203D04D4501D9002098E74D45DED8F1
:1003A0002A465946304600F0D8FD4FF4847000EBE1
:1003B000461006462021FCF703FE3046FCF79AFD66
:1003C0000028FAD1B8F8041028460C43A8F80440D5
:1003D0007DE70000641F00202DE9F8431D46174605
:1003E0000E460446082803D94FF0FF30BDE8F883D5
:1003F000012E06D0022E0CD0042E0AD06FF004007D
:10040000F4E7042269464FF47060FCF79FFD009802
:1004100048B169076FF00500E8D49DB1012E05D001
:10042000022E0FD106E06FF00200DFE715F0210F7A
:10043000DCD007E0A90601D52906D7D5E90601D504
:100440002906D3D52046FEF749FA600105F0F001F0
:100450004FF0010831430830FCF7B2FD224E57B986
:100460003788781C80B2A0F57F413080F03902D106
:100470004FF4404030804FF48160390A00EB441063
:10048000FCF79EFD4FF4A160F9B200EB4410FCF7BD
:1004900097FD4FF4847000EB441007460121FCF7F0
:1004A0008FFD3846FCF726FD0028FAD108FA04F043
:1004B000718805F001028143A2400A437280B1882D
:1004C0008143B1800949002021F814000649891DA3
:1004D00008554FF4427000EB44152846FCF70AFD1E
:1004E0000028FAD060B281E7641F0020D0280020E5
:1004F00018B10349C860002070470E207047000003
:100500002C1F00201CB5034901910091694660DF52
:100510001CBD0000B01E002070B50E4605461446F6
:1005200014211046FBF7DDFF01202080002121610E
:1005300021732672657205B1A072002070BDFDF7AF
:100540009FBA000030B409B18C0702D0072030BC3C
:100550007047074C0125A16062800649636010DF87
:100560000028F4D1257030BC1620FFF763BE0000D0
:100570002C1F00203F0502001CB50549D1E90001F0
:10058000CDE900016946002000F004F81CBD000020
:10059000D01402007CB50C460546012801D9002084
:1005A0007CBD234905EB450001EB4000216801605B
:1005B000A1888180A078FFF7FBFAE078FFF7F8FACE
:1005C0000026207900963346324631460196FFF7E1
:1005D000CBFA6079FFF7ECFA1648A17850F825209D
:1005E000C2F8081550F82520E178C2F80C1550F82B
:1005F00025202179C2F8101561790F4B012202FAEA
:1006000001F11960617850F825300906C3F8241506
:1006100050F825302178C3F8541550F82510C1F84A
:10062000086150F82510C1F8002550F825007CBD60
:10063000C42800205C1F00200805005010B552B1EE
:10064000134B53F820001B1F18600023C0F808311B
:10065000C0F81C350EE0002010BD00BFC0F81C35EE
:10066000D0F80841002CFBD0C0F80831D0F818456C
:1006700002F8014B491E0904090CEFD1D0F808110A
:100680000029FBD0D0F818051070012010BD000023
:100690005C1F002038B562B1154B53F820001B1FBA
:1006A00018600023C0F8083112F8014BC0F81C454F
:1006B0000FE0002038BD00BF12F8015BC0F81C55E8
:1006C000D0F80841002CFBD0C0F80831D0F818450C
:1006D0000094491E0904090CEED100BFD0F808119E
:1006E0000029FBD0D0F818050090012038BD00008B
:1006F0005C1F00203EB54CF250344FF44A70FCF7BA
:10070000F9FB002830D013280DD01C283ED1012041
:10071000FEF71CFB012803D001211DA0FCF7B8FC4B
:10072000012121A02DE0254CE01CA3688178C2782E
:100730008DE80E0043780278012121A0FCF7A8FC87
:100740002089E11C82B20120FEF758F9012803D06C
:10075000012126A0FCF79CFC03B00B22BDE8304031
:1007600029A10120FFF7AABD0120FEF7B7F801215A
:10077000224600230846FFF72FFE012806D001215C
:1007800024A003B0BDE83040FCF782BC3EBD0000B1
:1007900025643A536F636B657420436C6F736564B3
:1007A000204661696C0D0A0025643A536F636B65DE
:1007B0007420436C6F7365640D0A0000B01E002046
:1007C00025643A54727920746F20636F6E6E65638E
:1007D0007420746F207468652025642E25642E258E
:1007E000642E2564203A2025640D0A0025643A53BE
:1007F0006F636B657420436F6E6E65637420466132
:10080000696C0D0A00000000636F6E6E65637465AD
:10081000640D0A0025643A536F636B6574204F7052
:10082000656E204661696C0D0A0000002DE9F041FB
:10083000ADF5006D00260120FEF774FB04000ED01C
:100840004FF40060844200D30446224669460120EA
:10085000FFF7CEFB002817DA0120FEF73FF80DF571
:10086000006DBDE8F081142C01D2254600E014256E
:1008700008EB0607AAB239460548FDF78BFC0028AD
:10088000F8D1641B2E4400E0E846002CEBD1E6E7EB
:10089000F82400202DE9F84F204C00256846D4E9C3
:1008A00003B6FEF705FB8046FEF78CFC0746A9461B
:1008B000B8F1000F25D00023009ACC46E06819E07B
:1008C00007680146974202D9BA1A026014E0C1F8DB
:1008D00000C0D1F80C80D21BC8693B448A46B8F1ED
:1008E000000F07D0F71827F07F47C1E90178CAF851
:1008F0001C500D460028E3D1E0602846FEF7C0FCFE
:1009000004E02846FEF7BCFC00B917B15846FEF7D4
:100910001FF884F80490BDE8F88F0000081F00203D
:100920000D4B10B5D96831B102680C68A24204D8E9
:10093000A21A0A60C161D86010BD0B4603E00B46E5
:10094000C969121B21B10C689442F8D3A41A0C6037
:100950000260C161D86110BD081F00202DE9F0417F
:100960001D4DEC68002C35D01C4800270068296913
:10097000B846401A20F07F462068B04215D822467B
:10098000361A0744E469107C68B182F810806B69FC
:1009900033B1D2E90501984728B1FDF783F802E0A9
:1009A000D2E905108847002CE6D16978A878814201
:1009B00006D1401CC0B2A870022801D185F802807F
:1009C0000548A978183040F82170BDE8F04114209E
:1009D000FCF7F2B8BDE8F081081F002004150140C3
:1009E00038B5D0F818258DF800200A7F0B7D9A4283
:1009F00003D29DF800300C69A3540A7F521CD3B275
:100A00000B770C7B5A1C944202D98968895C03E0FD
:100A10000D7D954203D9C97EC0F81C1503E0A342A1
:100A200001D3AB4201D2012038BD002038BD000007
:100A3000064A0020C2F81C010548838A8168C95C07
:100A4000838A5B1C8382C2F81C157047002000401B
:100A5000442400201FB500218DF8080005488DF8BA
:100A60000010826801928175D0E9001268469047B3
:100A70001FBD00004424002070B5017841B1012958
:100A800001D002291DD14068BDE87040FDF70AB8C9
:100A90000D4C0C4D60782844FDF7FAF86078401C46
:100AA000C0B22918607011F8011C0A2901D014285D
:100AB00007D3627803490548FDF76CFB0028F8D19D
:100AC000607070BD08200020B01E0020F8240020B7
:100AD0007CB50178264D012909D002292CD00029A6
:100AE00029D129462348FCF7E8FF80B334E0406869
:100AF000017820481038FCF7FBFF1E4C103C20B159
:100B000001218DF80010019007E0A068E168081A43
:100B1000012805D100208DF80000696868468847E3
:100B2000A068E168081AA188884204D81048012109
:100B3000401CFEF77BFE7CBD02218DF80010C068D2
:100B400001900B480121401CFEF770FE0CE0FFE70E
:100B500001210748FEF756FF06488168C0688842B1
:100B6000E9D103208DF800006968684688477CBD9C
:100B7000EC1E0020DC23002010B50D4C88B00DF1D8
:100B8000100C1CCC8CE81C000A4A00920A4B4FF453
:100B90008072CDE9012303920B460246694604A800
:100BA000FDF790F8002801D0FCF77CFF08B010BDDD
:100BB000B4140200C4260020C42700202DE9FF4100
:100BC0003E4D4FF400712846FFF729F801273C4CB1
:100BD0004FF40178002600B34FF492712846FFF7D6
:100BE00019F8D0B1C5F82461C5F80883A07E00B912
:100BF0006F6002208DF80000D5F88004C5F88004ED
:100C00000390E07D8DF80800E0680190E675267697
:100C1000D4E900126846904724E004212846FEF7F4
:100C2000FEFFF8B14FF484712846FEF7F3FFC8B118
:100C3000FFF7B2FAE07D617E884213D1227E3AB19D
:100C4000607EE168E2752269E2602676667607E0FA
:100C5000A07E00B96F60C5F80883E675607EE16824
:100C6000FFF7B2FA4FF48E712846FEF7D3FF58B162
:100C7000A18AA07D814202D2FFF7DAFE04E0C5F826
:100C80001C6108B1FFF7E6FE4FF4A2712846FEF79B
:100C9000C1FF00280FD0C5F84461A07E00B12F60CD
:100CA000E07D002807D0E675607EE16804B0BDE80D
:100CB000F041FFF789BABDE8FF8100000020004045
:100CC000442400207FB5334C4FF492712046FEF748
:100CD000ACFF314D0026B0B1C4F8246102208DF87C
:100CE0000000D4F88004C4F880040390D4F83C05D4
:100CF0008DF80800E8680190EE752E76D5E90012AF
:100D0000684690471FE04FF488712046FEF78DFF3C
:100D1000C8B1C4F81061D4F83C05E97DC0B2814285
:100D200011D12A7E5AB1E968D4F8003223F02003A9
:100D3000C4F80032EA752A69EA602E7601E0EE75A1
:100D4000E968FFF741FA4FF4A2712046FEF76DFF04
:100D500050B1C4F84461E87D30B1EE75D4F83C057B
:100D6000E968C0B2FFF730FA4FF490712046FEF701
:100D70005CFF00280CD0C4F82061A87D002807D0B3
:100D8000D4F84C0504B0C0B2BDE87040FFF762BEB5
:100D90007FBD0000002000404424002000B51D4B12
:100DA00087B00DF1040C0FCB8CE80F001A491B48DB
:100DB000FFF790F91A491B48FFF79EF91AA0FCF7B4
:100DC00067F901A90120FDF7C3FE401C09D01BA053
:100DD000FCF75EF969460F20FDF7BAFE401C04D00F
:100DE00006E01EA0FCF754F9FEE723A0FCF750F93B
:100DF0009DF800000028EDD001208DF814004FF47C
:100E00007A70ADF8160005A800F0F2F9FEF720FBA5
:100E100007B000BDC0140200E90F02004911020032
:100E200093120200351102005735353030206D65C0
:100E30006D6F727920696E69740D0A00573535300F
:100E40003020504859204C696E6B20537461747582
:100E50007320436865636B0D0A00000057495A43CD
:100E600048495020496E697469616C697A656420EB
:100E70006661696C2E0D0A00556E6B6E6F776E2081
:100E8000504859204C696E6B207374617574732ED1
:100E90000D0A0000EFF30580C005C00D13D0103817
:100EA00040B2002806DA00F00F0000F1E02090F8D0
:100EB000140D03E000F1E02090F80004400902283E
:100EC00003D0062803D0022070470020704701207D
:100ED000704742788378521CD2B2934200D10022EC
:100EE0000378934201D1002070470A70416840782E
:100EF00000EB400001EBC00070472DE9F0475FEACE
:100F000002088946064626D042F6081000EB461530
:100F10002846FBF7EFFF074642F6080000EB4614B1
:100F20002046FBF7E7FF07EB002087B2380200EB13
:100F30004610424649461830FCF708F807EB08000F
:100F400086B2310A2046FCF73BF8F1B22846BDE8EC
:100F5000F047FCF735B8BDE8F0872DE9F0475FEAC8
:100F600002088946064626D042F2085000EB461594
:100F70002846FBF7BFFF074642F2084000EB461445
:100F80002046FBF7B7FF07EB002087B2380200EBE3
:100F90004610424649461030FCF742F807EB08007D
:100FA00086B2310A2046FCF70BF8F1B22846BDE8BC
:100FB000F047FCF705B8BDE8F0870078704701708E
:100FC000704710B5040A00F0F0014FF4A850FBF789
:100FD000F7FF2146BDE810404FF4B850FBF7F0BFD3
:100FE000704770477047704702494FF480000860AF
:100FF000704700000805005010B54FF4A850FBF7EB
:1010000079FF00F0F0044FF4B850FBF773FF04EBE6
:10101000002080B210BD10B54FF4B050FBF76AFF4E
:1010200004464FF4C050FBF765FF04EB002080B28C
:1010300010BD000010B50446014606224FF41060B2
:10104000FBF784FF042204F10E019001FBF77EFF01
:10105000042204F10A014FF4A060FBF777FF042299
:10106000A11D4FF47060FBF771FF07480178A17470
:101070004178E17481782175C07860750248401E1E
:101080000078A07510BD0000751F00200020FBF740
:1010900031BF70B504464FF4D850FBF72BFF2070DA
:1010A0004FF4D050FBF726FF05464FF4C850FBF72E
:1010B00021FF05EB0020608070BD2DE9F0410D4659
:1010C0000646002400F0ABF84FF0FF38AEB1002226
:1010D000B05C204444B2102C17DC521C52B2082AD7
:1010E000F6DB002441F60877315D07EB4410FBF78F
:1010F00067FF641C64B2082CF6DBCDB10021084602
:101100002A5C114449B2102902DD4046BDE8F08155
:10111000401C40B20828F3DB002441F60866295D34
:1011200006EB4410FBF74CFF641C64B2082CF6DBA2
:101130000020EBE708B56A4601210020FFF77EFAA0
:101140009DF8000008BD000002494FF480000860CF
:10115000704700000C05005010B5C1B2040A4FF4EE
:10116000B050FBF72DFF2146BDE810404FF4C050B2
:10117000FBF726BF10B50446014606224FF4106067
:10118000FBF74EFF042204F10E019001FBF748FF2C
:10119000042204F10A014FF4A060FBF741FF04228E
:1011A000A11D4FF47060FBF73BFF0748A17C017065
:1011B000E17C4170217D8170617DC1700249A07D1B
:1011C000491E087010BD0000751F002010B50446B0
:1011D00030F03A0002D04FF0FF3010BD0020FBF796
:1011E00089FE40EA04010020FBF7EAFE002010BD62
:1011F00010B5044601784FF4D850FBF7E1FE608843
:10120000010A4FF4C850FBF7DBFEA178BDE810409F
:101210004FF4D050FBF7D4BE002070477047F0B5B4
:1012200085B04FF41064062269462046FBF78EFE17
:101230000422950102A92846FBF788FE4FF4A06618
:10124000042203A93046FBF781FE4FF470670422A5
:1012500004A93846FBF77AFE80210020FBF7B0FE98
:101260000020FBF747FE062269462046FBF7D8FE22
:10127000042202A92846FBF7D3FE042203A9304624
:10128000FBF7CEFE042204A93846FBF7C9FE05B0E1
:10129000F0BD01B56A4601210020FFF7FBF908BD4A
:1012A00010B504464FF43850FBF724FEC0F380110C
:1012B000217000F0380001220021202811D03828A8
:1012C0000FD0617010280ED018280CD020280AD01A
:1012D000A170082809D0182807D0202805D0E1706F
:1012E00010BD6270EEE7A270F3E7E27010BD10B5BA
:1012F0004FF43850FBF7FEFDC00700D0012010BDB1
:1013000010B500244FF43850FBF7F4FD10F0300F07
:1013100000D00124204610BD10B54FF438542046AB
:10132000FBF7E8FD20F080012046FBF749FE204650
:10133000FBF7E0FD40F080012046BDE81040FBF7E0
:101340003FBE10B502780021012A00D14021427829
:10135000012A06D0C2788078012A05D001280BD056
:101360000CE041F0380109E0012802D041F0080109
:1013700004E041F0180101E041F010014FF4385051
:10138000FBF71EFEBDE81040FFF7C6BF70B5044670
:101390004FF438563046FBF7ADFD41064FF0FF35B0
:1013A0001AD520F03800012C10D040F0380130461A
:1013B000FBF706FEFFF7B0FF3046FBF79BFD012C65
:1013C00007D000F0380038B1002070BD40F0300187
:1013D000EDE700F03000F6E7284670BDA81F0020BA
:1013E000C81F0020E81F002068210020882100205D
:1013F000B42100200D0000000E0000000F000000CE
:10140000100000000D000300A5E301000E00030022
:10141000A5E301000F000300A5E301001000030095
:10142000A5E301009ECADC240EE5A9E093F3A3B571
:101430000000406E010100000000020000000000FA
:101440000201000000000000000000000600000093
:101450000800000007000000050000000000000078
:10146000000000000000D601060000000600000099
:101470000800000007000000050000000000000058
:10148000000000000000D6010600000084240020B7
:1014900003000000010002000100000710003C00F2
:1014A000000090010100000000000000A0005000BA
:1014B000000000000806FFFF0000000000E0D70168
:1014C00002020202020202020202020202020202FC
:1014D0000680191718160000F8140200B01E00202C
:1014E000F8000000D8D00100F0150200A81F00206D
:1014F00038290000E8D00100000000C0A801210048
:101500008813000000000000000000000000000040
:1015100000000000000000000000000000000000CB
:1015200000000000000000000000000000000000BB
:1015300000000000000000000000000000000000AB
:10154000000000000000000000000000000000009B
:10155000000000000000000000000000000000008B
:10156000000000000000000000000000000000007B
:10157000000000000000000000000000000000006B
:1015800000000000000000000008DC00ABCDC0A897
:1015900001E1FFFFFF00C0A80101080808080200E0
:1015A00000000000003000400040004000C000008B
:1015B000000000000000000000000000000000002B
:1015C000000000000102573535303000E10F020005
:1015D000E30F0200E70F0200E50F0200BB0F02005D
:1015E000BF0F020000000000000000000090D003C8
:040000050001C40131
:00000001FF
