:020000040001F9
:10B00000A8300020F5B001000FB1010011B101001E
:10B010000000000000000000000000000000000030
:10B0200000000000000000000000000013B101005B
:10B03000000000000000000015B1010017B1010080
:10B0400019B1010019B1010069B9010019B101007C
:10B0500019B1010000000000E9B6010019B10100BA
:10B0600019B1010019B1010019B1010019B10100B4
:10B0700019B1010019B1010019B1010019B10100A4
:10B0800019B1010081B8010019B1010019B1010025
:10B09000A1B8010019B10100A9B8010019B101005E
:10B0A00019B1010019B1010000000000000000000A
:10B0B0000000000000000000000000000000000090
:10B0C0000348854600F06AFA00480047A5DD010004
:10B0D000A8300020401E00BF00BF00BF00BF00BF5F
:10B0E00000BF00BF00BF00BF00BF00BF00BFF1D165
:10B0F000704700000321094802680A4302600848BB
:10B1000002680A4302600748804707480047FEE795
:10B11000FEE7FEE7FEE7FEE7FEE70000240500404D
:10B1200054050040C9B80100C1B0010030B50B465C
:10B13000014600202022012409E00D46D5409D4211
:10B1400005D31D469540491B254695404019154697
:10B15000521E002DF1DC30BD03460B439B0703D08C
:10B1600009E008C9121F08C0042AFAD203E00B78CC
:10B170000370401C491C521EF9D27047D2B201E044
:10B180000270401C491EFBD270470022F6E710B542
:10B1900013460A4604461946FFF7F0FF204610BD45
:10B1A000421C0178401C0029FBD1801A7047F0B581
:10B1B0001FB40646002082B005464024019100904D
:10B1C0001BE0019922460F46304600F009FA049A26
:10B1D000059B801A994110D310461946224600F06B
:10B1E000EFF9361A8F410197224601200021009F76
:10B1F00000F0E6F938184D4100902046641E002802
:10B20000DFDC019B00982946324607B0F0BD000004
:10B21000F0B507460846584087B0C00F0490480074
:10B220000E46590040084908BC1A884105D23846E4
:10B2300031461E4617460B4602465800400810434A
:10B240004CD0300D039040055900400D490D05903C
:10B25000401A0290402872DA18030121000B0905F8
:10B260000843019004980092002805D001995242A9
:10B270000020884100920190029840210A1A019909
:10B28000009800F09DF905460C466B4607CB00F090
:10B29000B8F9C0197141039A0E0D0023D717564013
:10B2A0001A467A40164344D0049A002A2DD0029AB6
:10B2B000012A039A15DC1205C01A914101263605B0
:10B2C000001C7141D20F059ED20700930192029695
:10B2D0002A46234600F0B5F907B0F0BD384631469E
:10B2E000FAE71605224A0F46B218C01AB7410121E3
:10B2F0000905001C4F4100187F411146181879417B
:10B30000E20F10436D19644113E0E2076D08154325
:10B310006408C2071443039A01261205C01A91411A
:10B320003605001C7141CE07400830434908C0185B
:10B3300051412A46234600F077F9CDE7FFE704980C
:10B3400001224000C117121A00238B410498314694
:10B35000C417381AA141EEE730B40124E407634072
:10B3600030BC55E730B40124E407614030BC4FE7FE
:10B370000000E0FFF0B51FB488B00B9909980024D5
:10B3800048400999C00F490049080991C0070B9925
:10B390000090490049080B9109990898A64608436E
:10B3A0001CD00B990A98084318D009980124400032
:10B3B000420D4800410D099824050003000B20436D
:10B3C00009900B980003000B20430B9050181C4968
:10B3D0004018002201901446104605E00020014666
:10B3E0000DB0F0BD032801DA034600E003239C46BC
:10B3F000C11A0AAE0AE05F0008ADED5B4F00F75BD3
:10B400007D430027AA187C41491C5B1E6145F2DD83
:10B41000410004AB5A522104120C0A43240C401C74
:10B420000828DFDB01980290009970460191009096
:10B43000059B049A0799069800F003F9D0E70000ED
:10B440000DFCFFFFF0B50C465C4085B0E40FE4074F
:10B4500003944C00002664085900944649080246AB
:10B460000296224321D062460A431ED06200570D45
:10B470004A000E032303550D012402462C492405DE
:10B48000781B1B0B360B4018234326436146009064
:10B490001C46501AB44103D30098401C009002E0AF
:10B4A000921800985B41002803DA0020014605B09D
:10B4B000F0BD0020012109050746864611E06446DB
:10B4C0001D46141BB54106D36546521BB341744655
:10B4D00007430C43A646CD07400849082843921865
:10B4E0005B4105460D43EAD11046184313D0604630
:10B4F000194650407140084306D06046101AB341C7
:10B5000006D20122002306E000220123DB0702E02D
:10B510000122D2435310009874460105381C614142
:10B52000029C039D0019694100F07EF8BFE700000E
:10B53000FD0300004A0009030123090B1B05194301
:10B540000A4B10B5520D9A4202DA0020014610BD96
:10B55000064B34339A4203DC9A1A00F041F810BDCE
:10B56000034BD21800F02CF810BD0000FF030000C0
:10B57000CDFBFFFF10B5002904DB0124E4074042A6
:10B580008C412146002B04DB1C460123DB07524281
:10B59000A341994200D1904210BD0000064C012504
:10B5A000064E05E0E36807CC2B430C3C984710346B
:10B5B000B442F7D3FFF788FD04FD010024FD01002C
:10B5C00010B5202A04DB0146203A9140002010BD2E
:10B5D000914020239C1A0346E3401943904010BD3C
:10B5E00010B5202A04DB0846203AD040002110BDC7
:10B5F0000B46D340D0402024A21A9140084319465C
:10B6000010BD10B5202A06DBCB170846203A1041A2
:10B61000C1170B4306E00B461341D0402024A21A69
:10B6200091400843194610BD10B5002B08DA0024DC
:10B63000401C614192185B411A4301D1400840000F
:10B6400010BDF0B51FB482B005460C0003D008460B
:10B6500000F078FA02E000F075FA2030024600901F
:10B6600021462846FFF7ACFF049B059A04460F4687
:10B6700018431143084314D0184610431BD00098B8
:10B6800040210A1A18460599FFF7AAFF05460E46FB
:10B69000009A05990498FFF793FF084305D001200D
:10B6A00004E02046394607B0F0BD0020C11705432D
:10B6B0000E432C43374300990E986305401A7905D1
:10B6C000E40A00220C43FD0A0A3002D5002001469C
:10B6D000E9E70105101969410C9C0D9D00196941AC
:10B6E000FFF7A2FFDFE70000F0B50025FF248BB0D5
:10B6F000013401262F460195204602F025FF00283F
:10B7000008D047484068304204D0464800212018FD
:10B7100035430160241D76007F1CA4B2042FEBD3B7
:10B72000FF207D3002F010FF002807D03E480021A6
:10B730000160400705433D48006901903C4C2807E3
:10B7400012D0012700262F420AD03A48B200111821
:10B7500008690969C004C00E8903A258890F90477F
:10B760007F00761C042EEED3002D57DA00200590C2
:10B77000401E4DE0A119403108788506AD0E42B259
:10B78000521C39D00121A940089A0091114233D0AE
:10B7900080090390284601F09DFD80002058049008
:10B7A000002802D10398032826D103980099032882
:10B7B00002D10598084305901F4AA8008018006828
:10B7C000019A8003800F114202D0022802D013E0B8
:10B7D000032811D10399032907D102281CD0022183
:10B7E000284602F0A1FE7F1CFFB20498002803D077
:10B7F000049A284603999047761C042EBAD3002F4A
:10B800000CD00A4800690199884207D00190059838
:10B8100000273E460890ADE70321E1E70BB0F0BDFD
:10B8200000630040006000407C6100400005005063
:10B83000F423002000650040000700508307FF222A
:10B84000DB0E9A408907090E994000280BDA0007A1
:10B85000000F0838830808489B001818C3699343F1
:10B860000B43C3617047830804489B001B1818688A
:10B87000904308431860704700ED00E000E400E0EA
:10B8800010B506490020086048608860C860034918
:10B8900040390860486003F0FBFC10BD40110140D6
:10B8A00010B503F08BFC10BD10B5064840680028A9
:10B8B00005D08047002801D000F04AFE10BD02F0FC
:10B8C000A9F810BD2C1F002010B502F001F90028C6
:10B8D00005D01F491D484860C8131E4988611E488D
:10B8E000018CC9B201290BD1828C120708D1028DBB
:10B8F0001206120F042A03D1828D1206120F0AD0EB
:10B90000012921D1818C09071ED1018D0906090F5A
:10B910000A2904D007E0114A01219160F5E7828DE0
:10B920001206120F05D00D290ED1808D0006000FD2
:10B930000AD10B480168012904D00A490160016855
:10B940000129FCD1C021416110BD0000DFFF07C00B
:10B9500000050040006C0040C00F00F000060040F1
:10B9600000EC06407593000010B503F09DFD10BD7E
:10B9700038B5144C0546A068804720698047216A85
:10B98000280C002913D0626A002A10D0694608707A
:10B99000280A48708D70032168469047A069804747
:10B9A000054660698047E0688047284638BDE16900
:10B9B000C0B288472804E169000E8847E169E8B20F
:10B9C0008847EBE7841F0020F8B51A4C0546A068AD
:10B9D00016460F46804720698047216A280C0029B7
:10B9E00013D0626A002A10D069460870280A48708D
:10B9F0008D70032168469047226A31463846904749
:10BA000060698047E0688047F8BDE169C0B2884757
:10BA10002804E169000E8847E169E8B288470025FB
:10BA200004E0A069804778556D1CADB2B542F8D3EB
:10BA3000E6E70000841F0020F8B5144D0446A8680E
:10BA40000E4680472869804704206A6A0443002A1A
:10BA50000DD0210C68460170210A41708470C670B7
:10BA60000421904768698047E8688047F8BD200254
:10BA7000E969000E88472004E969000E8847E969F2
:10BA8000E0B28847E96930468847EBE7841F002029
:10BA9000F8B5194D0446A86816460F468047286930
:10BAA000804704206A6A0443002A10D0210C6846AB
:10BAB0000170210A41708470032190476A6A3146FF
:10BAC0003846904768698047E8688047F8BD20029B
:10BAD000E969000E88472004E969000E8847E96992
:10BAE000E0B28847002404E0E969385D8847641CB7
:10BAF000A4B2B442F8D3E5E7841F00200FB410B518
:10BB000003A9044B044A029800F0FCF810BC08BCDE
:10BB100004B018471FD90100281F00200FB410B52A
:10BB200004A9074B02AA039800F0ECF8044602A906
:10BB3000002000F083FC204610BC08BC04B018476D
:10BB40003DC401002021020C01D010211046020A40
:10BB500001D010460839020901D01046091F820899
:10BB600001D01046891E420801D0881E7047081A6D
:10BB7000704730B47446641E2578641CAB4200D212
:10BB80001D46635D5B00E31830BC184702E008C83F
:10BB9000121F08C1002AFAD170477047002001E047
:10BBA00001C1121F002AFBD170470000F0B51FB47D
:10BBB00084B007980699020D014314D04A484B49B6
:10BBC0001018484305140F9801280E981CD0281A05
:10BBD000401C0024464E47490094019102900028E1
:10BBE00014DA474227E00F98012443A3012808D024
:10BBF000002104980F9A84600360C260416009B01C
:10BC0000F0BD0E98C143F4E74042E2E7074612E078
:10BC1000F80707D02246334601990098FFF7AAFBA0
:10BC2000019100902246334610461946FFF7A2FBC9
:10BC300004460E467F10002FEAD10298019B00288F
:10BC4000009A0799069802DAFFF794FB01E0FFF7E4
:10BC5000F9FB04460E460022284BFFF78BFC03D865
:10BC60000020C043014607E00022254B2046314614
:10BC7000FFF7CEFAFFF75EFC102409E0002C0ADB88
:10BC80000A220023FFF793FA059B30321A55641EEF
:10BC900002460A43F2D11122641C059B121B1C1997
:10BCA0000F9B012B03D0012308430ED10AE0084368
:10BCB00004D011200E9000200F9084E70E98151AE2
:10BCC0006D1E0BE00E98824202DD00236D1C03E026
:10BCD000824201DA00236D1E002BEED004980F99EA
:10BCE0008260C16030C08AE701FCFFFF104D000098
:10BCF000000024400000F03F300000000000F0434E
:10BD00000000E03FFFB597B00646002518E2252861
:10BD100077D100242746FD49049400E00443761CB3
:10BD200032780120203A90400842F7D130782A2812
:10BD30000ED00222307801463039092916D80499EC
:10BD40000A235943303940181443761C0490F1E714
:10BD5000189802C804911890002904DA01204003C1
:10BD600004434842049002200443761C30782E2875
:10BD700014D1042004437078761C2A2809D118981D
:10BD8000761C80C8189009E00A214F43303FC7193C
:10BD9000761C3078014630390929F5D930786C287D
:10BDA00010D006DC4C281AD068280ED06A2817D18B
:10BDB00004E0742813D07A2812D110E00120400545
:10BDC00004430CE00121090501E0032109050C43AE
:10BDD0007178814203D1012000052418761C761C5D
:10BDE0003078119066280BD013DC58287DD009DC00
:10BDF00000287BD04528F6D04628F4D047281AD111
:10BE0000A5E118E0632835D0642870D0652812D1E8
:10BE10009DE170286CD008DC6728F1D069287BD0C0
:10BE20006E280DD06F2806D1BAE073282ED0752861
:10BE300071D0782859D01A9A199990476D1C7EE1D3
:10BE40006002400F022809D003280DD0042818985A
:10BE500001680DD00D60001D189070E11898EA1768
:10BE600001680D604A60F6E7189801680D80F2E7F6
:10BE70000D70F0E718986A4601781172001D18904D
:10BE80000020507202A80090012005E0189802C816
:10BE9000189000200091C04361070DD5002101E0FA
:10BEA0000199491C0191B94212DA8142F8DB009AEA
:10BEB000515C0029F4D10BE0002101E00199491CFB
:10BEC00001918142FADB019A0099895C0029F5D140
:10BED000019904981A9B471A21463846199A00F08E
:10BEE00097FA0199401945180BE04FE02CE113E057
:10BEF0004EE0009800990078491C00911A9A19990F
:10BF000090470198401E0190401CF2D121463846CE
:10BF10001A9B199A10E137E00A2000210090019144
:10BF20006002410F022907D0189A01CA1892C2175D
:10BF30009446032908D00AE01898C01DC108C9001A
:10BF400005C91891944607E000B2C2179446042927
:10BF500002D140B2C1178C4600226146944506DAF0
:10BF60000A460021404291418C462D2102E02105E4
:10BF700004D52B216A461173012103E0E10701D0AA
:10BF80002021F7E7029155E00A200AE0102008E09E
:10BF9000102000900021042004430191082703E0B1
:10BFA00008200021019100906002410F022907D072
:10BFB000189A01CA189200229446032908D008E072
:10BFC0001898C01DC108C90005C91891944603E01E
:10BFD00080B2042900D1C0B200210291210729D5E5
:10BFE0001199702906D0009A1021019B4A401A43EA
:10BFF00005D00EE040216A461173012108E0614638
:10C00000014306D030216A46117311995173022100
:10C010000291009A0821019B4A401A430AD16146C5
:10C02000014301D1610705D530216A461173012111
:10C030007F1E02911199582904D035A10E910DA9A6
:10C040000D910DE037A1F9E76146019B009AFFF7DA
:10C05000AEF80E9B8C469B5C0D9A521E0D9213708F
:10C0600061460143F0D10D9805A9081A20300190CE
:10C07000600703D501200004844300E001270198F4
:10C08000874201DD381A00E0002001990090411834
:10C09000029809180498401A0490E00306D4214637
:10C0A0001A9B199A049800F0B3F94519002706E085
:10C0B00003A81A9AC05D199990476D1C7F1C0298BD
:10C0C0008742F5DBE0030CD521461A9B199A0498A8
:10C0D00000F09EF9451904E01A9A3020199990470A
:10C0E0006D1C0099481E00900029F5DC08E00D98B1
:10C0F0000D990078491C0D911A9A199990476D1C59
:10C100000199481E01900029F1DC63E10928010032
:10C1100030313233343536373839616263646566BD
:10C12000000000003031323334353637383941427F
:10C13000434445460000000000F05AF94519761CBA
:10C140003078002800D0E2E528461BB0F0BD60073B
:10C1500000D406271898C01DC108C90048680A689D
:10C160000831C30FDB071891190001D09CA108E02A
:10C17000210501D59BA104E0E10701D09AA100E0CF
:10C180009AA1430011985B08109165280CD006DC39
:10C19000452809D046281DD0472841D141E06628CE
:10C1A00018D067283CD13CE00021112F01DB112081
:10C1B00000E0781C0191009008A911A8FFF7F6FC97
:10C1C000139905910021119A15927F1C12980197DD
:10C1D000009150E00120C00703900120019008A9C0
:10C1E000009711A8FFF7E2FC139A14990592002218
:10C1F000119B009212981593059A0192002901D083
:10C20000104602E0791C40180190381A01D50198B7
:10C2100004E04042401E0090781C0190C01B029038
:10C2200043E0012F00DA01270021112F01DD112049
:10C2300000E038460191009008A911A8FFF7B6FC6C
:10C2400013990591119A0021129815920091019766
:10C2500021070CD40599B94201DB019900E0019155
:10C26000012904DD159A491E515C302906D0B842D7
:10C2700001DA011D05DA0121029115E00199491E3B
:10C28000EDE7002805DC0099411800910199091A91
:10C2900003E0019A411C914200DD01910099401A8E
:10C2A000401C02900120C0070390200706D4029989
:10C2B0000198814202DB0020C043029000206946C1
:10C2C000C87707AF012103980337C907884224D0F4
:10C2D000022011902B201290039800280CDA404283
:10C2E00003902D20129007E00A210398FEF71EFF0D
:10C2F00030317F1E039039701199481E119000292A
:10C30000F2DC03980028EFD1791E1298087030787B
:10C31000202108404530BF1E387006A8C01BC01D34
:10C32000039010980078002800D00120019941184E
:10C330000298C0170918039809180498401A401E5B
:10C340000490E00306D421461A9B199A049800F041
:10C350005FF8451910980078002803D01A9A1999A7
:10C3600090476D1CE00324D521461A9B199A049826
:10C3700000F04EF845191CE00098002807DB0099F2
:10C380000598884203DD1598405C199901E01999D8
:10C3900030201A9A904700986D1C401C009002981B
:10C3A000401E0290002804D11A9A2E201999904715
:10C3B0006D1C0199481E01900029DDDC05E03878EC
:10C3C0001A9A7F1C199990476D1C0399481E039077
:10C3D0000029F4DC21461A9B199A0498ACE6000067
:10C3E0002D0000002B0000002000000000000000D5
:10C3F000F8B5044600251E461746880404D405E017
:10C4000039462020B0476D1C641EF9D52846F8BD7A
:10C41000FFB50446002581B01E46C80301D530276C
:10C4200000E02027880404D505E038460399B0478A
:10C430006D1C641EF9D5284605B0F0BD0A68531C72
:10C440000B601070704710B501220221002000F02F
:10C450006DFD002801D0072812D1072202210120FA
:10C4600000F064FD002801D0072809D100210A222C
:10C47000084600F05BFD002801D0072800D100200D
:10C4800010BD0000044842680121C9050B469343D2
:10C4900083600A40C26070470005005070B50024F8
:10C4A000064D06E06968E000085C012101F0D2FD5C
:10C4B000641C28788442F5D3002070BDF41E00204F
:10C4C000F8B515460C460646052A01D20720F8BDE8
:10C4D00001F096FE002803D101F068FE0028F6D195
:10C4E000104900204E600C70C8608D6008610E4DD0
:10C4F0000DE0E00069688019009181786A4651700A
:10C5000000780A4A694601F0F5FD0028DFD120468F
:10C51000641EE4B20028ECD1054A0021024800F074
:10C520004DF8F8BDF41E0020B8FC0100C5D901008B
:10C5300019D70100BFF34F8F04490348C860BFF308
:10C540004F8F00BFFDE700000400FA0500ED00E09A
:10C550000EB50021029000916A4601910148FFF753
:10C56000E9FF0EBD0140000010B58268C368934228
:10C5700003D001F0C1F9002010BD052010BD002935
:10C5800006D0002A02D0531E134203D00920704760
:10C590000E2070470160838000218160C1600846E1
:10C5A000704710B58268C3689A1A83889A4203D884
:10C5B00001F0ACF9002010BD042010BD094B9B68B0
:10C5C000002B07D0002A07D0002805D00068037C84
:10C5D000002B03D008207047072070474174426148
:10C5E00000207047081F0020FFB59007002581B08C
:10C5F00014460E46002832D11B4F002C31D002F0D9
:10C6000039FA04987861032038703346182122469D
:10C6100000204B43BC601834C10089180D704D7068
:10C620008E704C601C19401C0328F5DBFD607D708A
:10C6300001240E48BD702405046003211420FFF777
:10C64000FDF80B4804600B4C0198A06003211120F9
:10C65000FFF7F4F860683861002005B0F0BD0720EE
:10C66000FBE7BD60FBE70000081F002080E200E060
:10C6700000E100E000150140FEB50D461B491746DC
:10C680008968044600292AD0002C28D0052D01D223
:10C690000720FEBD6069002821D0607C012820D0E1
:10C6A000002603F00FF8C000104901908968401877
:10C6B000694603F031F8002815D0012101700C49BA
:10C6C000446049680830E2C0084901988968411807
:10C6D00068460078487002F0B3FD0020FEBD0820D7
:10C6E000FEBD2E46DDE70420FEBD0000081F002031
:10C6F00000150140F8B5134D0446A96800291CD067
:10C70000002C1AD06069002817D00026267402F089
:10C71000D9FFC700A8686946381802F0FDFF002855
:10C720000DD0022101704460A8683918684600786D
:10C73000487002F085FD3046F8BD0820F8BD0420A1
:10C74000F8BD0000081F002010B5044609488168A4
:10C75000C2688088511A814207D10121064801F040
:10C76000BBFD002801D0052010BD21460148FFF780
:10C77000FBFE10BDD4230020ED1E002070B5044642
:10C78000224888B01E460D0042601CD0A888296847
:10C7900082B21F48FFF7F3FE002815D1A889A968C7
:10C7A00082B21B481030FFF7EAFE00280CD120228D
:10C7B00018496846FEF7D0FCA0680690207900284A
:10C7C00004D0012103E0072008B070BD00216846B5
:10C7D000017506776079002800D00E2069464875FB
:10C7E000E0780290A0780390207801906078009023
:10C7F0000949684601F00CFD0028E5D101F092FDE1
:10C8000002480121401C01F067FDDDE7EC1E00201D
:10C81000D423002078FC0100B5F3010010B50146D7
:10C820000A48FFF7BEFE04000ED101F021FE0028E9
:10C830000AD107490548FFF797FE002804D10121D6
:10C84000034801F0C9FD0446204610BDE423002042
:10C85000EC1E002070B500280AD00F4D2978002961
:10C8600008D0044602F0EAF8002805D0002070BD88
:10C870000E2070BD082070BDE868062809D2074A5E
:10C880008100891822880A8062884A80401CE860FA
:10C89000ECE7042070BD0000DC1E0020DC2100203D
:10C8A000002808D0002205490123CA600B708A6065
:10C8B0004860104670470E2070470000DC1E0020C4
:10C8C00010B5002811D000290FD0124A1278002A82
:10C8D0000BD00A88112A11D0302A07D0322A09D069
:10C8E000332A02D1091D01F023FF10BD091D01F0FB
:10C8F0007FFF10BD091D01F0A3FE10BD8A88FF2136
:10C90000AB31095A8A42F8D10021FF30A130C17100
:10C9100010BD0000DC1E002010B50B4600280ED014
:10C92000144A117800290CD0D168002909D0044696
:10C93000FF34A134E179002905D0112010BD0E206B
:10C9400010BD082010BDFF21AB310B5200219160BA
:10C95000024621720848A1710188118040885080E8
:10C960000121184690DF0028ECD10120E071002061
:10C9700010BD0000DC1E0020DC21002010B50446A4
:10C9800001F00EFE204600F003FA21460448FFF7AE
:10C9900097FF03482146203800F09CF810BD0000A6
:10C9A000E0240020FEB5054608780C46012806D094
:10C9B000022816D0032801D102F0B6F8FEBD2246A7
:10C9C00061880A32284600F04FF8002801D0FFF7AE
:10C9D000BFFD284600F0E8F80028EFD0FFF7B8FDCB
:10C9E000FEBD12A0FFF78AF814486D46017D837DD5
:10C9F000427D0EC5C37C827C417C11A0FFF77EF88E
:10CA0000002506E06068405DFFF708FF0028F9D1C7
:10CA10006D1C207AA842F5D8114EB570B2786168C5
:10CA20001048FEF799FB01203070FEBD5B46726F27
:10CA30006D20424C455F505D20000000C024002066
:10CA4000253032783A253032783A253032783A2516
:10CA50003032783A253032783A253032782000006A
:10CA6000B01E00205C21002000280AD04180002A4E
:10CA700005D05188C1801188818091880181002072
:10CA800070470E207047000030B5114B0D46040072
:10CA90000FCB85B003936B4607C317D0002D15D07D
:10CAA0002146684663DF00280ED1217868468174EC
:10CAB00001210182881E60802868E0600020A0803B
:10CAC000208104A8FFF7C6FE05B030BD0E20FBE7AD
:10CAD00050FC01001FB500282DD000292BD0428822
:10CAE000154B9A4202D08C88A24224D10C88112C7A
:10CAF00014D0392C1FD18288002A1CD08B899342F4
:10CB000019D1C268002A16D002236A4613700A4659
:10CB100012320192097C6A46117209E089889142B9
:10CB200009D1C168002906D003216A4611704380EB
:10CB3000C268694690471FBDFFFF00007FB5002215
:10CB400000920192029203920B460A780E33002A59
:10CB500029D18A88012A26D18A790478A24222D151
:10CB6000002213E00C2454431D5B022D02D0032D40
:10CB70000BD104E0E41824896D46EC8105E0E4184B
:10CB800026896D466E816489AC81521C0C7A944270
:10CB9000E8D8C268002A06D04A8869464A8001223D
:10CBA0000A70C26890477FBD1FB5010018D0488841
:10CBB0000D4A904216D0C988002913D001236A4635
:10CBC000137300235373094B1A695B690092019335
:10CBD0006A46518003A90291694698DF04B010BDEE
:10CBE0000E20FBE70820F9E7FFFF000050FC0100E2
:10CBF0003EB5002803D0142A03D907203EBD0E20DD
:10CC00003EBD4388094CA34201D108203EBD084DDA
:10CC100038CD00930295019404896B465C80DA80DC
:10CC200002914088694698DF3EBD0000FFFF00008A
:10CC30006CFC010000B5174887B0406805900023E0
:10CC40004822154905A802F00DF9002801D0FFF788
:10CC50007FFC6A460021012002F0ECF8002801D098
:10CC6000FFF776FC0D4801F071FF002801D0FFF7B7
:10CC70006FFC684602F0D4F8002801D0FFF768FC8A
:10CC8000074802F0C3F8002801D0FFF761FC07B0A5
:10CC900000BD0000C0FC010078240020E01C002042
:10CCA0007DC9010030B5174C9DB02078002827D0F1
:10CCB0006520C000FEF75CFE17281FD11248857D55
:10CCC000437D027DC17C03956D460EC5837C427C0D
:10CCD0000EA104A8FEF722FF04A8FEF761FA82B2B3
:10CCE00004A9012001F080FFA2781349012001F07E
:10CCF0007BFF002802DA012000F014FB00202070E6
:10CD00001DB030BDB01E0020C02400205B46726FF5
:10CD10006D20424C455F505D20253032783A2530F9
:10CD200032783A253032783A253032783A25303226
:10CD3000783A2530327820005C2100207CB5134EF3
:10CD400000250C463060002918D06946002000F00C
:10CD5000B5F8002819D101A9012000F0AFF800288A
:10CD600013D1684601790020002901D0022004E097
:10CD700069460978002900D00B20207070680028CF
:10CD800002D1FFF760FB054628467CBDD41E00207B
:10CD900010B51C4C0188606810290DD011290AD1EA
:10CDA000401E606007D1FFF74EFB002803D02168CA
:10CDB000002900D0884710BD00281ED10021012283
:10CDC000084600F0B3F8002801D0072811D1072247
:10CDD0000221012000F0AAF8002801D0072808D17C
:10CDE00004220221002000F0A1F8002805D0072825
:10CDF00003D02168002900D088476068401C60602B
:10CE000010BD0000D41E002010B5032000F00CFA65
:10CE1000002801D0062800D1002010BDF8B5074633
:10CE20000024234802E0641C042C1AD2A200825879
:10CE3000BA42F8D1042C14D21D481E4E0C380029D9
:10CE400029D001290ED002290BD1600020188019A9
:10CE50004578002D05D018480169002901D02846E1
:10CE60008847F8BD61006118755C8E1971780029DA
:10CE70000CD011490A224968806851430E4A521C5D
:10CE8000FFF7FAFB002801D10B4847700A48B17838
:10CE900014300155DDE78068FFF72CFC064861007F
:10CEA000611814308919005D8D78A842D1D0F8BD81
:10CEB00020FC0100B0210020BC1E002004280CD260
:10CEC000074A1269074B80001B5C01209840904381
:10CED00000D001200870002070470020FAE7000011
:10CEE0000005005020FC010010B5042813D00A28CA
:10CEF00010D1002000F03EF8002801D0FFF728FBF9
:10CF0000FFF782FF002801D0FFF722FB3CDF08E09B
:10CF1000FFF71EFB10BD04481321408876DF082868
:10CF2000F8D00028F4D110BDC024002070B5002333
:10CF3000042811D2440004190D4D012A02D10129FF
:10CF40000DD0002246008019094E801900290CD00E
:10CF5000012906D0022906D00723184670BD0D30DE
:10CF6000C2B22A55F9E74270F7E78270F5E7000090
:10CF7000B021002010B5054A0146127A0020D207E0
:10CF800002D0084600F054F810BD0000BC1E00207E
:10CF900070B50E46204905464E608D6000200A613E
:10CFA000A9071ED50024012211462046FFF7BEFF27
:10CFB000641C042C02D20028F5D012E0002810D105
:10CFC000720804211548FFF77BFA002809D1FFF702
:10CFD00065FA002805D11148114A00211438FFF7DD
:10CFE000EDFAE90706D00F220E4952058A600023A8
:10CFF000CB608A6100280DD108480B4A00211C38FB
:10D00000FFF7DCFA002805D10448084A0121183846
:10D01000FFF7D4FA70BD0000BC1E002030FC0100F8
:10D0200065D2010000050050FDDB010085C4010050
:10D03000FEB57A4D0722EB6892059A4302936B681E
:10D0400000939C0006461B1900200121019349050D
:10D050000746734C3300FEF78CFD180D1515374746
:10D0600055677C887F8891DE9E9E9E9E9EC8CED10D
:10D07000D8DEDE140F21029A49059143A160E760D2
:10D080002F70FEBDA260E76060680F22520550401D
:10D09000800209D5A160E760022E02D1E120C00024
:10D0A0000AE07D20400107E0E160A760022E01D187
:10D0B000C82001E0FF2091302E706421FEF736F881
:10D0C0000099414300223FE0A260E76060680F22C0
:10D0D00052055040800204D5A160E760192040014C
:10D0E000EAE7E160A760E3E7A260E76060680F221B
:10D0F00052055040800202D5A160E760D1E7E160AF
:10D10000A760D7E7A260E76060680F225205504031
:10D11000800202D5A160E76001E0E160A7602E70A7
:10D120000098410000220FE0A260E76060680F22D3
:10D1300052055040800202D5A160E76001E0E16045
:10D14000A7602E700099002236480068FFF794FA15
:10D15000FEBDA260E7601BE0616801208005024619
:10D160008A43A2600140E16010E060680121890506
:10D170000A468243A2600840E060E3E7606801215C
:10D1800089050A468243A2600840E0600199C9E728
:10D19000E160A7602DE023484068FFF7ABFA11215A
:10D1A0008A1B01D0002807D00F22E96852051140E0
:10D1B000A160E760EF60FEBD0121C905E960012AB9
:10D1C0000CD91046C82148436421FDF7AFFF6968B8
:10D1D0000022414313484068FFF74EFA0F22E968E6
:10D1E00052051140E160A760FEBD0F214905A16015
:10D1F000E7602E70FEBD07229205AAE70D214905C2
:10D20000A160E76001218905C2E70321C905A1608A
:10D21000E7608910BCE70F214905B9E7BC1E002073
:10D220000005005014FC0100F0B500210B4C0C4D22
:10D2300003273F048A00A25892005619326801233E
:10D240008B40034000D00323BA431B0413433360D5
:10D25000491C0429EED30020F0BD000020FC010091
:10D260000007005010B500780221FFF7D7FD10BD70
:10D270000022D243830004490428CA5002D308186C
:10D280002030027770470000F4230020F0B500251D
:10D29000ED43002A02D00023042601E004230826DF
:10D2A0000B4C04E09F00E7597F1C04D05B1CB34289
:10D2B000F8D32846F0BD26185DB2203635709E00A2
:10D2C000A151002AF5D1E11820310877F1E70000DB
:10D2D000F423002002490918202008567047000056
:10D2E000F423002038B50B460146FF310246A13138
:10D2F00088794624604380184A79002A08D0521E53
:10D30000D2B20C214A431118498A6A46491C01E0ED
:10D31000C1886A461180008950801146184692DF04
:10D3200038BD000070B50446082802D90020C0436B
:10D3300070BD65012846FF30093006461021FEF712
:10D340007BFB3046FEF714FB0028FAD14120C000D9
:10D3500028181F21FEF770FB0C4901204A88A040C5
:10D3600082434A808A8882438A80094A0020610079
:10D3700050520649891D08556120C0002C182046CE
:10D38000FEF7F6FA0028FAD1012070BD6C1F0020CC
:10D3900098280020F8B52348C16800293ED00E68BF
:10D3A00021494C680769C078E11B0D022D0AED1C6C
:10D3B000002814D101201D4A000450601B4A403A45
:10D3C00050601B49400008601A4908601A49012052
:10D3D00008602F20FDF77EFE12490120C870B5427B
:10D3E00000D23546E81900020F4B000A403318609E
:10D3F0000D4A5168001B091B0902090A0002000AB4
:10D40000C91C814209D9506818602F20FDF762FEBF
:10D4100001200749400480390860F8BD01F02AFB6B
:10D42000F8BD0000081F0020001501404013014016
:10D4300080E200E000E100E000100140F7B50E4698
:10D440000746082802D90020C043FEBD78010830F5
:10D45000FEF78EFA0007000F012802D00420C04317
:10D46000FEBD61207C01C00020180546FEF780FA51
:10D47000132802D00220C043FEBD3078717800022C
:10D480004018B17800024018F17800024018411CA1
:10D490002AD0002828D00298002828D02448042226
:10D4A00020183146FEF7F4FA0298010A21482018A4
:10D4B000FEF7C2FA0298C1B21F482018FEF7BCFA64
:10D4C0002046FF30093006460421FEF7B5FA304603
:10D4D000FEF74EFA0028FAD1184901204988B840D1
:10D4E00008421AD00020FEBD0B20C043FEBD0A201A
:10D4F000C043FEBD2046FEF73BFA000706D5204696
:10D500000821FEF799FA0C20C043FEBD2846FEF71D
:10D510002FFA002804D1001FFEBD4120C0002418AE
:10D520002846FEF725FA1728E4D10120FEBD0000A9
:10D53000080C000008100000081100006C1F0020FB
:10D5400010B50C460300FEF714FB0604080C10147B
:10D55000181D084602F028FA12E0084602F082F987
:10D560000EE0087802F04CFA10BD02F0A7F9207026
:10D5700006E0084602F056FA02E0084602F0A3F977
:10D58000002010BD0020C04310BD0000F8B50C46BF
:10D59000074600211322052508461202AD024E1E41
:10D5A0003B00FEF7E6FA10090C18141B1F232D365A
:10D5B00043464A564E52585E02F04AFA49E0002C61
:10D5C00002D021462046083102F090F9F8BD2088AB
:10D5D00002F00EF93DE002F027F905E0208802F0A4
:10D5E000D5F936E002F02FF9208032E02088010AD8
:10D5F0001046FEF721FA21782846FEF71DFA28E0AA
:10D600001046FEF7B5F906022846FEF7B1F93018C4
:10D61000EAE7154882782270C27862700279A270B7
:10D620004279E27080792071617112E002F08DFA26
:10D630000FE0204602F09DFA0BE0204602F049FA86
:10D6400007E0207802F0B6FAF8BD02F072FA04E0C2
:10D6500020700020F8BD02F063FAC0B241B2491C4C
:10D66000F6D13046F8BD0000841F002010B50146F9
:10D670000148FFF763FA10BDC024002010B504482C
:10D68000FFF70EF9002801D0FEF762FF10BD000081
:10D690006DD60100F7B50546FF350646A135A879D8
:10D6A0004621484387196C790C206043C1193A79A7
:10D6B000601C0A3182B0904226D101AB0022304674
:10D6C00000F0E4F9002822D010E0401EA04201D171
:10D6D000002003E00C206043C01916300246009081
:10D6E00001AB304600F0D2F9002807D003980021A2
:10D6F000017001A9049893DF05B0F0BD6879009925
:10D70000401C641C6871E4B23879A042DDD80398EB
:10D71000012101700020EFE7F8B500260124154D26
:10D7200023E06968F0004718387821462A6981406B
:10D73000114218D08A432A6100F02EFD3A78214622
:10D74000EB68914019400346934099420BD1797898
:10D75000012901D0012100E000217B684140002B1C
:10D7600001D010469847761CF6B228788642D8D366
:10D77000F8BD0000F41E0020F8B50646082802D9BE
:10D780000020C043F8BD700101250830FEF7F0F815
:10D790000007000F012801D0A81FF8BD7401204622
:10D7A000FF30093007460821FEF746F93846FEF7F4
:10D7B000DFF80028FAD11148B5408188A94381805B
:10D7C000408805420CD00020F8BD2846FEF7D0F86E
:10D7D00000070BD53046FFF7A5FD0C20C043F8BD70
:10D7E0004120C00025186120C00024182046FEF703
:10D7F000BFF80028E9D10120F8BD00006C1F00200F
:10D80000F7B5FF21A7311446095C462251430F1892
:10D81000384601F013F9060033D01A4A90680628FA
:10D820002FD22146144650225043174D462240190C
:10D8300041803946001DFDF78FFC01980027002824
:10D8400004D0A068502148432F5404E0A06802216E
:10D85000502250432954A068502141434919401C8B
:10D86000CE64A060E16888420BD1002605E050201C
:10D8700070434019C16C8847761CE0688642F6D335
:10D88000A760FEBDDC1E0020F421002030B50D464F
:10D89000FF21A7311446095C4622514393B0081872
:10D8A00001F0CCF8030005D06846448001210170E6
:10D8B0000195984713B030BD10B50E4900234A7842
:10D8C0008C78A24212D0521CD2B24A70022A00D1E5
:10D8D0004B704A78074B920018339A5802600869D7
:10D8E00010180002000A0861012010BD036000202A
:10D8F00010BD0000081F0020826883881A4003685A
:10D900009A5C0A708168491C81607047C26883888C
:10D910001A4003689954C168491CC160704710B52A
:10D920000446C0B2FEF77AFF204610BDF8B5104994
:10D93000400145180F49002644182846FEF718F8FC
:10D9400007462046FEF714F83902401807043F0C3A
:10D9500009D02846FEF70CF806462046FEF708F8E0
:10D960003102401886B2BE42E7D13046F8BD000011
:10D970000826000008270000F8B5104940014518A6
:10D980000F49002644182846FDF7F2FF07462046B7
:10D99000FDF7EEFF3902401807043F0C09D0284676
:10D9A000FDF7E6FF06462046FDF7E2FF310240188C
:10D9B00086B2BE42E7D13046F8BD00000820000024
:10D9C00008210000F8B50746104E0125BD4030681B
:10D9D000FEF790FE00280DD10D4C2069284207D19A
:10D9E000384600F0D9FB0028E06804D0284303E063
:10D9F000A8432061F8BDA843E060206900222843C5
:10DA00002061A1683068FEF737FEF8BDB8FC010060
:10DA1000F41E0020F8B51C4C2078002833D0206973
:10DA2000002807D00026E068002805D00025002E39
:10DA300004D011E00126F6E70125F8E7684652DF39
:10DA4000052804D0002804D0FEF782FD04E001265A
:10DA500002E0216900988847002D10D1608869464E
:10DA60000880A06861DF052804D0002804D0FEF7F4
:10DA70006FFD04E0012502E0E168A0688847002E00
:10DA8000DCD0002DD3D0F8BD2C1F002030B5098983
:10DA9000002A05D0D088491C814213D1002030BD16
:10DAA0000246FF32A132947946256C43241824891A
:10DAB000A142F3D0491C198091794622514308189C
:10DAC000008902E01980D088401E5880012030BDB6
:10DAD0001048018CC9B2012917D1818C090714D1D2
:10DAE000018D09060A0F03D1828D1206120F0ED086
:10DAF000090F012903D1828D1206120F07D00329C5
:10DB000003D1808D0006000F01D000207047012056
:10DB100070470000C00F00F0F3B500240D4683B03D
:10DB20008E46093562E0285D29190190487802285F
:10DB30000AD0032808D0042823D0052821D006289D
:10DB40003CD007283AD04EE001980026470815E05F
:10DB500070000019411902206A46891C64DF002800
:10DB60000BD16846018803980088814205D1684638
:10DB7000817803988078814232D0761CB742E7D80A
:10DB800031E001980026870815E0B000001941191E
:10DB900002206A46891C64DF00280BD16846018890
:10DBA00003980088814205D168468178039880787F
:10DBB000814215D0761CB742E7D814E010206A469F
:10DBC000891C64DF00280ED168460188039800880C
:10DBD000814208D16846817803988078814202D1D9
:10DBE000012005B0F0BD01982418641C7046007A2D
:10DBF000C008A04297D80020F3E7000010B5044801
:10DC0000017AC90702D00078FFF712FA10BD0000B0
:10DC1000BC1E0020F8B52C49C8680A690C780F7939
:10DC200089688646944600913EE00099E2005518C6
:10DC30002A7836E0182353436968521CC918AB7818
:10DC4000D2B2934200D100220B78022B02D0032BD8
:10DC500027D123E04E680346014603E0B14204D0D9
:10DC60000B46C96900291CD0F8E7002919D08B425E
:10DC700008D1C069002805D1144F0126BE600026D6
:10DC8000B44601270E68C969D961002909D00B681B
:10DC90009B190B6005E00174C06900E000210028B9
:10DCA000F9D169789142C5D12146641EE4B20029B8
:10DCB000BBD1054962460A61C8600F71704501D049
:10DCC0000120F8BD0020F8BD081F00200010014011
:10DCD000F8B5044631480026C168009107784EE047
:10DCE0002E48F90080680D1843E0002C02D0204631
:10DCF000E4691FE02878182141436A68401CC0B2DB
:10DD000051182870AA78904200D12E700A7848687D
:10DD1000012A30D1027C002A2DD18A684260CA686B
:10DD200082600A69C260496981611C4909790029D8
:10DD300000D04660194943680A699C46991A09024D
:10DD4000174B090A994202D28268891807E0614696
:10DD5000511A09028268090A8A4202D9511A0160DD
:10DD600000E006604660012186600174C66101F032
:10DD70006FFA002CB9D1287869788842BAD1384630
:10DD80007F1EFFB20028ABD10448C16800988142D1
:10DD900001D00120F8BD0020F8BD0000081F0020C0
:10DDA000FFFF7F0008B50023374A03211846FEF71E
:10DDB0001BFC002801D0FEF7CBFB0321334801F008
:10DDC00051FB344D324A29460120FFF7E1F8002883
:10DDD00001D0FEF7BDFB69460020FEF7AFFF00282B
:10DDE00001D0FEF7B5FBFFF749FCFEF723FF2A48F9
:10DDF00000F0C2FB01F050F801F0EAFB274A0121D4
:10DE00002748FEF7DBFB002801D0FEF7A1FB2448E2
:10DE1000244A0121001DFEF7D1FB002801D0FEF7A6
:10DE200097FB1F48204A01210830FEF7C7FB002856
:10DE300001D0FEF78DFB1A4C01210022C903206896
:10DE4000FEF71AFC002801D0FEF782FB00222946CB
:10DE50006068FEF711FC002801D0FEF779FB002274
:10DE60002946A068FEF708FC002801D0FEF770FBE9
:10DE700000F05AFE0DA0FDF741FE48DF0028FCD05F
:10DE8000FEF766FBF9E70000242000205DF30100A7
:10DE9000E9CE0100CD0C0000A5C901000DF0010084
:10DEA00008FC0100A5CC010055F101005363616E2F
:10DEB00020737461727465640D0A000010B586B039
:10DEC00020490020FFF73CFB1E490120FFF738FBEB
:10DED00003A90820FFF75AFB03A91BA0FDF70EFEBC
:10DEE000184C6B46E0786279217907C3A378627891
:10DEF00021781BA0FDF702FE607A0090237AE27978
:10DF0000A17921A0FDF7FAFD607C0090237CE27BE3
:10DF1000A17B22A0FDF7F2FD607B0090237BE27ADB
:10DF2000A17A23A0FDF7EAFD607D0090237DE27CCD
:10DF3000A17C24A0FDF7E2FD27A0FDF7DFFD06B0E0
:10DF400010BD0000481F00200D0A3D3D3D202573F7
:10DF5000204E455420434F4E46203D3D3D0D0A0086
:10DF60004D41433A20253032583A253032583A252F
:10DF70003032583A253032583A253032583A253026
:10DF800032580D0A000000005349503A2025642EF3
:10DF900025642E25642E25640D0A00004741523A5F
:10DFA0002025642E25642E25642E25640D0A00008C
:10DFB0005355423A2025642E25642E25642E25646F
:10DFC0000D0A0000444E533A2025642E25642E2568
:10DFD000642E25640D0A00003D3D3D3D3D3D3D3D27
:10DFE0003D3D3D3D3D3D3D3D3D3D3D3D3D3D0D0AC4
:10DFF000000000008207D30EFF229A408907090E15
:10E0000010B5994000280BDA03071B0F083B9C084A
:10E010000C4BA400E318DC6994430C43DC6107E07B
:10E020008408094BA400E418236893430B4323603E
:10E03000C106C90E012088400449086004490860EF
:10E0400010BD000000ED00E000E400E080E200E030
:10E0500000E100E0F3B581B00F46019800F036FC16
:10E06000012400281E4E019817D0FFF733F98019BC
:10E070002030007F8009032802D0012806D007E065
:10E080001848006901998C40204201D1022100E02A
:10E090000321019800F048FAFEBD00F023FC00289F
:10E0A000FAD00198FFF716F905468100C81D0E4AFF
:10E0B000F93089180A6980B222430A610B49401875
:10E0C00000210160002FE7D00198FFF703F98000DD
:10E0D00030580028E0D00648AC404460FEBD000047
:10E0E000F42300200005005000650040006000405F
:10E0F00000630040FEB5044623480E460019202167
:10E1000041560027C8171346401C01D0082738E0A5
:10E11000F27819462046FFF7B9F80546401C2FD083
:10E12000B078002807D01948A10009180868022211
:10E130009043086007E000217378204600910A466A
:10E14000019100F09DF9F078002810D01048AA0045
:10E150001018317802690F4B1A400261E206D20CA6
:10E160008907890B0A4301690A43026109E00648ED
:10E17000327840192030017F92011143017700E08D
:10E1800004273846FEBD0000F4230020000700509D
:10E1900000650040FFE0FCFF03490969C140C80772
:10E1A000C00F00D0012070470005005070B5124D1F
:10E1B0002879002801D0082070BD0F49002040397F
:10E1C000421E0B182033401CC0B21A702028F8D30E
:10E1D00000242046FFF74CF8641CE4B2082CF8D366
:10E1E00003210620FFF706FF01200449C00748600D
:10E1F00001202871002070BD3424002000630040FD
:10E2000002480079002800D0012070473424002003
:10E21000F3B52A4C0746E07E81B0002801D00820E3
:10E22000FEBD002F00D1264F0126387831468140AF
:10E2300024488160386800F062F90021786800F0B5
:10E2400055F9214DB8696862787D397D0843E866E3
:10E2500003CFE8606961387B083F01280FD10021B6
:10E26000B86800F043F9387B314681401548816039
:10E27000F86800F044F9F968B868A9602861029864
:10E2800060603969216000280ED0FF230F481D33DC
:10E29000397F0022C250FF234533C2500D4A0C483B
:10E2A00050600220FFF7A6FE042028600020E075E1
:10E2B0002076A075E676A076FEBD00003C24002006
:10E2C00098FC01000005005000250040002000409F
:10E2D0008000020000230040F8B5104B81245E68E6
:10E2E0000022A4000E4D002E00D0AC60DF7D002F78
:10E2F0000BD01A7E002A04D0002E00D06C601120B2
:10E30000F8BD18610122197604E0D9750024D8609F
:10E310005C761C7600F012F8F8BD00003C2400206A
:10E320000023004010B5044CA07E002803D100F06B
:10E33000EDFB0120A07610BD3C240020F8B5234D54
:10E34000A87E104301D100F0E1FB6868204C002852
:10E3500005D081201F49800048600020F8BDFF20C3
:10E36000453000212150FF212531204600F0F6F8EC
:10E370000546FF210931204600F0F0F80746FF214D
:10E380004531204600F0EAF8064639463143294334
:10E39000E9D02846304306D100F08EFB0B48C17D02
:10E3A000407E8142DFD800210848002DC17501D090
:10E3B0000320F8BD002E01D00F20F8BD817E012082
:10E3C000002901D02060C8E76060C6E73C24002037
:10E3D000002000400023004010B5034600F048F83C
:10E3E000002801D0112010BD034A002091759360D0
:10E3F000908200F003F810BD3C240020F8B5002600
:10E40000194FFF251D357E510120B86000F080FFB7
:10E41000164C6168002910D022E0FF2701372946F9
:10E42000114800F09BF8002802D1A08AB842F6D12A
:10E43000A08AB84201D000F06BFFA08AA17D88427B
:10E44000EBD3A18AC81FF9380CD0074F29463846AC
:10E4500000F084F80028F9D00120F8600020A075B1
:10E460003046F8BD0F26F9E7002000403C2400208C
:10E470000248807D002800D0012070473C24002005
:10E4800030B552000A439900039C0A432102049DBF
:10E490000A4329040A43024980004018026030BD43
:10E4A0000007005030B552000A439900039C0A430C
:10E4B0002102049D0A4329040A43024980004018AE
:10E4C000026030BD0007005030B552000A43990089
:10E4D000039C0A432102049D0A4329040A4302497A
:10E4E00080004018026030BD000700501CB50022BB
:10E4F0000B46009211460192FFF7D4FF1CBD1CB5DC
:10E50000002100910B46012201911146FFF7CAFF3D
:10E510001CBD1CB5002100910B4601220191114642
:10E52000FFF7D2FF1CBD00008200064810180268E9
:10E5300003231B049A430260026809040A43026031
:10E540007047000000070050034940180068012888
:10E5500000D00020704700000060004040580028B4
:10E5600000D0012070470322120280184068084042
:10E5700000D001207047000008B5009069460748A8
:10E58000FEF782FA002801D0FDF7E2FF03481730BA
:10E5900071DF002801D0FDF7DBFF08BDC02400209B
:10E5A00010B50446011D00881B283ED00DDC102844
:10E5B0002ED0132808D10023A0881A4685217FDF9A
:10E5C000002801D0FDF7C4FF10BD1D2805D01F286D
:10E5D000FAD10888091D75DFF2E7091D0C461648B7
:10E5E000FFF79AFA0028EFD0134A20460832114666
:10E5F00008318CDF0028E7D1FEF7BCFC002801D0F1
:10E60000FDF7A6FF072221460C48FCF7A5FD10BD2B
:10E610000720FEF7AFFC002801D0FDF799FF07485F
:10E62000A1881030FEF778F9CAE708790228EED100
:10E6300000F07AFA10BD0000C0FC0100D0240020D8
:10E64000F3B583B003980C46FF3081300988408DC4
:10E6500081425BD1039F4621FF37A137B8794843F8
:10E6600003994618608800283DD120460830019063
:10E670003579207A2818052800D905203071002026
:10E68000009014E000980A21484301990A22411899
:10E690000C206843801902900A30891CFCF75CFD4D
:10E6A0000298002181820098401C6D1C00903079F6
:10E6B000A842E7D80C204543A819C288B879462358
:10E6C000039958434018008982420CD230790528BA
:10E6D00009D0787121880398FEF704FE010015D057
:10E6E0000020F87109E000257D71228869460398B1
:10E6F000FEF7D0FF01000BD0FD7122880398FFF7D1
:10E70000C5F80A48032101702188418005B0F0BD99
:10E71000684600780028F9D0228801210398FFF785
:10E720006FF82188039800F09BF8EFE7F4210020B0
:10E73000F8B50546FF300C4681300988408D81428E
:10E7400043D12E46FF36A136B079462148434219BF
:10E7500070790C23584380180A3086462146608819
:10E760000831002813D10F881F4BBC460DE0062747
:10E7700047437F18BF889F4206D10623584340185D
:10E7800041887046418102E0401C8445EFD8002753
:10E790006846077070791179401C884203D10120C6
:10E7A0006946087016E07071228869462846FEF7AF
:10E7B00071FF01000AD0F77122882846FFF766F83A
:10E7C0000A480321017021884180F8BD684600781D
:10E7D0000028FAD0228801212846FFF711F8218865
:10E7E000284600F03DF8F8BD02290000F421002081
:10E7F00070B50646FF360C460546A136B07946216F
:10E8000048434119FF20AB302288405B82420AD145
:10E810006088002808D000212846FEF7F1FF2188F3
:10E82000284600F01DF870BD62890A80A2894A80DE
:10E83000E289CA80208A088121882846FEF752FD95
:10E840000100F0D00020F07122882846FFF71EF862
:10E850000248032101702188418070BDF42100200D
:10E86000F8B50446FF340646A134207A0F46401C12
:10E87000C0B214492072C968002588421FD2657150
:10E88000A0794621401CC0B241438A19A0710E49AB
:10E890008000401801881180408850801571012146
:10E8A000384690DF010009D0E5713A463046FEF760
:10E8B000EDFF05480321183001704780F8BDE57170
:10E8C000F7E70000DC1E0020DC21002004490818C6
:10E8D00020214156042901DB0120704700207047A8
:10E8E000F42300200449081820214156042901D2AC
:10E8F0000120704700207047F4230020F7B584B052
:10E9000004981446082803D90020C04307B0F0BD7E
:10E91000400101250830FDF72BF80007000F012802
:10E9200001D0A81FF2E7002C20D0049846012A4805
:10E930003018FDF71DF88006000CA04200D20446F6
:10E940006120C000301802902448301801900498CB
:10E95000854000950498FEF7E9FF05460298FDF70B
:10E9600007F8172817D01C2803D00EE00D20C0434D
:10E97000CCE7002D1AD10498FEF7FEFF0746019858
:10E98000FCF7F6FF8002874205D10498FEF7CAFC27
:10E990000620C043BAE7124900984988084203D0CC
:10E9A000002D03D10020B1E7002DD3D0A54200D225
:10E9B0002C4622460599049800F0C2FEFF3609361F
:10E9C00040213046FDF738F83046FCF7D1FF0028EB
:10E9D000FAD120469AE70000081E0000081F000038
:10E9E0006C1F0020064A002804D0002902D0516183
:10E9F0001061704703481061034850617047000080
:10EA0000841F002015F8010013F8010010B5084A12
:10EA100013889C05FDD5002804D0002902D0D161BF
:10EA2000906110BD034890610348D06110BD0000A3
:10EA3000841F00204BFA01004FFA0100F0B50C4B87
:10EA400000210A4ADC680CE08D00AE18B6788778A1
:10EA5000BE4205D1555B0688B54201D15868F0BD6C
:10EA6000491CA142F0D30020F0BD0000DC210020B1
:10EA7000DC1E002070B501240B49600408600B49BE
:10EA800040108860094940398860094D6C602F202A
:10EA9000FCF720FBAC60074D00242F202C61FCF715
:10EAA00019FBEC7070BD000080E100E040130140F4
:10EAB00000100140081F002030B50A48FF21C57D25
:10EAC0000022094C0931094B002D625007D0996989
:10EAD000437EC268D154417E491C417630BD98695D
:10EAE00030BD00003C2400200020004000250040F4
:10EAF0001FB501236A46137010720348019106C8BE
:10EB0000684690471FBD00003C240020FF220548B6
:10EB1000253200218150FF220932815001210160FC
:10EB2000704700000020004010B507488ADF002829
:10EB300001D0FDF70DFD0120FEF71CFA002801D0E1
:10EB4000FDF706FD10BD0000D0FC010008B502492C
:10EB50000020009108BD0000B01E002010B501216A
:10EB6000202805DA1A4A8140114201D1194810BD06
:10EB70008107C90E002808DA0207120F083A920826
:10EB8000154B9200D218D26904E08208134B920010
:10EB9000D2181268CA401106890F042911D200291F
:10EBA0000FD002290DD00E494C68C306DB0E01229E
:10EBB0009A40002C08D0400980000B5813430B509A
:10EBC00004E00448401C10BD06480260002010BD4F
:10EBD000FC06FFBC0120000000ED00E000E400E0C6
:10EBE000401F002000E100E0F7B582B0154607465F
:10EBF000082803D90020C04305B0F0BD78010124E6
:10EC00000830FCF7B5FE0007000F012801D0A01F57
:10EC1000F2E7002D0DD061207E01C0003018009079
:10EC2000FCF7A6FE172807D01C2805D00620C043F5
:10EC3000E2E70D20C043DFE72C48BC408088044257
:10EC400011D04120C00030180190FCF791FEC006A1
:10EC5000C00EC1061FD510210198FCF7EDFE234818
:10EC60008188A143818022483018FCF781FE80060C
:10EC7000000C854200D905463846FEF77DFE01901E
:10EC80000098FCF775FE17280DD01C280BD03846CD
:10EC9000FEF748FBCAE700070CD53846FEF742FBF3
:10ECA0000C20C043A8E711484088044204D00198D2
:10ECB000854201D900209FE701988542DCD82A4689
:10ECC0003846039900F066FDFF36093620213046AC
:10ECD000FCF7B2FE3046FCF74BFE0028FAD10348A1
:10ECE00081880C438480284686E700006C1F002042
:10ECF000081F0000F8B51C4616460F4605460828B2
:10ED000002D90020C043F8BD012F06D0022F0DD03C
:10ED1000042F0BD00420C043F8BD0F200422694605
:10ED20000002FCF751FE0098002809D03348610723
:10ED3000F2D4002C13D0012F05D0022F0FD106E002
:10ED40000220C043F8BD21210C42FBD007E0A10600
:10ED500001D52106F6D5E10601D52106F2D52846D2
:10ED6000FEF7E0FA21096801090139430830FCF790
:10ED700063FE002E0AD12248224A0688711C89B2FD
:10ED80000180914202D103218903018081206F011A
:10ED9000C000310A3818FCF74FFEA120C000F1B2C4
:10EDA0003818FCF749FE3846FF3009300646012185
:10EDB000FCF742FE3046FCF7DBFD0028FAD10120CB
:10EDC000A8400F49E3074A88DB0F8243AB40134357
:10EDD0004B808A8882438A800B4A00206900505207
:10EDE0000749891D48556120C0003C182046FCF7A2
:10EDF000BFFD0028FAD068B2F8BD0000FAFFFFFF9F
:10EE00006C1F0020F0FF000098280020002803D08D
:10EE10000249C860002070470E2070472C1F002058
:10EE20001CB5034901910091694660DF1CBD0000DB
:10EE3000B01E002070B50E4605461446142110463B
:10EE4000FCF7A3F9012000212080216121732672A3
:10EE50006572002D00D0A072002070BD10B5FDF7C6
:10EE600069FB10BD70B5002901D08C0701D00720C7
:10EE700070BD074C0125A16062800649636010DF08
:10EE80000028F5D125701620FFF768FE70BD000040
:10EE90002C1F00205DEE01001CB5044903C901913F
:10EEA00000906946002000F003F81CBDFCFC010046
:10EEB000FEB50C460646012801D90020FEBD0620FD
:10EEC00020497043401806222146FCF745F9A078F6
:10EED000FFF71FFBE078FFF71CFB0025207900956A
:10EEE0002B462A4629460195FFF7EEFA6079FFF78F
:10EEF00010FB1548B100465805221202A378B61837
:10EF0000B3604658E378B618F36046582379B618CC
:10EF100033616379012637469F400C4B9F606378CD
:10EF200047581B06BF187B6223784458A4186365B2
:10EF30004358FF3301339D6043589A181660405878
:10EF4000FEBD00008C280020641F0020000500503A
:10EF5000F0B5002A10D0144B800018581B1F186001
:10EF6000FF24002309342350052424020519EB61F2
:10EF70000419C61DF93609E00020F0BDE361B76849
:10EF8000002FFCD0B360A7691770521C491E0904FA
:10EF9000090CF3D1FF30013081680029FCD0A86949
:10EFA00010700120F0BD0000641F0020F8B5002A99
:10EFB00012D0154B800018581B1F1860FF24002327
:10EFC000093423500524240216780519EE61C61D64
:10EFD0000419F936521C0AE00020F8BD1778E761E1
:10EFE000521CB768002FFCD0B360A7690097491E78
:10EFF0000904090CF2D1FF30013081680029FCD0EE
:10F00000A86900900120F8BD641F00203EB565206E
:10F01000244CC000FCF7ACFC002832D0132811D0DF
:10F020001C282DD1012120A0FCF768FD0120FEF74E
:10F03000A3FB012803D001211FA0FCF75FFD0121E4
:10F0400023A02BE0274C6D46E01C8178C278A36892
:10F050000EC543780278012123A0FCF74FFD2089DB
:10F06000E11C82B20120FEF7E9F9012803D0012159
:10F0700028A0FCF743FD0B222DA10120FFF7B4FDD2
:10F080003EBD0120FEF74EF901212246002308462D
:10F09000FFF730FE0128F3D0012128A0FCF72EFD58
:10F0A0003EBD000050C3000025643A436C6F736599
:10F0B000576169740D0A000025643A536F636B65EC
:10F0C0007420436C6F736564204661696C0D0A009F
:10F0D00025643A536F636B657420436C6F7365648A
:10F0E0000D0A0000B01E002025643A547279207485
:10F0F0006F20636F6E6E65637420746F2074686533
:10F100002025642E25642E25642E2564203A202592
:10F11000640D0A0025643A536F636B657420436F76
:10F120006E6E656374204661696C0D0A0000000014
:10F13000636F6E6E65637465640D0A0025643A53EF
:10F140006F636B6574204F70656E204661696C0D4E
:10F150000A000000F0B5174B00259D440120FEF782
:10F16000E5FB00280FD00121C902884200D30846E0
:10F170000446024669460120FFF7C0FB002816DA64
:10F180000120FEF7CFF80B4B5B429D44F0BD142CE1
:10F1900001D2264600E0142668464719B2B2394625
:10F1A0000548FDF725FD0028F8D1A41BAD19002C5A
:10F1B000EDD1E8E7FCF7FFFFC0240020FEB51F4CAF
:10F1C00000252769E06802906846FEF775FB01900C
:10F1D000FEF720FD06460198002822D00023009863
:10F1E000E16817E00E680A46864202D9301A0860C4
:10F1F00012E0801BF31800261660D668D169B44669
:10F20000002E07D0FE183602360A56606646966013
:10F21000D56115460029E5D12846E160FEF758FD85
:10F2200006E02846FEF754FD002801D1002E02D04A
:10F230000298FEF7AFF800202071FEBD081F0020E5
:10F2400001200249000508607047000000E200E06C
:10F2500010B50E4BD968002906D002680C68A2428E
:10F2600004D8A21A0A60C161D86010BD0B4604E040
:10F270000B46C969121B002904D00C689442F7D3CD
:10F28000A41A0C600260C161D86110BD081F002083
:10F29000F8B51D4DEC68002C34D01C4800274068A0
:10F2A0002969401A0602360A2068B04218D8361A70
:10F2B000C7192246107CE46900280FD00020107482
:10F2C0006B69002B07D0916950699847002805D0D9
:10F2D000FDF73EF902E0516990698847002CE3D1BF
:10F2E0006978A878814206D1401CC0B2A870022873
:10F2F00001D10020A87004490006800D18310F507C
:10F30000FFF79EFFF8BD0000081F00200015014018
:10F31000FF2107481D31002242500648828A816839
:10F32000895C828A521C82820348C1617047000056
:10F33000002000403C240020002500401FB5002193
:10F340006A4611701072044882680192817506C87D
:10F35000684690471FBD00003C24002070B501782E
:10F36000002907D0012901D0022902D14068FDF708
:10F37000EFF870BD0D4C0C4D60782818FDF7E4F9DE
:10F380006078401CC0B2291860702039C97F0A29F2
:10F3900001D01428EDD3627803490548FDF728FC15
:10F3A0000028F8D1607070BD10200020B01E002031
:10F3B000C02400207CB50178284D01290AD00229FB
:10F3C0002FD000292CD129462548FDF7CDF800285B
:10F3D00033D036E04068017821481038FDF7E1F875
:10F3E0001F4C103C002805D001216A461170019085
:10F3F000684608E0A068E168081A012805D10020E5
:10F4000069460870684669688847A068E168081A14
:10F41000A188884204D811480121401CFEF75CFFF6
:10F420007CBD02216A461170C06801900B48012121
:10F43000401CFEF751FF68460CE001210748FEF72B
:10F44000CBFF07488168C0688842E9D1032069463C
:10F4500008706846696888477CBD0000EC1E002083
:10F46000E423002010B50D4C88B01CCC0593049209
:10F470000B4A0092FF22013206940A4B019202933A
:10F4800003920B460246694604A8FDF777F9002867
:10F4900001D0FDF75DF808B010BD0000E0FC0100F0
:10F4A0008C2600208C270020F0B5454D012185B029
:10F4B00049022846FFF757F801270026414C00284B
:10F4C00024D0FF2125312846FFF748F800281DD019
:10F4D000FF2025302E5081203B4980008860A07E8F
:10F4E000002800D16F600221684601703749086822
:10F4F00008600390E17D68460172E0680190E6755E
:10F50000267606CC6846083C90472BE00421284626
:10F51000FFF729F8002825D0FF2109312846FFF7F9
:10F520001DF800281ED0FFF7C7FAE07D617E8842F3
:10F5300018D1207E002808D0627EE168E07520693D
:10F54000E0602676667610460AE0A07E002800D1AC
:10F550006F6081201C4980008860E675607EE168EC
:10F56000FFF7C6FAFF211D312846FEF7F7FF0028F6
:10F570000DD0A18AA07D814202D2FFF7C9FE06E02C
:10F58000FF211D316E50002801D0FFF7D7FEFF216B
:10F5900045312846FEF7E2FF00280ED0FF20453017
:10F5A0002E50A07E002800D02F60E07D002804D0DF
:10F5B000E675607EE168FFF79BFA05B0F0BD0000DC
:10F5C000002000403C240020002300408024004014
:10F5D00000B51C4B87B00FCB049301AB07C31A498E
:10F5E0001A48FFF7FFF91A491A48FFF70FFA1AA04D
:10F5F000FCF784FA01A90120FDF7C8FF401C09D0DF
:10F600001AA0FCF77BFA69460F20FDF7BFFF401CEC
:10F6100004D006E01DA0FCF771FAFEE722A0FCF77B
:10F620006DFA684600780028EDD001216846017522
:10F630007D21C900C18205A800F0F4F9FEF73EFC67
:10F6400007B000BDECFC010019F801007DF90100D4
:10F65000C5FA010069F901005735353030206D6574
:10F660006D6F727920696E69740D0A0057353530F7
:10F670003020504859204C696E6B2053746174756A
:10F680007320436865636B0D0A00000057495A43B5
:10F6900048495020496E697469616C697A656420D3
:10F6A0006661696C2E0D0A00556E6B6E6F776E2069
:10F6B000504859204C696E6B207374617574732EB9
:10F6C0000D0A0000EFF30580C005C00D1AD01038F8
:10F6D00040B2002808DA0107090F083989080C4AE6
:10F6E00089008918C96904E081080A4A89008918D3
:10F6F00009688007C00EC1400806800F012803D0AA
:10F70000032803D002207047002070470120704773
:10F7100000ED00E000E400E042788378521CD2B2B1
:10F72000934200D100220378934201D10020704718
:10F730000A7041684078182250430818704700004A
:10F74000F7B5029900291FD0460110483518284600
:10F75000FCF70EF907020E4834182046FCF708F9AA
:10F76000381887B2380280191830029A0199FCF7CC
:10F770002BF90298381886B2310A2846FCF75CF952
:10F78000F1B22046FCF758F9FEBD00000828000041
:10F7900008290000F7B5029900291FD0460110483A
:10F7A00035182846FCF7E4F807020E4834182046BE
:10F7B000FCF7DEF8381887B2380280191030029A48
:10F7C0000199FCF765F90298381886B2310A284683
:10F7D000FCF732F9F1B22046FCF72EF9FEBD00002D
:10F7E0000824000008250000007870470170704769
:10F7F00010B5C1B2040A0909152009010002FCF77D
:10F800001BF9172021460002FCF716F910BD7047BE
:10F810007047704770470000012002490006886069
:10F82000704700000005005010B515200002FCF7DD
:10F830009FF80409172024010002FCF799F8000240
:10F84000001980B210BD10B50B204002FCF790F8F3
:10F8500004460320C002FCF78BF80002001980B2B6
:10F8600010BD000010B50446014609200622000222
:10F87000FCF7AAF8042221460E319001FCF7A4F807
:10F880002146052004220A310002FCF79DF80F20D2
:10F890000422A11D0002FCF797F807480178A17423
:10F8A0004178E17481782175C07860750248401E06
:10F8B0000078A07510BD00007D1F002010B500204D
:10F8C000FCF756F810BD70B504461B200002FCF78B
:10F8D0004FF8207019200002FCF74AF805020D20AD
:10F8E0004002FCF745F82818608070BDF8B50D4659
:10F8F0000646002400F0ACF8002E14D00022B05CC4
:10F90000001944B2102C17DC521C52B2082AF6DB44
:10F91000134F00246001315DC019FCF78DF8641CA1
:10F9200064B2082CF6DB002D18D0002108462A5CB2
:10F93000511849B2102902DD0020C043F8BD401C17
:10F9400040B20828F3DB074E00246001295D8019CE
:10F95000FCF772F8641C64B2082CF6DB0020F8BDDA
:10F96000081F0000081E000008B56A46012100209B
:10F97000FFF7EEFA6846007808BD00000120024952
:10F980000006C860704700000005005010B5C1B205
:10F99000040A0B204002FCF74FF803202146C00266
:10F9A000FCF74AF810BD000010B5044601460920D6
:10F9B00006220002FCF76CF8042221460E31900169
:10F9C000FCF766F82146052004220A310002FCF704
:10F9D0005FF80F200422A11D0002FCF759F8074828
:10F9E000A17C0170E17C4170217D8170617DC170DD
:10F9F0000249A07D491E087010BD00007D1F002037
:10FA000010B50446C520044202D00020C04310BDFA
:10FA10000020FBF7ADFF204301460020FCF70CF867
:10FA2000002010BD10B5044601781B200002FCF731
:10FA300003F86088010A19200002FBF7FDFF0D2082
:10FA4000A1784002FBF7F8FF10BD00207047704717
:10FA5000F0B5092485B02402062269462046FBF74A
:10FA6000B3FF0422950102A92846FBF7ADFF052646
:10FA70003602042203A93046FBF7A6FF0F273F02F8
:10FA8000042204A93846FBF79FFF80210020FBF7E2
:10FA9000D3FF0020FBF76CFF062269462046FBF7E8
:10FAA000F7FF042202A92846FBF7F2FF042203A96C
:10FAB0003046FBF7EDFF042204A93846FBF7E8FFC8
:10FAC00005B0F0BD01B56A4601210020FFF76EFACE
:10FAD00008BD10B5044617204002FBF749FF410658
:10FAE000C90F21703821084001210022202811D09F
:10FAF00038280FD0627010280ED018280CD020287B
:10FB00000AD0A270082809D0182807D0202805D0CC
:10FB1000E27010BD6170EEE7A170F3E7E17010BD17
:10FB200010B517204002FBF723FFC00700D00120CB
:10FB300010BD10B5172000244002FBF719FF800606
:10FB4000800F00D00124204610BD10B51724640298
:10FB50002046FBF70DFF4106490E2046FBF76CFFE0
:10FB60002046FBF705FF802101432046FBF764FF99
:10FB700010BD10B502780021012A00D14021427841
:10FB8000012A06D0C2788078012A04D0012808D042
:10FB900009E0382006E0012801D0082002E0182002
:10FBA00000E01020014317204002FBF745FFFFF75C
:10FBB000CCFF10BD70B5172504466D022846FBF733
:10FBC000D7FE104E41061AD5C7210840012C11D08E
:10FBD000382101432846FBF72FFFFFF7B6FF2846E1
:10FBE000FBF7C6FE012C07D08006400F002806D088
:10FBF000002070BD3021ECE78006800FF6E730462C
:10FC000070BD0000FFFFFFFFB01F0020D01F0020CD
:10FC1000F01F00207021002090210020BC21002036
:10FC2000110000001200000013000000140000008A
:10FC3000110003001DCE0100120003001DCE0100C3
:10FC4000130003001DCE0100140003001DCE0100AF
:10FC50009ECADC240EE5A9E093F3A3B50000406E34
:10FC6000010100000000020000000000020100008D
:10FC70000000000000000000090000000B00000070
:10FC80000A00000008000000000000000000000062
:10FC900000E0D70103000000090000000B00000095
:10FCA0000A00000008000000000000000000000042
:10FCB00000E0D701030000005824002003000000EA
:10FCC000010002000100000710003C00000090014C
:10FCD0000100000000000000A00050000000000033
:10FCE0000B09FFFF0000000000E0D7010202020242
:10FCF00002020202020202020202020206801D1930
:10FD00001C18000024FD0100B01E002000010000AE
:10FD10008CBB010024FE0100B01F0020F810000081
:10FD20009CBB0100000000C0A80121008813000056
:10FD300000000000000000000000000000000000C3
:10FD400000000000000000000000000000000000B3
:10FD500000000000000000000000000000000000A3
:10FD60000000000000000000000000000000000093
:10FD70000000000000000000000000000000000083
:10FD80000000000000000000000000000000000073
:10FD90000000000000000000000000000000000063
:10FDA0000000000000000000000000000000000053
:10FDB0000000000000000000000000000008DC005F
:10FDC000ABCDC0A801E1FFFFFF00C0A801010808FA
:10FDD0000808020000000000003000400040004021
:10FDE00000C0000000000000000000000000000053
:10FDF00000000000000000000102573535303000DF
:10FE00000FF8010011F8010015F8010013F80100C6
:10FE1000E9F70100EDF7010000000000000000001C
:04FE20000024F400C6
:040000050001B0C185
:00000001FF
